{
  "contractName": "BetaGuitar",
  "abi": [
    {
      "inputs": [],
      "stateMutability": "nonpayable",
      "type": "constructor"
    },
    {
      "anonymous": false,
      "inputs": [
        {
          "indexed": true,
          "internalType": "address",
          "name": "owner",
          "type": "address"
        },
        {
          "indexed": true,
          "internalType": "address",
          "name": "approved",
          "type": "address"
        },
        {
          "indexed": true,
          "internalType": "uint256",
          "name": "tokenId",
          "type": "uint256"
        }
      ],
      "name": "Approval",
      "type": "event"
    },
    {
      "anonymous": false,
      "inputs": [
        {
          "indexed": true,
          "internalType": "address",
          "name": "owner",
          "type": "address"
        },
        {
          "indexed": true,
          "internalType": "address",
          "name": "operator",
          "type": "address"
        },
        {
          "indexed": false,
          "internalType": "bool",
          "name": "approved",
          "type": "bool"
        }
      ],
      "name": "ApprovalForAll",
      "type": "event"
    },
    {
      "anonymous": false,
      "inputs": [
        {
          "indexed": true,
          "internalType": "address",
          "name": "previousOwner",
          "type": "address"
        },
        {
          "indexed": true,
          "internalType": "address",
          "name": "newOwner",
          "type": "address"
        }
      ],
      "name": "OwnershipTransferred",
      "type": "event"
    },
    {
      "anonymous": false,
      "inputs": [
        {
          "indexed": true,
          "internalType": "address",
          "name": "from",
          "type": "address"
        },
        {
          "indexed": true,
          "internalType": "address",
          "name": "to",
          "type": "address"
        },
        {
          "indexed": true,
          "internalType": "uint256",
          "name": "tokenId",
          "type": "uint256"
        }
      ],
      "name": "Transfer",
      "type": "event"
    },
    {
      "inputs": [],
      "name": "GUITAR_MAX",
      "outputs": [
        {
          "internalType": "uint256",
          "name": "",
          "type": "uint256"
        }
      ],
      "stateMutability": "view",
      "type": "function",
      "constant": true
    },
    {
      "inputs": [],
      "name": "PUBLIC_MINT_LIMIT",
      "outputs": [
        {
          "internalType": "uint256",
          "name": "",
          "type": "uint256"
        }
      ],
      "stateMutability": "view",
      "type": "function",
      "constant": true
    },
    {
      "inputs": [],
      "name": "PUBLIC_PRICE",
      "outputs": [
        {
          "internalType": "uint256",
          "name": "",
          "type": "uint256"
        }
      ],
      "stateMutability": "view",
      "type": "function",
      "constant": true
    },
    {
      "inputs": [],
      "name": "PURCHASE_LIMIT",
      "outputs": [
        {
          "internalType": "uint256",
          "name": "",
          "type": "uint256"
        }
      ],
      "stateMutability": "view",
      "type": "function",
      "constant": true
    },
    {
      "inputs": [],
      "name": "_activeDateTime",
      "outputs": [
        {
          "internalType": "uint256",
          "name": "",
          "type": "uint256"
        }
      ],
      "stateMutability": "view",
      "type": "function",
      "constant": true
    },
    {
      "inputs": [
        {
          "internalType": "address",
          "name": "to",
          "type": "address"
        },
        {
          "internalType": "uint256",
          "name": "tokenId",
          "type": "uint256"
        }
      ],
      "name": "approve",
      "outputs": [],
      "stateMutability": "nonpayable",
      "type": "function"
    },
    {
      "inputs": [
        {
          "internalType": "address",
          "name": "owner",
          "type": "address"
        }
      ],
      "name": "balanceOf",
      "outputs": [
        {
          "internalType": "uint256",
          "name": "",
          "type": "uint256"
        }
      ],
      "stateMutability": "view",
      "type": "function",
      "constant": true
    },
    {
      "inputs": [
        {
          "internalType": "uint256",
          "name": "tokenId",
          "type": "uint256"
        }
      ],
      "name": "getApproved",
      "outputs": [
        {
          "internalType": "address",
          "name": "",
          "type": "address"
        }
      ],
      "stateMutability": "view",
      "type": "function",
      "constant": true
    },
    {
      "inputs": [
        {
          "internalType": "address",
          "name": "owner",
          "type": "address"
        },
        {
          "internalType": "address",
          "name": "operator",
          "type": "address"
        }
      ],
      "name": "isApprovedForAll",
      "outputs": [
        {
          "internalType": "bool",
          "name": "",
          "type": "bool"
        }
      ],
      "stateMutability": "view",
      "type": "function",
      "constant": true
    },
    {
      "inputs": [],
      "name": "name",
      "outputs": [
        {
          "internalType": "string",
          "name": "",
          "type": "string"
        }
      ],
      "stateMutability": "view",
      "type": "function",
      "constant": true
    },
    {
      "inputs": [],
      "name": "owner",
      "outputs": [
        {
          "internalType": "address",
          "name": "",
          "type": "address"
        }
      ],
      "stateMutability": "view",
      "type": "function",
      "constant": true
    },
    {
      "inputs": [
        {
          "internalType": "uint256",
          "name": "tokenId",
          "type": "uint256"
        }
      ],
      "name": "ownerOf",
      "outputs": [
        {
          "internalType": "address",
          "name": "",
          "type": "address"
        }
      ],
      "stateMutability": "view",
      "type": "function",
      "constant": true
    },
    {
      "inputs": [],
      "name": "renounceOwnership",
      "outputs": [],
      "stateMutability": "nonpayable",
      "type": "function"
    },
    {
      "inputs": [
        {
          "internalType": "address",
          "name": "from",
          "type": "address"
        },
        {
          "internalType": "address",
          "name": "to",
          "type": "address"
        },
        {
          "internalType": "uint256",
          "name": "tokenId",
          "type": "uint256"
        }
      ],
      "name": "safeTransferFrom",
      "outputs": [],
      "stateMutability": "nonpayable",
      "type": "function"
    },
    {
      "inputs": [
        {
          "internalType": "address",
          "name": "from",
          "type": "address"
        },
        {
          "internalType": "address",
          "name": "to",
          "type": "address"
        },
        {
          "internalType": "uint256",
          "name": "tokenId",
          "type": "uint256"
        },
        {
          "internalType": "bytes",
          "name": "_data",
          "type": "bytes"
        }
      ],
      "name": "safeTransferFrom",
      "outputs": [],
      "stateMutability": "nonpayable",
      "type": "function"
    },
    {
      "inputs": [
        {
          "internalType": "address",
          "name": "operator",
          "type": "address"
        },
        {
          "internalType": "bool",
          "name": "approved",
          "type": "bool"
        }
      ],
      "name": "setApprovalForAll",
      "outputs": [],
      "stateMutability": "nonpayable",
      "type": "function"
    },
    {
      "inputs": [
        {
          "internalType": "bytes4",
          "name": "interfaceId",
          "type": "bytes4"
        }
      ],
      "name": "supportsInterface",
      "outputs": [
        {
          "internalType": "bool",
          "name": "",
          "type": "bool"
        }
      ],
      "stateMutability": "view",
      "type": "function",
      "constant": true
    },
    {
      "inputs": [],
      "name": "symbol",
      "outputs": [
        {
          "internalType": "string",
          "name": "",
          "type": "string"
        }
      ],
      "stateMutability": "view",
      "type": "function",
      "constant": true
    },
    {
      "inputs": [
        {
          "internalType": "uint256",
          "name": "index",
          "type": "uint256"
        }
      ],
      "name": "tokenByIndex",
      "outputs": [
        {
          "internalType": "uint256",
          "name": "",
          "type": "uint256"
        }
      ],
      "stateMutability": "view",
      "type": "function",
      "constant": true
    },
    {
      "inputs": [
        {
          "internalType": "address",
          "name": "owner",
          "type": "address"
        },
        {
          "internalType": "uint256",
          "name": "index",
          "type": "uint256"
        }
      ],
      "name": "tokenOfOwnerByIndex",
      "outputs": [
        {
          "internalType": "uint256",
          "name": "",
          "type": "uint256"
        }
      ],
      "stateMutability": "view",
      "type": "function",
      "constant": true
    },
    {
      "inputs": [],
      "name": "totalSupply",
      "outputs": [
        {
          "internalType": "uint256",
          "name": "",
          "type": "uint256"
        }
      ],
      "stateMutability": "view",
      "type": "function",
      "constant": true
    },
    {
      "inputs": [
        {
          "internalType": "address",
          "name": "from",
          "type": "address"
        },
        {
          "internalType": "address",
          "name": "to",
          "type": "address"
        },
        {
          "internalType": "uint256",
          "name": "tokenId",
          "type": "uint256"
        }
      ],
      "name": "transferFrom",
      "outputs": [],
      "stateMutability": "nonpayable",
      "type": "function"
    },
    {
      "inputs": [
        {
          "internalType": "address",
          "name": "newOwner",
          "type": "address"
        }
      ],
      "name": "transferOwnership",
      "outputs": [],
      "stateMutability": "nonpayable",
      "type": "function"
    },
    {
      "inputs": [
        {
          "internalType": "address",
          "name": "paymentAddress",
          "type": "address"
        }
      ],
      "name": "setPaymentAddress",
      "outputs": [],
      "stateMutability": "nonpayable",
      "type": "function"
    },
    {
      "inputs": [
        {
          "internalType": "uint256",
          "name": "activeDateTime",
          "type": "uint256"
        }
      ],
      "name": "setActiveDateTime",
      "outputs": [],
      "stateMutability": "nonpayable",
      "type": "function"
    },
    {
      "inputs": [
        {
          "internalType": "uint256",
          "name": "publicMintPrice",
          "type": "uint256"
        }
      ],
      "name": "setMintPrice",
      "outputs": [],
      "stateMutability": "nonpayable",
      "type": "function"
    },
    {
      "inputs": [
        {
          "internalType": "uint256",
          "name": "maxLimit",
          "type": "uint256"
        }
      ],
      "name": "setMaxLimit",
      "outputs": [],
      "stateMutability": "nonpayable",
      "type": "function"
    },
    {
      "inputs": [
        {
          "internalType": "uint256",
          "name": "purchaseLimit",
          "type": "uint256"
        },
        {
          "internalType": "uint256",
          "name": "publicMintLimit",
          "type": "uint256"
        }
      ],
      "name": "setPurchaseLimit",
      "outputs": [],
      "stateMutability": "nonpayable",
      "type": "function"
    },
    {
      "inputs": [],
      "name": "PRICE",
      "outputs": [
        {
          "internalType": "uint256",
          "name": "",
          "type": "uint256"
        }
      ],
      "stateMutability": "view",
      "type": "function",
      "constant": true
    },
    {
      "inputs": [
        {
          "internalType": "string",
          "name": "baseURI",
          "type": "string"
        }
      ],
      "name": "setBaseURI",
      "outputs": [],
      "stateMutability": "nonpayable",
      "type": "function"
    },
    {
      "inputs": [
        {
          "internalType": "address[]",
          "name": "airdropAddress",
          "type": "address[]"
        },
        {
          "internalType": "uint256",
          "name": "numberOfTokens",
          "type": "uint256"
        }
      ],
      "name": "airdrop",
      "outputs": [],
      "stateMutability": "nonpayable",
      "type": "function"
    },
    {
      "inputs": [
        {
          "internalType": "address",
          "name": "to",
          "type": "address"
        },
        {
          "internalType": "uint256",
          "name": "tokenId",
          "type": "uint256"
        }
      ],
      "name": "airdropSpecial",
      "outputs": [],
      "stateMutability": "nonpayable",
      "type": "function"
    },
    {
      "inputs": [
        {
          "internalType": "uint256",
          "name": "numberOfTokens",
          "type": "uint256"
        }
      ],
      "name": "purchase",
      "outputs": [],
      "stateMutability": "payable",
      "type": "function",
      "payable": true
    },
    {
      "inputs": [
        {
          "internalType": "uint256",
          "name": "tokenId",
          "type": "uint256"
        }
      ],
      "name": "tokenURI",
      "outputs": [
        {
          "internalType": "string",
          "name": "",
          "type": "string"
        }
      ],
      "stateMutability": "view",
      "type": "function",
      "constant": true
    },
    {
      "inputs": [],
      "name": "withdraw",
      "outputs": [],
      "stateMutability": "nonpayable",
      "type": "function"
    }
  ],
  "bytecode": "0x600b80546001600160a01b031916736fbaf7a35b481ccb71ca1b45cd9f167f7dc6236f1790556019600c8190556509184e72a000600d556005600e55600f556361e8b41060115560a0604081905260006080819052620000629160129162000146565b503480156200007057600080fd5b50604080518082018252600b81526a2132ba309023bab4ba30b960a91b6020808301918252835180850190945260078452661091551051d55560ca1b908401528151919291620000c39160009162000146565b508051620000d990600190602084019062000146565b5050506000620000ee6200014260201b60201c565b600a80546001600160a01b0319166001600160a01b038316908117909155604051919250906000907f8be0079c531659141344cd1fd0a4f28419497f9722a3daafe3b4186f6b6457e0908290a350620001e2565b3390565b828054600181600116156101000203166002900490600052602060002090601f016020900481019282601f106200018957805160ff1916838001178555620001b9565b82800160010185558215620001b9579182015b82811115620001b95782518255916020019190600101906200019c565b50620001c7929150620001cb565b5090565b5b80821115620001c75760008155600101620001cc565b61277880620001f26000396000f3fe6080604052600436106102345760003560e01c8063715018a611610138578063c204642c116100b0578063e985e9c51161007f578063f2fde38b11610064578063f2fde38b14610980578063f4a0a528146109b3578063fefd229d146109dd57610234565b8063e985e9c514610928578063efef39a11461096357610234565b8063c204642c1461080d578063c87b56dd146108bf578063d75e6110146108e9578063e6220770146108fe57610234565b806395d89b4111610107578063b88d4fde116100ec578063b88d4fde146106fb578063bceae77b146107ce578063bf8bcee4146107e357610234565b806395d89b41146106ab578063a22cb465146106c057610234565b8063715018a614610633578063856de970146106485780638d859f3e146106815780638da5cb5b1461069657610234565b80632f745c59116101cb57806355f804b31161019a578063611f3f101161017f578063611f3f10146105c15780636352211e146105d657806370a082311461060057610234565b806355f804b3146104db5780635e1e10041461058e57610234565b80632f745c59146104205780633ccfd60b1461045957806342842e0e1461046e5780634f6ccce7146104b157610234565b80630ce16802116102075780630ce168021461038c57806318160ddd146103b357806323b872dd146103c85780632b26643f1461040b57610234565b806301ffc9a71461023957806306fdde0314610281578063081812fc1461030b578063095ea7b314610351575b600080fd5b34801561024557600080fd5b5061026d6004803603602081101561025c57600080fd5b50356001600160e01b031916610a0d565b604080519115158252519081900360200190f35b34801561028d57600080fd5b50610296610a51565b6040805160208082528351818301528351919283929083019185019080838360005b838110156102d05781810151838201526020016102b8565b50505050905090810190601f1680156102fd5780820380516001836020036101000a031916815260200191505b509250505060405180910390f35b34801561031757600080fd5b506103356004803603602081101561032e57600080fd5b5035610ae7565b604080516001600160a01b039092168252519081900360200190f35b34801561035d57600080fd5b5061038a6004803603604081101561037457600080fd5b506001600160a01b038135169060200135610b49565b005b34801561039857600080fd5b506103a1610c24565b60408051918252519081900360200190f35b3480156103bf57600080fd5b506103a1610c2a565b3480156103d457600080fd5b5061038a600480360360608110156103eb57600080fd5b506001600160a01b03813581169160208101359091169060400135610c30565b34801561041757600080fd5b506103a1610c87565b34801561042c57600080fd5b506103a16004803603604081101561044357600080fd5b506001600160a01b038135169060200135610c8d565b34801561046557600080fd5b5061038a610cfe565b34801561047a57600080fd5b5061038a6004803603606081101561049157600080fd5b506001600160a01b03813581169160208101359091169060400135610da5565b3480156104bd57600080fd5b506103a1600480360360208110156104d457600080fd5b5035610dc0565b3480156104e757600080fd5b5061038a600480360360208110156104fe57600080fd5b81019060208101813564010000000081111561051957600080fd5b82018360208201111561052b57600080fd5b8035906020019184600183028401116401000000008311171561054d57600080fd5b91908080601f016020809104026020016040519081016040528093929190818152602001838380828437600092019190915250929550610e26945050505050565b34801561059a57600080fd5b5061038a600480360360208110156105b157600080fd5b50356001600160a01b0316610ead565b3480156105cd57600080fd5b506103a1610f50565b3480156105e257600080fd5b50610335600480360360208110156105f957600080fd5b5035610f56565b34801561060c57600080fd5b506103a16004803603602081101561062357600080fd5b50356001600160a01b0316610faa565b34801561063f57600080fd5b5061038a61100d565b34801561065457600080fd5b5061038a6004803603604081101561066b57600080fd5b506001600160a01b0381351690602001356110d8565b34801561068d57600080fd5b506103a16111be565b3480156106a257600080fd5b506103356111c4565b3480156106b757600080fd5b506102966111d3565b3480156106cc57600080fd5b5061038a600480360360408110156106e357600080fd5b506001600160a01b0381351690602001351515611233565b34801561070757600080fd5b5061038a6004803603608081101561071e57600080fd5b6001600160a01b0382358116926020810135909116916040820135919081019060808101606082013564010000000081111561075957600080fd5b82018360208201111561076b57600080fd5b8035906020019184600183028401116401000000008311171561078d57600080fd5b91908080601f016020809104026020016040519081016040528093929190818152602001838380828437600092019190915250929550611338945050505050565b3480156107da57600080fd5b506103a1611396565b3480156107ef57600080fd5b5061038a6004803603602081101561080657600080fd5b503561139c565b34801561081957600080fd5b5061038a6004803603604081101561083057600080fd5b81019060208101813564010000000081111561084b57600080fd5b82018360208201111561085d57600080fd5b8035906020019184602083028401116401000000008311171561087f57600080fd5b9190808060200260200160405190810160405280939291908181526020018383602002808284376000920191909152509295505091359250611415915050565b3480156108cb57600080fd5b50610296600480360360208110156108e257600080fd5b5035611507565b3480156108f557600080fd5b506103a16115f5565b34801561090a57600080fd5b5061038a6004803603602081101561092157600080fd5b50356115fb565b34801561093457600080fd5b5061026d6004803603604081101561094b57600080fd5b506001600160a01b0381358116916020013516611674565b61038a6004803603602081101561097957600080fd5b50356116a2565b34801561098c57600080fd5b5061038a600480360360208110156109a357600080fd5b50356001600160a01b0316611914565b3480156109bf57600080fd5b5061038a600480360360208110156109d657600080fd5b5035611a36565b3480156109e957600080fd5b5061038a60048036036040811015610a0057600080fd5b5080359060200135611aaf565b60006001600160e01b031982167f780e9d63000000000000000000000000000000000000000000000000000000001480610a4b5750610a4b82611b2e565b92915050565b60008054604080516020601f6002600019610100600188161502019095169490940493840181900481028201810190925282815260609390929091830182828015610add5780601f10610ab257610100808354040283529160200191610add565b820191906000526020600020905b815481529060010190602001808311610ac057829003601f168201915b5050505050905090565b6000610af282611ba0565b610b2d5760405162461bcd60e51b815260040180806020018281038252602c81526020018061264e602c913960400191505060405180910390fd5b506000908152600460205260409020546001600160a01b031690565b6000610b5482610f56565b9050806001600160a01b0316836001600160a01b03161415610ba75760405162461bcd60e51b81526004018080602001828103825260218152602001806126c56021913960400191505060405180910390fd5b806001600160a01b0316610bb9611bbd565b6001600160a01b03161480610bda5750610bda81610bd5611bbd565b611674565b610c155760405162461bcd60e51b81526004018080602001828103825260388152602001806125c36038913960400191505060405180910390fd5b610c1f8383611bc1565b505050565b60115481565b60085490565b610c41610c3b611bbd565b82611c3c565b610c7c5760405162461bcd60e51b81526004018080602001828103825260318152602001806126e66031913960400191505060405180910390fd5b610c1f838383611ce0565b600c5481565b6000610c9883610faa565b8210610cd55760405162461bcd60e51b815260040180806020018281038252602b8152602001806124f0602b913960400191505060405180910390fd5b506001600160a01b03919091166000908152600660209081526040808320938352929052205490565b610d06611bbd565b6001600160a01b0316610d176111c4565b6001600160a01b031614610d72576040805162461bcd60e51b815260206004820181905260248201527f4f776e61626c653a2063616c6c6572206973206e6f7420746865206f776e6572604482015290519081900360640190fd5b6040514790339082156108fc029083906000818181858888f19350505050158015610da1573d6000803e3d6000fd5b5050565b610c1f83838360405180602001604052806000815250611338565b6000610dca610c2a565b8210610e075760405162461bcd60e51b815260040180806020018281038252602c815260200180612717602c913960400191505060405180910390fd5b60088281548110610e1457fe5b90600052602060002001549050919050565b610e2e611bbd565b6001600160a01b0316610e3f6111c4565b6001600160a01b031614610e9a576040805162461bcd60e51b815260206004820181905260248201527f4f776e61626c653a2063616c6c6572206973206e6f7420746865206f776e6572604482015290519081900360640190fd5b8051610da190601290602084019061245c565b610eb5611bbd565b6001600160a01b0316610ec66111c4565b6001600160a01b031614610f21576040805162461bcd60e51b815260206004820181905260248201527f4f776e61626c653a2063616c6c6572206973206e6f7420746865206f776e6572604482015290519081900360640190fd5b600b805473ffffffffffffffffffffffffffffffffffffffff19166001600160a01b0392909216919091179055565b600d5481565b6000818152600260205260408120546001600160a01b031680610a4b5760405162461bcd60e51b81526004018080602001828103825260298152602001806126256029913960400191505060405180910390fd5b60006001600160a01b038216610ff15760405162461bcd60e51b815260040180806020018281038252602a8152602001806125fb602a913960400191505060405180910390fd5b506001600160a01b031660009081526003602052604090205490565b611015611bbd565b6001600160a01b03166110266111c4565b6001600160a01b031614611081576040805162461bcd60e51b815260206004820181905260248201527f4f776e61626c653a2063616c6c6572206973206e6f7420746865206f776e6572604482015290519081900360640190fd5b600a546040516000916001600160a01b0316907f8be0079c531659141344cd1fd0a4f28419497f9722a3daafe3b4186f6b6457e0908390a3600a805473ffffffffffffffffffffffffffffffffffffffff19169055565b6110e0611bbd565b6001600160a01b03166110f16111c4565b6001600160a01b03161461114c576040805162461bcd60e51b815260206004820181905260248201527f4f776e61626c653a2063616c6c6572206973206e6f7420746865206f776e6572604482015290519081900360640190fd5b61115581611ba0565b156111a7576040805162461bcd60e51b815260206004820152601360248201527f546f6b656e20616c726561647920657869737400000000000000000000000000604482015290519081900360640190fd5b6111b081611ba0565b610da157610da18282611e1d565b600d5490565b600a546001600160a01b031690565b60018054604080516020601f60026000196101008789161502019095169490940493840181900481028201810190925282815260609390929091830182828015610add5780601f10610ab257610100808354040283529160200191610add565b61123b611bbd565b6001600160a01b0316826001600160a01b031614156112a1576040805162461bcd60e51b815260206004820152601960248201527f4552433732313a20617070726f766520746f2063616c6c657200000000000000604482015290519081900360640190fd5b80600560006112ae611bbd565b6001600160a01b03908116825260208083019390935260409182016000908120918716808252919093529120805460ff1916921515929092179091556112f2611bbd565b6001600160a01b03167f17307eab39ab6107e8899845ad3d59bd9653f200f220920489ca2b5937696c318360405180821515815260200191505060405180910390a35050565b611349611343611bbd565b83611c3c565b6113845760405162461bcd60e51b81526004018080602001828103825260318152602001806126e66031913960400191505060405180910390fd5b61139084848484611e37565b50505050565b600f5481565b6113a4611bbd565b6001600160a01b03166113b56111c4565b6001600160a01b031614611410576040805162461bcd60e51b815260206004820181905260248201527f4f776e61626c653a2063616c6c6572206973206e6f7420746865206f776e6572604482015290519081900360640190fd5b600c55565b61141d611bbd565b6001600160a01b031661142e6111c4565b6001600160a01b031614611489576040805162461bcd60e51b815260206004820181905260248201527f4f776e61626c653a2063616c6c6572206973206e6f7420746865206f776e6572604482015290519081900360640190fd5b60005b8251811015610c1f5760005b828110156114fe5760006114ac6013611e89565b9050600c546114bb6013611e89565b10156114f5576114cb6013611e8d565b6114d481611ba0565b6114f5576114f58584815181106114e757fe5b602002602001015182611e1d565b50600101611498565b5060010161148c565b606061151282611ba0565b611563576040805162461bcd60e51b815260206004820152601460248201527f546f6b656e20646f6573206e6f74206578697374000000000000000000000000604482015290519081900360640190fd5b6012805460408051602060026001851615610100026000190190941693909304601f810184900484028201840190925281815292918301828280156115e95780601f106115be576101008083540402835291602001916115e9565b820191906000526020600020905b8154815290600101906020018083116115cc57829003601f168201915b50505050509050919050565b600e5481565b611603611bbd565b6001600160a01b03166116146111c4565b6001600160a01b03161461166f576040805162461bcd60e51b815260206004820181905260248201527f4f776e61626c653a2063616c6c6572206973206e6f7420746865206f776e6572604482015290519081900360640190fd5b601155565b6001600160a01b03918216600090815260056020908152604080832093909416825291909152205460ff1690565b600c546116af6013611e89565b10611701576040805162461bcd60e51b815260206004820181905260248201527f507572636861736520776f756c6420657863656564204755495441525f4d4158604482015290519081900360640190fd5b6117096111c4565b6001600160a01b0316336001600160a01b0316146118be57600e548111156117625760405162461bcd60e51b81526004018080602001828103825260228152602001806126a36022913960400191505060405180910390fd5b348161176c6111be565b0211156117c0576040805162461bcd60e51b815260206004820152601c60248201527f45544820616d6f756e74206973206e6f742073756666696369656e7400000000604482015290519081900360640190fd5b6011544211611816576040805162461bcd60e51b815260206004820152601560248201527f4d696e74206973206e6f74206163746976617465640000000000000000000000604482015290519081900360640190fd5b3360009081526010602052604090208054820190819055600f541015611883576040805162461bcd60e51b815260206004820152601e60248201527f4f766572666c6f7720666f72205055424c49435f4d494e545f4c494d49540000604482015290519081900360640190fd5b600b546040516001600160a01b03909116903480156108fc02916000818181858888f193505050501580156118bc573d6000803e3d6000fd5b505b60005b81811015610da15760006118d56013611e89565b9050600c546118e46013611e89565b101561190b576118f46013611e8d565b6118fd81611ba0565b61190b5761190b3382611e1d565b506001016118c1565b61191c611bbd565b6001600160a01b031661192d6111c4565b6001600160a01b031614611988576040805162461bcd60e51b815260206004820181905260248201527f4f776e61626c653a2063616c6c6572206973206e6f7420746865206f776e6572604482015290519081900360640190fd5b6001600160a01b0381166119cd5760405162461bcd60e51b815260040180806020018281038252602681526020018061254d6026913960400191505060405180910390fd5b600a546040516001600160a01b038084169216907f8be0079c531659141344cd1fd0a4f28419497f9722a3daafe3b4186f6b6457e090600090a3600a805473ffffffffffffffffffffffffffffffffffffffff19166001600160a01b0392909216919091179055565b611a3e611bbd565b6001600160a01b0316611a4f6111c4565b6001600160a01b031614611aaa576040805162461bcd60e51b815260206004820181905260248201527f4f776e61626c653a2063616c6c6572206973206e6f7420746865206f776e6572604482015290519081900360640190fd5b600d55565b611ab7611bbd565b6001600160a01b0316611ac86111c4565b6001600160a01b031614611b23576040805162461bcd60e51b815260206004820181905260248201527f4f776e61626c653a2063616c6c6572206973206e6f7420746865206f776e6572604482015290519081900360640190fd5b600e91909155600f55565b60006001600160e01b031982167f80ac58cd000000000000000000000000000000000000000000000000000000001480611b9157506001600160e01b031982167f5b5e139f00000000000000000000000000000000000000000000000000000000145b80610a4b5750610a4b82611e96565b6000908152600260205260409020546001600160a01b0316151590565b3390565b6000818152600460205260409020805473ffffffffffffffffffffffffffffffffffffffff19166001600160a01b0384169081179091558190611c0382610f56565b6001600160a01b03167f8c5be1e5ebec7d5bd14f71427d1e84f3dd0314c0f7b2291e5b200ac8c7c3b92560405160405180910390a45050565b6000611c4782611ba0565b611c825760405162461bcd60e51b815260040180806020018281038252602c815260200180612597602c913960400191505060405180910390fd5b6000611c8d83610f56565b9050806001600160a01b0316846001600160a01b03161480611cc85750836001600160a01b0316611cbd84610ae7565b6001600160a01b0316145b80611cd85750611cd88185611674565b949350505050565b826001600160a01b0316611cf382610f56565b6001600160a01b031614611d385760405162461bcd60e51b815260040180806020018281038252602981526020018061267a6029913960400191505060405180910390fd5b6001600160a01b038216611d7d5760405162461bcd60e51b81526004018080602001828103825260248152602001806125736024913960400191505060405180910390fd5b611d88838383611ec8565b611d93600082611bc1565b6001600160a01b0380841660008181526003602090815260408083208054600019019055938616808352848320805460010190558583526002909152838220805473ffffffffffffffffffffffffffffffffffffffff1916821790559251849392917fddf252ad1be2c89b69c2b068fc378daa952ba7f163c4a11628f55a4df523b3ef91a4505050565b610da1828260405180602001604052806000815250611f51565b611e42848484611ce0565b611e4e84848484611fa3565b6113905760405162461bcd60e51b815260040180806020018281038252603281526020018061251b6032913960400191505060405180910390fd5b5490565b80546001019055565b6001600160e01b031981167f01ffc9a70000000000000000000000000000000000000000000000000000000014919050565b611ed3838383610c1f565b6001600160a01b038316611eef57611eea81612171565b611f12565b816001600160a01b0316836001600160a01b031614611f1257611f1283826121b5565b6001600160a01b038216611f2e57611f298161224a565b610c1f565b826001600160a01b0316826001600160a01b031614610c1f57610c1f82826122d8565b611f5b838361231c565b611f686000848484611fa3565b610c1f5760405162461bcd60e51b815260040180806020018281038252603281526020018061251b6032913960400191505060405180910390fd5b6000611fb7846001600160a01b0316612456565b1561216657836001600160a01b031663150b7a02611fd3611bbd565b8786866040518563ffffffff1660e01b815260040180856001600160a01b03168152602001846001600160a01b0316815260200183815260200180602001828103825283818151815260200191508051906020019080838360005b8381101561204657818101518382015260200161202e565b50505050905090810190601f1680156120735780820380516001836020036101000a031916815260200191505b5095505050505050602060405180830381600087803b15801561209557600080fd5b505af19250505080156120ba57506040513d60208110156120b557600080fd5b505160015b612133573d8080156120e8576040519150601f19603f3d011682016040523d82523d6000602084013e6120ed565b606091505b50805161212b5760405162461bcd60e51b815260040180806020018281038252603281526020018061251b6032913960400191505060405180910390fd5b805181602001fd5b6001600160e01b0319167f150b7a0200000000000000000000000000000000000000000000000000000000149050611cd8565b506001949350505050565b600880546000838152600960205260408120829055600182018355919091527ff3f7a9fe364faab93b216da50a3214154f22a0a2b415b23a84c8169e8b636ee30155565b600060016121c284610faa565b6000848152600760205260409020549190039150808214612217576001600160a01b03841660009081526006602090815260408083208584528252808320548484528184208190558352600790915290208190555b5060009182526007602090815260408084208490556001600160a01b039094168352600681528383209183525290812055565b6008805460008381526009602052604081205460001983019390928490811061226f57fe5b90600052602060002001549050806008838154811061228a57fe5b60009182526020808320909101929092558281526009909152604080822084905585825281205560088054806122bc57fe5b6001900381819060005260206000200160009055905550505050565b60006122e383610faa565b6001600160a01b039093166000908152600660209081526040808320868452825280832085905593825260079052919091209190915550565b6001600160a01b038216612377576040805162461bcd60e51b815260206004820181905260248201527f4552433732313a206d696e7420746f20746865207a65726f2061646472657373604482015290519081900360640190fd5b61238081611ba0565b156123d2576040805162461bcd60e51b815260206004820152601c60248201527f4552433732313a20746f6b656e20616c7265616479206d696e74656400000000604482015290519081900360640190fd5b6123de60008383611ec8565b6001600160a01b0382166000818152600360209081526040808320805460010190558483526002909152808220805473ffffffffffffffffffffffffffffffffffffffff19168417905551839291907fddf252ad1be2c89b69c2b068fc378daa952ba7f163c4a11628f55a4df523b3ef908290a45050565b3b151590565b828054600181600116156101000203166002900490600052602060002090601f016020900481019282601f1061249d57805160ff19168380011785556124ca565b828001600101855582156124ca579182015b828111156124ca5782518255916020019190600101906124af565b506124d69291506124da565b5090565b5b808211156124d657600081556001016124db56fe455243373231456e756d657261626c653a206f776e657220696e646578206f7574206f6620626f756e64734552433732313a207472616e7366657220746f206e6f6e20455243373231526563656976657220696d706c656d656e7465724f776e61626c653a206e6577206f776e657220697320746865207a65726f20616464726573734552433732313a207472616e7366657220746f20746865207a65726f20616464726573734552433732313a206f70657261746f7220717565727920666f72206e6f6e6578697374656e7420746f6b656e4552433732313a20617070726f76652063616c6c6572206973206e6f74206f776e6572206e6f7220617070726f76656420666f7220616c6c4552433732313a2062616c616e636520717565727920666f7220746865207a65726f20616464726573734552433732313a206f776e657220717565727920666f72206e6f6e6578697374656e7420746f6b656e4552433732313a20617070726f76656420717565727920666f72206e6f6e6578697374656e7420746f6b656e4552433732313a207472616e73666572206f6620746f6b656e2074686174206973206e6f74206f776e43616e206f6e6c79206d696e7420757020746f207075726368617365206c696d69744552433732313a20617070726f76616c20746f2063757272656e74206f776e65724552433732313a207472616e736665722063616c6c6572206973206e6f74206f776e6572206e6f7220617070726f766564455243373231456e756d657261626c653a20676c6f62616c20696e646578206f7574206f6620626f756e6473a2646970667358221220d5f44af3d49153dcdbdd1c032303c3593388b18e9707fba063f31d7d81d9440a64736f6c634300060c0033",
  "immutableReferences": {},
  "source": "\npragma solidity 0.6.12;\n\nimport \"../nft-farm/ERC721.sol\";\ncontract BetaGuitar is ERC721Enumerable, Ownable {\n    using Counters for Counters.Counter;\n    using Strings for uint256;\n\n    address payable private _PaymentAddress = payable(0x6fbAF7a35B481Ccb71cA1b45cD9f167F7dc6236f);\n\n    uint256 public GUITAR_MAX = 25;\n    uint256 public PUBLIC_PRICE = 0.00001 ether;\n    uint256 public PURCHASE_LIMIT = 5;\n    uint256 public PUBLIC_MINT_LIMIT = GUITAR_MAX;\n\n    mapping(address => uint256) private _mappingPublicMintCount;\n\n    uint256 public _activeDateTime = 1642640400; //(GMT): Thursday, January 20, 2022 1:00:00 PM\n    \n    string private _tokenBaseURI = \"\";\n    \n    Counters.Counter private _publicGUITAR;\n\n    constructor() ERC721(\"Beta Guitar\", \"BETAGUT\") public {}\n\n    function setPaymentAddress(address paymentAddress) external onlyOwner {\n        _PaymentAddress = payable(paymentAddress);\n    }\n\n    function setActiveDateTime(uint256 activeDateTime) external onlyOwner {\n        _activeDateTime = activeDateTime;\n    }\n\n    function setMintPrice(uint256 publicMintPrice) external onlyOwner {\n        PUBLIC_PRICE = publicMintPrice;\n    }\n\n    function setMaxLimit(uint256 maxLimit) external onlyOwner {\n        GUITAR_MAX = maxLimit;\n    }\n\n    function setPurchaseLimit(uint256 purchaseLimit, uint256 publicMintLimit) external onlyOwner {\n        PURCHASE_LIMIT = purchaseLimit;\n        PUBLIC_MINT_LIMIT = publicMintLimit;\n    }\n\n    function PRICE() public view returns (uint256) {\n        return PUBLIC_PRICE;\n    }\n\n    function setBaseURI(string memory baseURI) external onlyOwner {\n        _tokenBaseURI = baseURI;\n    }\n\n    function airdrop(address[] memory airdropAddress, uint256 numberOfTokens) external onlyOwner {\n        for (uint256 k = 0; k < airdropAddress.length; k++) {\n            for (uint256 i = 0; i < numberOfTokens; i++) {\n                uint256 tokenId = _publicGUITAR.current();\n\n                if (_publicGUITAR.current() < GUITAR_MAX) {\n                    _publicGUITAR.increment();\n                    if (!_exists(tokenId)) _safeMint(airdropAddress[k], tokenId);\n                }\n            }\n        }\n    }\n\n    function airdropSpecial(address to, uint256 tokenId) external onlyOwner {\n        require(!_exists(tokenId), \"Token already exist\");\n        if (!_exists(tokenId)) _safeMint(to, tokenId);\n    }\n\n    function purchase(uint256 numberOfTokens) external payable {\n        require(_publicGUITAR.current() < GUITAR_MAX,\"Purchase would exceed GUITAR_MAX\");\n\n        if (msg.sender != owner()) {\n            require(numberOfTokens <= PURCHASE_LIMIT,\"Can only mint up to purchase limit\");\n            require(PRICE() * numberOfTokens <= msg.value,\"ETH amount is not sufficient\");\n            require(block.timestamp > _activeDateTime , \"Mint is not activated\");\n            _mappingPublicMintCount[msg.sender] = _mappingPublicMintCount[msg.sender] + numberOfTokens;\n            require(_mappingPublicMintCount[msg.sender] <= PUBLIC_MINT_LIMIT,\"Overflow for PUBLIC_MINT_LIMIT\");\n\n            _PaymentAddress.transfer(msg.value);\n        }\n\n        for (uint256 i = 0; i < numberOfTokens; i++) {\n            uint256 tokenId = _publicGUITAR.current();\n\n            if (_publicGUITAR.current() < GUITAR_MAX) {\n                _publicGUITAR.increment();\n                if (!_exists(tokenId)) _safeMint(msg.sender, tokenId);\n            }\n        }\n    }\n\n    function tokenURI(uint256 tokenId) public view override(ERC721) returns (string memory)\n    {\n        require(_exists(tokenId), \"Token does not exist\");\n        return _tokenBaseURI;\n    }\n\n    function withdraw() external onlyOwner {\n        uint256 balance = address(this).balance;\n\n        payable(msg.sender).transfer(balance);\n    }\n}\n",
  "sourcePath": "G:\\Blockchain\\Ethereum\\GuitarSwap\\Work\\PancakeSwap\\Work\\guitar-contracts\\contracts\\mints\\BetaGuitar.sol",
  "compiler": {
    "name": "solc",
    "version": "0.6.12+commit.27d51765.Emscripten.clang"
  },
  "schemaVersion": "3.4.5",
  "updatedAt": "2022-03-21T03:38:12.597Z",
  "networkType": "ethereum",
  "devdoc": {
    "kind": "dev",
    "methods": {
      "approve(address,uint256)": {
        "details": "See {IERC721-approve}."
      },
      "balanceOf(address)": {
        "details": "See {IERC721-balanceOf}."
      },
      "getApproved(uint256)": {
        "details": "See {IERC721-getApproved}."
      },
      "isApprovedForAll(address,address)": {
        "details": "See {IERC721-isApprovedForAll}."
      },
      "name()": {
        "details": "See {IERC721Metadata-name}."
      },
      "owner()": {
        "details": "Returns the address of the current owner."
      },
      "ownerOf(uint256)": {
        "details": "See {IERC721-ownerOf}."
      },
      "renounceOwnership()": {
        "details": "Leaves the contract without owner. It will not be possible to call `onlyOwner` functions anymore. Can only be called by the current owner. NOTE: Renouncing ownership will leave the contract without an owner, thereby removing any functionality that is only available to the owner."
      },
      "safeTransferFrom(address,address,uint256)": {
        "details": "See {IERC721-safeTransferFrom}."
      },
      "safeTransferFrom(address,address,uint256,bytes)": {
        "details": "See {IERC721-safeTransferFrom}."
      },
      "setApprovalForAll(address,bool)": {
        "details": "See {IERC721-setApprovalForAll}."
      },
      "supportsInterface(bytes4)": {
        "details": "See {IERC165-supportsInterface}."
      },
      "symbol()": {
        "details": "See {IERC721Metadata-symbol}."
      },
      "tokenByIndex(uint256)": {
        "details": "See {IERC721Enumerable-tokenByIndex}."
      },
      "tokenOfOwnerByIndex(address,uint256)": {
        "details": "See {IERC721Enumerable-tokenOfOwnerByIndex}."
      },
      "tokenURI(uint256)": {
        "details": "See {IERC721Metadata-tokenURI}."
      },
      "totalSupply()": {
        "details": "See {IERC721Enumerable-totalSupply}."
      },
      "transferFrom(address,address,uint256)": {
        "details": "See {IERC721-transferFrom}."
      },
      "transferOwnership(address)": {
        "details": "Transfers ownership of the contract to a new account (`newOwner`). Can only be called by the current owner."
      }
    },
    "version": 1
  },
  "userdoc": {
    "kind": "user",
    "methods": {},
    "version": 1
  }
}