{
  "contractName": "GuitarNftFarm",
  "abi": [
    {
      "inputs": [
        {
          "internalType": "contract IBEP20",
          "name": "_stakingToken",
          "type": "address"
        },
        {
          "internalType": "contract ERC721Enumerable",
          "name": "_nftToken",
          "type": "address"
        },
        {
          "internalType": "uint256",
          "name": "_startAt",
          "type": "uint256"
        },
        {
          "internalType": "uint256",
          "name": "_endAt",
          "type": "uint256"
        },
        {
          "internalType": "uint256",
          "name": "_totalNftsToSell",
          "type": "uint256"
        },
        {
          "internalType": "uint256",
          "name": "_nftPrice",
          "type": "uint256"
        },
        {
          "internalType": "uint256",
          "name": "_maxPerUser",
          "type": "uint256"
        },
        {
          "internalType": "uint16",
          "name": "_depositFeeBP",
          "type": "uint16"
        },
        {
          "internalType": "address",
          "name": "_feeAddress",
          "type": "address"
        },
        {
          "internalType": "uint256",
          "name": "_lockPeriod",
          "type": "uint256"
        }
      ],
      "stateMutability": "nonpayable",
      "type": "constructor"
    },
    {
      "anonymous": false,
      "inputs": [
        {
          "indexed": false,
          "internalType": "uint256",
          "name": "amount",
          "type": "uint256"
        }
      ],
      "name": "AdminNftWithdrawn",
      "type": "event"
    },
    {
      "anonymous": false,
      "inputs": [
        {
          "indexed": false,
          "internalType": "address",
          "name": "tokenRecovered",
          "type": "address"
        },
        {
          "indexed": false,
          "internalType": "uint256",
          "name": "amount",
          "type": "uint256"
        }
      ],
      "name": "AdminTokenRecovery",
      "type": "event"
    },
    {
      "anonymous": false,
      "inputs": [
        {
          "indexed": true,
          "internalType": "address",
          "name": "user",
          "type": "address"
        },
        {
          "indexed": false,
          "internalType": "uint256",
          "name": "claimedTokenAmount",
          "type": "uint256"
        },
        {
          "indexed": false,
          "internalType": "uint256",
          "name": "claimedNftAmount",
          "type": "uint256"
        }
      ],
      "name": "Claimed",
      "type": "event"
    },
    {
      "anonymous": false,
      "inputs": [
        {
          "indexed": false,
          "internalType": "uint16",
          "name": "oldFee",
          "type": "uint16"
        },
        {
          "indexed": false,
          "internalType": "uint16",
          "name": "newFee",
          "type": "uint16"
        }
      ],
      "name": "DepositFeeUpdated",
      "type": "event"
    },
    {
      "anonymous": false,
      "inputs": [
        {
          "indexed": true,
          "internalType": "address",
          "name": "user",
          "type": "address"
        },
        {
          "indexed": false,
          "internalType": "uint256",
          "name": "amount",
          "type": "uint256"
        }
      ],
      "name": "EmergencyWithdrawn",
      "type": "event"
    },
    {
      "anonymous": false,
      "inputs": [
        {
          "indexed": false,
          "internalType": "uint256",
          "name": "oldDate",
          "type": "uint256"
        },
        {
          "indexed": false,
          "internalType": "uint256",
          "name": "newDate",
          "type": "uint256"
        }
      ],
      "name": "EndDateUpdated",
      "type": "event"
    },
    {
      "anonymous": false,
      "inputs": [],
      "name": "FarmingEnded",
      "type": "event"
    },
    {
      "anonymous": false,
      "inputs": [
        {
          "indexed": false,
          "internalType": "address",
          "name": "oldAddress",
          "type": "address"
        },
        {
          "indexed": false,
          "internalType": "address",
          "name": "newAddress",
          "type": "address"
        }
      ],
      "name": "FeeAddressUpdated",
      "type": "event"
    },
    {
      "anonymous": false,
      "inputs": [
        {
          "indexed": false,
          "internalType": "uint256",
          "name": "oldPeriod",
          "type": "uint256"
        },
        {
          "indexed": false,
          "internalType": "uint256",
          "name": "newPeriod",
          "type": "uint256"
        }
      ],
      "name": "LockPeriodUpdated",
      "type": "event"
    },
    {
      "anonymous": false,
      "inputs": [
        {
          "indexed": false,
          "internalType": "uint256",
          "name": "oldLimit",
          "type": "uint256"
        },
        {
          "indexed": false,
          "internalType": "uint256",
          "name": "newLimit",
          "type": "uint256"
        }
      ],
      "name": "MaxPerUserUpdated",
      "type": "event"
    },
    {
      "anonymous": false,
      "inputs": [
        {
          "indexed": false,
          "internalType": "uint256",
          "name": "oldPrice",
          "type": "uint256"
        },
        {
          "indexed": false,
          "internalType": "uint256",
          "name": "newPrice",
          "type": "uint256"
        }
      ],
      "name": "NftPriceUpdated",
      "type": "event"
    },
    {
      "anonymous": false,
      "inputs": [
        {
          "indexed": true,
          "internalType": "address",
          "name": "previousOwner",
          "type": "address"
        },
        {
          "indexed": true,
          "internalType": "address",
          "name": "newOwner",
          "type": "address"
        }
      ],
      "name": "OwnershipTransferred",
      "type": "event"
    },
    {
      "anonymous": false,
      "inputs": [
        {
          "indexed": true,
          "internalType": "address",
          "name": "user",
          "type": "address"
        },
        {
          "indexed": false,
          "internalType": "uint256",
          "name": "tokenAmount",
          "type": "uint256"
        },
        {
          "indexed": false,
          "internalType": "uint256",
          "name": "nftToBuyAmount",
          "type": "uint256"
        }
      ],
      "name": "Staked",
      "type": "event"
    },
    {
      "anonymous": false,
      "inputs": [
        {
          "indexed": false,
          "internalType": "uint256",
          "name": "oldDate",
          "type": "uint256"
        },
        {
          "indexed": false,
          "internalType": "uint256",
          "name": "newDate",
          "type": "uint256"
        }
      ],
      "name": "StartDateUpdated",
      "type": "event"
    },
    {
      "anonymous": false,
      "inputs": [
        {
          "indexed": false,
          "internalType": "uint256",
          "name": "oldAmount",
          "type": "uint256"
        },
        {
          "indexed": false,
          "internalType": "uint256",
          "name": "newAmount",
          "type": "uint256"
        }
      ],
      "name": "TotalNftsToSellUpdated",
      "type": "event"
    },
    {
      "inputs": [],
      "name": "MAX_DEPOSIT_FEE",
      "outputs": [
        {
          "internalType": "uint16",
          "name": "",
          "type": "uint16"
        }
      ],
      "stateMutability": "view",
      "type": "function"
    },
    {
      "inputs": [],
      "name": "MAX_LOCK_PERIOD",
      "outputs": [
        {
          "internalType": "uint256",
          "name": "",
          "type": "uint256"
        }
      ],
      "stateMutability": "view",
      "type": "function"
    },
    {
      "inputs": [],
      "name": "depositFeeBP",
      "outputs": [
        {
          "internalType": "uint16",
          "name": "",
          "type": "uint16"
        }
      ],
      "stateMutability": "view",
      "type": "function"
    },
    {
      "inputs": [],
      "name": "endAt",
      "outputs": [
        {
          "internalType": "uint256",
          "name": "",
          "type": "uint256"
        }
      ],
      "stateMutability": "view",
      "type": "function"
    },
    {
      "inputs": [],
      "name": "feeAddress",
      "outputs": [
        {
          "internalType": "address",
          "name": "",
          "type": "address"
        }
      ],
      "stateMutability": "view",
      "type": "function"
    },
    {
      "inputs": [],
      "name": "lockPeriod",
      "outputs": [
        {
          "internalType": "uint256",
          "name": "",
          "type": "uint256"
        }
      ],
      "stateMutability": "view",
      "type": "function"
    },
    {
      "inputs": [],
      "name": "maxPerUser",
      "outputs": [
        {
          "internalType": "uint256",
          "name": "",
          "type": "uint256"
        }
      ],
      "stateMutability": "view",
      "type": "function"
    },
    {
      "inputs": [],
      "name": "nftPrice",
      "outputs": [
        {
          "internalType": "uint256",
          "name": "",
          "type": "uint256"
        }
      ],
      "stateMutability": "view",
      "type": "function"
    },
    {
      "inputs": [],
      "name": "nftToken",
      "outputs": [
        {
          "internalType": "contract ERC721Enumerable",
          "name": "",
          "type": "address"
        }
      ],
      "stateMutability": "view",
      "type": "function"
    },
    {
      "inputs": [],
      "name": "owner",
      "outputs": [
        {
          "internalType": "address",
          "name": "",
          "type": "address"
        }
      ],
      "stateMutability": "view",
      "type": "function"
    },
    {
      "inputs": [],
      "name": "renounceOwnership",
      "outputs": [],
      "stateMutability": "nonpayable",
      "type": "function"
    },
    {
      "inputs": [],
      "name": "stakingToken",
      "outputs": [
        {
          "internalType": "contract IBEP20",
          "name": "",
          "type": "address"
        }
      ],
      "stateMutability": "view",
      "type": "function"
    },
    {
      "inputs": [],
      "name": "startAt",
      "outputs": [
        {
          "internalType": "uint256",
          "name": "",
          "type": "uint256"
        }
      ],
      "stateMutability": "view",
      "type": "function"
    },
    {
      "inputs": [],
      "name": "totalNftsLocked",
      "outputs": [
        {
          "internalType": "uint256",
          "name": "",
          "type": "uint256"
        }
      ],
      "stateMutability": "view",
      "type": "function"
    },
    {
      "inputs": [],
      "name": "totalNftsSold",
      "outputs": [
        {
          "internalType": "uint256",
          "name": "",
          "type": "uint256"
        }
      ],
      "stateMutability": "view",
      "type": "function"
    },
    {
      "inputs": [],
      "name": "totalNftsToSell",
      "outputs": [
        {
          "internalType": "uint256",
          "name": "",
          "type": "uint256"
        }
      ],
      "stateMutability": "view",
      "type": "function"
    },
    {
      "inputs": [],
      "name": "totalTokensLocked",
      "outputs": [
        {
          "internalType": "uint256",
          "name": "",
          "type": "uint256"
        }
      ],
      "stateMutability": "view",
      "type": "function"
    },
    {
      "inputs": [
        {
          "internalType": "address",
          "name": "newOwner",
          "type": "address"
        }
      ],
      "name": "transferOwnership",
      "outputs": [],
      "stateMutability": "nonpayable",
      "type": "function"
    },
    {
      "inputs": [
        {
          "internalType": "address",
          "name": "",
          "type": "address"
        }
      ],
      "name": "userInfo",
      "outputs": [
        {
          "internalType": "uint256",
          "name": "nftsLocked",
          "type": "uint256"
        },
        {
          "internalType": "uint256",
          "name": "tokensLocked",
          "type": "uint256"
        },
        {
          "internalType": "uint256",
          "name": "nftsPurchased",
          "type": "uint256"
        },
        {
          "internalType": "uint256",
          "name": "lastStakedAt",
          "type": "uint256"
        }
      ],
      "stateMutability": "view",
      "type": "function"
    },
    {
      "inputs": [
        {
          "internalType": "uint256",
          "name": "tokenAmountToStake",
          "type": "uint256"
        },
        {
          "internalType": "uint256",
          "name": "nftAmountToBuy",
          "type": "uint256"
        }
      ],
      "name": "stake",
      "outputs": [],
      "stateMutability": "nonpayable",
      "type": "function"
    },
    {
      "inputs": [],
      "name": "claim",
      "outputs": [],
      "stateMutability": "nonpayable",
      "type": "function"
    },
    {
      "inputs": [
        {
          "internalType": "uint256",
          "name": "_startAt",
          "type": "uint256"
        }
      ],
      "name": "setStartDate",
      "outputs": [],
      "stateMutability": "nonpayable",
      "type": "function"
    },
    {
      "inputs": [
        {
          "internalType": "uint256",
          "name": "_endAt",
          "type": "uint256"
        }
      ],
      "name": "setEndDate",
      "outputs": [],
      "stateMutability": "nonpayable",
      "type": "function"
    },
    {
      "inputs": [
        {
          "internalType": "uint256",
          "name": "_totalNftsToSell",
          "type": "uint256"
        }
      ],
      "name": "setTotalNftsToSell",
      "outputs": [],
      "stateMutability": "nonpayable",
      "type": "function"
    },
    {
      "inputs": [
        {
          "internalType": "uint256",
          "name": "_maxPerUser",
          "type": "uint256"
        }
      ],
      "name": "setMaxPerUser",
      "outputs": [],
      "stateMutability": "nonpayable",
      "type": "function"
    },
    {
      "inputs": [
        {
          "internalType": "uint256",
          "name": "_nftPrice",
          "type": "uint256"
        }
      ],
      "name": "setNftPrice",
      "outputs": [],
      "stateMutability": "nonpayable",
      "type": "function"
    },
    {
      "inputs": [],
      "name": "endFarming",
      "outputs": [],
      "stateMutability": "nonpayable",
      "type": "function"
    },
    {
      "inputs": [
        {
          "internalType": "uint16",
          "name": "_depositFeeBP",
          "type": "uint16"
        }
      ],
      "name": "updateDepositFee",
      "outputs": [],
      "stateMutability": "nonpayable",
      "type": "function"
    },
    {
      "inputs": [
        {
          "internalType": "address",
          "name": "_feeAddress",
          "type": "address"
        }
      ],
      "name": "updateFeeAddresss",
      "outputs": [],
      "stateMutability": "nonpayable",
      "type": "function"
    },
    {
      "inputs": [
        {
          "internalType": "uint256",
          "name": "_lockPeriod",
          "type": "uint256"
        }
      ],
      "name": "updateLockPeriod",
      "outputs": [],
      "stateMutability": "nonpayable",
      "type": "function"
    },
    {
      "inputs": [
        {
          "internalType": "uint256",
          "name": "nftAmount",
          "type": "uint256"
        }
      ],
      "name": "withdrawRemainedNfts",
      "outputs": [],
      "stateMutability": "nonpayable",
      "type": "function"
    },
    {
      "inputs": [],
      "name": "emergencyWithdraw",
      "outputs": [],
      "stateMutability": "nonpayable",
      "type": "function"
    },
    {
      "inputs": [
        {
          "internalType": "address",
          "name": "_tokenAddress",
          "type": "address"
        },
        {
          "internalType": "uint256",
          "name": "_tokenAmount",
          "type": "uint256"
        }
      ],
      "name": "recoverWrongTokens",
      "outputs": [],
      "stateMutability": "nonpayable",
      "type": "function"
    },
    {
      "inputs": [
        {
          "internalType": "address",
          "name": "",
          "type": "address"
        },
        {
          "internalType": "address",
          "name": "",
          "type": "address"
        },
        {
          "internalType": "uint256",
          "name": "",
          "type": "uint256"
        },
        {
          "internalType": "bytes",
          "name": "",
          "type": "bytes"
        }
      ],
      "name": "onERC721Received",
      "outputs": [
        {
          "internalType": "bytes4",
          "name": "",
          "type": "bytes4"
        }
      ],
      "stateMutability": "nonpayable",
      "type": "function"
    }
  ],
  "bytecode": "0x608060405260006009556000600a556000600b553480156200002057600080fd5b5060405162002cbc38038062002cbc83398181016040526101408110156200004757600080fd5b508051602082015160408301516060840151608085015160a086015160c087015160e088015161010089015161012090990151979896979596949593949293919290916000620000966200034d565b600080546001600160a01b0319166001600160a01b0383169081178255604051929350917f8be0079c531659141344cd1fd0a4f28419497f9722a3daafe3b4186f6b6457e0908290a35060018055600280546001600160a01b03808d166001600160a01b03199283161790925560038054928c169290911691909117905586881115620001555760405162461bcd60e51b815260040180806020018281038252602481526020018062002c716024913960400191505060405180910390fd5b42881015620001965760405162461bcd60e51b815260040180806020018281038252602781526020018062002c956027913960400191505060405180910390fd5b60048890556005879055600686905584620001ec576040805162461bcd60e51b8152602060048201526011602482015270496e76616c6964206e667420707269636560781b604482015290519081900360640190fd5b600785905560088490556107d061ffff8416111562000252576040805162461bcd60e51b815260206004820152601960248201527f4465706f736974206665652065786365656473206c696d697400000000000000604482015290519081900360640190fd5b600c805461ffff191661ffff85161790556001600160a01b038216620002bf576040805162461bcd60e51b815260206004820152601360248201527f496e76616c696420666565206164647265737300000000000000000000000000604482015290519081900360640190fd5b600c805462010000600160b01b031916620100006001600160a01b038516021790556276a7008111156200033a576040805162461bcd60e51b815260206004820152601960248201527f4c6f636b20706572696f642065786365656473206c696d697400000000000000604482015290519081900360640190fd5b600d555062000351975050505050505050565b3390565b61291080620003616000396000f3fe608060405234801561001057600080fd5b50600436106102265760003560e01c80637b0472f01161012a578063b9b2f211116100bd578063db2e21bc1161008c578063f2fde38b11610071578063f2fde38b14610595578063f5540162146105bb578063f68aeb92146105c357610226565b8063db2e21bc14610585578063dc5bf9611461058d57610226565b8063b9b2f21114610547578063c6d87dd51461056d578063c744656514610575578063d06fcba81461057d57610226565b806382d95df5116100f957806382d95df5146104e45780638aab7d1c146105015780638da5cb5b1461052257806391db7b0d1461052a57610226565b80637b0472f01461047f5780637cc3ae8c146104a25780637d9a7a4c146104aa578063813dcee7146104c757610226565b80633784f000116101bd5780634ad8b0791161018c57806354747a701161017157806354747a7014610450578063715018a61461046f57806372f702f31461047757610226565b80634ad8b079146104405780634e71d92d1461044857610226565b80633784f000146103cb5780633f138d4b146103e85780633fd8b02f14610414578063412753581461041c57610226565b806316520021116101f957806316520021146103675780631959a0021461036f5780632078f96e146103bb578063259bc699146103c357610226565b806306d586bb1461022b5780630d34ae6b146102455780630d39fc8114610264578063150b7a021461026c575b600080fd5b6102336105e0565b60408051918252519081900360200190f35b6102626004803603602081101561025b57600080fd5b50356105e6565b005b6102336106dd565b6103326004803603608081101561028257600080fd5b6001600160a01b038235811692602081013590911691604082013591908101906080810160608201356401000000008111156102bd57600080fd5b8201836020820111156102cf57600080fd5b803590602001918460018302840111640100000000831117156102f157600080fd5b91908080601f0160208091040260200160405190810160405280939291908181526020018383808284376000920191909152509295506106e3945050505050565b604080517fffffffff000000000000000000000000000000000000000000000000000000009092168252519081900360200190f35b61026261070c565b6103956004803603602081101561038557600080fd5b50356001600160a01b0316610816565b604080519485526020850193909352838301919091526060830152519081900360800190f35b61023361083d565b610233610843565b610262600480360360208110156103e157600080fd5b5035610849565b610262600480360360408110156103fe57600080fd5b506001600160a01b03813516906020013561097f565b610233610ab2565b610424610ab8565b604080516001600160a01b039092168252519081900360200190f35b610233610acd565b610262610ad3565b610458610ecd565b6040805161ffff9092168252519081900360200190f35b610262610ed7565b610424610fad565b6102626004803603604081101561049557600080fd5b5080359060200135610fbc565b61023361148e565b610262600480360360208110156104c057600080fd5b5035611494565b610262600480360360208110156104dd57600080fd5b503561159f565b610262600480360360208110156104fa57600080fd5b5035611655565b6102626004803603602081101561051757600080fd5b503561ffff166117e1565b61042461190b565b6102626004803603602081101561054057600080fd5b503561191a565b6102626004803603602081101561055d57600080fd5b50356001600160a01b0316611a28565b610458611b85565b610233611b8b565b610424611b91565b610262611ba0565b610233611dd0565b610262600480360360208110156105ab57600080fd5b50356001600160a01b0316611dd6565b610233611f02565b610262600480360360208110156105d957600080fd5b5035611f09565b60085481565b6105ee6121fe565b6001600160a01b03166105ff61190b565b6001600160a01b03161461065a576040805162461bcd60e51b815260206004820181905260248201527f4f776e61626c653a2063616c6c6572206973206e6f7420746865206f776e6572604482015290519081900360640190fd5b60095481101561069b5760405162461bcd60e51b81526004018080602001828103825260228152602001806128b96022913960400191505060405180910390fd5b600654604080519182526020820183905280517f98fb43c7b9a33de6bfccbec8ff8aef3972671bbae02e02efa9996c1567d8dfb19281900390910190a1600655565b60075481565b7f150b7a0200000000000000000000000000000000000000000000000000000000949350505050565b6107146121fe565b6001600160a01b031661072561190b565b6001600160a01b031614610780576040805162461bcd60e51b815260206004820181905260248201527f4f776e61626c653a2063616c6c6572206973206e6f7420746865206f776e6572604482015290519081900360640190fd5b4260055411156107d7576040805162461bcd60e51b815260206004820152601860248201527f4661726d696e6720616c72656164792066696e69736865640000000000000000604482015290519081900360640190fd5b42600581905560045411156107eb57426004555b6040517fb221dc769607e3c93cc1eca9a289b5b5a8d24d73f2f55d4dc0f58dd2b2b6a73d90600090a1565b600e6020526000908152604090208054600182015460028301546003909301549192909184565b600a5481565b60065481565b6108516121fe565b6001600160a01b031661086261190b565b6001600160a01b0316146108bd576040805162461bcd60e51b815260206004820181905260248201527f4f776e61626c653a2063616c6c6572206973206e6f7420746865206f776e6572604482015290519081900360640190fd5b428110156108fc5760405162461bcd60e51b81526004018080602001828103825260258152602001806127db6025913960400191505060405180910390fd5b60045481101561093d5760405162461bcd60e51b81526004018080602001828103825260238152602001806128476023913960400191505060405180910390fd5b600554604080519182526020820183905280517f275dd536a6956e78302b90e20bb13c379fb11632284794aa77ad452d0f472a159281900390910190a1600555565b6109876121fe565b6001600160a01b031661099861190b565b6001600160a01b0316146109f3576040805162461bcd60e51b815260206004820181905260248201527f4f776e61626c653a2063616c6c6572206973206e6f7420746865206f776e6572604482015290519081900360640190fd5b6002546001600160a01b0383811691161415610a56576040805162461bcd60e51b815260206004820152601660248201527f43616e6e6f74206265207374616b656420746f6b656e00000000000000000000604482015290519081900360640190fd5b610a6a6001600160a01b0383163383612202565b604080516001600160a01b03841681526020810183905281517f74545154aac348a3eac92596bd1971957ca94795f4e954ec5f613b55fab78129929181900390910190a15050565b600d5481565b600c546201000090046001600160a01b031681565b60095481565b60026001541415610b2b576040805162461bcd60e51b815260206004820152601f60248201527f5265656e7472616e637947756172643a207265656e7472616e742063616c6c00604482015290519081900360640190fd5b60026001908155336000908152600e6020526040902090810154151580610b525750805415155b610ba3576040805162461bcd60e51b815260206004820152601060248201527f4e6f7468696e6720746f20636c61696d00000000000000000000000000000000604482015290519081900360640190fd5b6001810154600254604080516370a0823160e01b815230600482015290516001600160a01b03909216916370a0823191602480820192602092909190829003018186803b158015610bf357600080fd5b505afa158015610c07573d6000803e3d6000fd5b505050506040513d6020811015610c1d57600080fd5b50511015610c5c5760405162461bcd60e51b815260040180806020018281038252602881526020018061286a6028913960400191505060405180910390fd5b8054600354604080516370a0823160e01b815230600482015290516001600160a01b03909216916370a0823191602480820192602092909190829003018186803b158015610ca957600080fd5b505afa158015610cbd573d6000803e3d6000fd5b505050506040513d6020811015610cd357600080fd5b50511015610d28576040805162461bcd60e51b815260206004820152601f60248201527f4c65737320616d6f756e74206f66206e66747320696e20746865206661726d00604482015290519081900360640190fd5b6001810154600254610d47916001600160a01b03909116903390612202565b60005b8154811015610e545760035460408051632f745c5960e01b8152306004820152600060248201819052915191926001600160a01b031691632f745c5991604480820192602092909190829003018186803b158015610da757600080fd5b505afa158015610dbb573d6000803e3d6000fd5b505050506040513d6020811015610dd157600080fd5b505160035460408051632142170760e11b81523060048201523360248201526044810184905290519293506001600160a01b03909116916342842e0e9160648082019260009290919082900301818387803b158015610e2f57600080fd5b505af1158015610e43573d6000803e3d6000fd5b505060019093019250610d4a915050565b5060018101548154604080519283526020830191909152805133927f987d620f307ff6b94d58743cb7a7509f24071586a77759b77c2d4e29f75a2f9a92908290030190a28054600a54610ea691612287565b600a556001810154600b54610eba91612287565b600b556000600180830182905591558055565b600c5461ffff1681565b610edf6121fe565b6001600160a01b0316610ef061190b565b6001600160a01b031614610f4b576040805162461bcd60e51b815260206004820181905260248201527f4f776e61626c653a2063616c6c6572206973206e6f7420746865206f776e6572604482015290519081900360640190fd5b600080546040516001600160a01b03909116907f8be0079c531659141344cd1fd0a4f28419497f9722a3daafe3b4186f6b6457e0908390a3600080547fffffffffffffffffffffffff0000000000000000000000000000000000000000169055565b6002546001600160a01b031681565b60026001541415611014576040805162461bcd60e51b815260206004820152601f60248201527f5265656e7472616e637947756172643a207265656e7472616e742063616c6c00604482015290519081900360640190fd5b6002600155600554421061106f576040805162461bcd60e51b815260206004820152601260248201527f4661726d20656e64656420616c72656164790000000000000000000000000000604482015290519081900360640190fd5b600081116110c4576040805162461bcd60e51b815260206004820152601960248201527f496e76616c6964206e667420616d6f756e7420746f2062757900000000000000604482015290519081900360640190fd5b6007546110d29082906122e9565b821015611126576040805162461bcd60e51b815260206004820152601960248201527f496e73756666696369656e7420746f6b656e20616d6f756e7400000000000000604482015290519081900360640190fd5b336000908152600e6020526040902060028101546111449083612349565b600282015580546111559083612349565b8155600854600282015411156111b2576040805162461bcd60e51b815260206004820152601e60248201527f457863656564732075736572207075726368617361626c65206c696d69740000604482015290519081900360640190fd5b426003820155600a546111c59083612349565b600a556009546111d59083612349565b600955600a54600354604080516370a0823160e01b815230600482015290516001600160a01b03909216916370a0823191602480820192602092909190829003018186803b15801561122657600080fd5b505afa15801561123a573d6000803e3d6000fd5b505050506040513d602081101561125057600080fd5b505110156112a5576040805162461bcd60e51b815260206004820152601e60248201527f496e73756666696369656e74204e46547320746f206265206661726d65640000604482015290519081900360640190fd5b600254604080516370a0823160e01b815230600482015290516000926001600160a01b0316916370a08231916024808301926020929190829003018186803b1580156112f057600080fd5b505afa158015611304573d6000803e3d6000fd5b505050506040513d602081101561131a57600080fd5b5051600254909150611337906001600160a01b03163330876123a3565b600254604080516370a0823160e01b815230600482015290516113ba9284926001600160a01b03909116916370a0823191602480820192602092909190829003018186803b15801561138857600080fd5b505afa15801561139c573d6000803e3d6000fd5b505050506040513d60208110156113b257600080fd5b505190612287565b600c5490945061ffff161561142657600c546000906113ec90612710906113e690889061ffff166122e9565b90612431565b90508015611424576113fe8582612287565b600c54600254919650611424916001600160a01b03908116916201000090041683612202565b505b60018201546114359085612349565b6001830155600b546114479085612349565b600b556040805185815260208101859052815133927f1449c6dd7851abc30abf37f57715f492010519147cc2652fbc38202c18a6ee90928290030190a25050600180555050565b60055481565b61149c6121fe565b6001600160a01b03166114ad61190b565b6001600160a01b031614611508576040805162461bcd60e51b815260206004820181905260248201527f4f776e61626c653a2063616c6c6572206973206e6f7420746865206f776e6572604482015290519081900360640190fd5b6000811161155d576040805162461bcd60e51b815260206004820152601160248201527f496e76616c6964204e6674207072696365000000000000000000000000000000604482015290519081900360640190fd5b600754604080519182526020820183905280517faa0b045f0ae7f3d2aa0b62b438016d022f8bd4339ae98538a1ae87aa34c9013f9281900390910190a1600755565b6115a76121fe565b6001600160a01b03166115b861190b565b6001600160a01b031614611613576040805162461bcd60e51b815260206004820181905260248201527f4f776e61626c653a2063616c6c6572206973206e6f7420746865206f776e6572604482015290519081900360640190fd5b600854604080519182526020820183905280517f34247631686e902b44dc1bc1ced48f8ea9be234e8dbbe5700013f4533e2576ea9281900390910190a1600855565b61165d6121fe565b6001600160a01b031661166e61190b565b6001600160a01b0316146116c9576040805162461bcd60e51b815260206004820181905260248201527f4f776e61626c653a2063616c6c6572206973206e6f7420746865206f776e6572604482015290519081900360640190fd5b426004541161171f576040805162461bcd60e51b815260206004820152601460248201527f4661726d20616c72656164792073746172746564000000000000000000000000604482015290519081900360640190fd5b4281101561175e5760405162461bcd60e51b81526004018080602001828103825260278152602001806128926027913960400191505060405180910390fd5b60055481111561179f5760405162461bcd60e51b81526004018080602001828103825260248152602001806127676024913960400191505060405180910390fd5b600454604080519182526020820183905280517fb412a2d7de723b82b0a3cae8b10ae2d255e645dd0231a1a4c83cb8e3ebc05bd89281900390910190a1600455565b6117e96121fe565b6001600160a01b03166117fa61190b565b6001600160a01b031614611855576040805162461bcd60e51b815260206004820181905260248201527f4f776e61626c653a2063616c6c6572206973206e6f7420746865206f776e6572604482015290519081900360640190fd5b6107d061ffff821611156118b0576040805162461bcd60e51b815260206004820152601960248201527f4465706f736974206665652065786365656473206c696d697400000000000000604482015290519081900360640190fd5b600c546040805161ffff9283168152918316602083015280517f433b82816258a4d652299bd6388df04d8f3437d6e6a5f61dd276c45b3e0b91959281900390910190a1600c805461ffff191661ffff92909216919091179055565b6000546001600160a01b031690565b6119226121fe565b6001600160a01b031661193361190b565b6001600160a01b03161461198e576040805162461bcd60e51b815260206004820181905260248201527f4f776e61626c653a2063616c6c6572206973206e6f7420746865206f776e6572604482015290519081900360640190fd5b6276a7008111156119e6576040805162461bcd60e51b815260206004820152601960248201527f4c6f636b20706572696f642065786365656473206c696d697400000000000000604482015290519081900360640190fd5b600d54604080519182526020820183905280517f5dd7b309b7bc5010d9c96159ee535a428121d6803cb847792402fffccaf1569a9281900390910190a1600d55565b611a306121fe565b6001600160a01b0316611a4161190b565b6001600160a01b031614611a9c576040805162461bcd60e51b815260206004820181905260248201527f4f776e61626c653a2063616c6c6572206973206e6f7420746865206f776e6572604482015290519081900360640190fd5b6001600160a01b038116611af7576040805162461bcd60e51b815260206004820152601360248201527f496e76616c696420666565206164647265737300000000000000000000000000604482015290519081900360640190fd5b600c54604080516001600160a01b036201000090930483168152918316602083015280517f11f35a22548bcd4c3788ab4a7e4fba427a2014f02e5d5e2da9af62212c03183f9281900390910190a1600c80546001600160a01b0390921662010000027fffffffffffffffffffff0000000000000000000000000000000000000000ffff909216919091179055565b6107d081565b60045481565b6003546001600160a01b031681565b60026001541415611bf8576040805162461bcd60e51b815260206004820152601f60248201527f5265656e7472616e637947756172643a207265656e7472616e742063616c6c00604482015290519081900360640190fd5b60026001908155336000908152600e6020526040902090810154611c63576040805162461bcd60e51b815260206004820152601360248201527f4e6f7468696e6720746f20776974686472617700000000000000000000000000604482015290519081900360640190fd5b6001810154600254604080516370a0823160e01b815230600482015290516001600160a01b03909216916370a0823191602480820192602092909190829003018186803b158015611cb357600080fd5b505afa158015611cc7573d6000803e3d6000fd5b505050506040513d6020811015611cdd57600080fd5b50511015611d1c5760405162461bcd60e51b815260040180806020018281038252602881526020018061286a6028913960400191505060405180910390fd5b6001810154600254611d3b916001600160a01b03909116903390612202565b6001810154604080519182525133917f2e39961a70a10f4d46383948095ac2752b3ee642a7c76aa827410aaff08c2e51919081900360200190a28054600a54611d8391612287565b600a558054600954611d9491612287565b6009556001810154600b54611da891612287565b600b5580546002820154611dbb91612287565b60028201556000600180830182905591558055565b600b5481565b611dde6121fe565b6001600160a01b0316611def61190b565b6001600160a01b031614611e4a576040805162461bcd60e51b815260206004820181905260248201527f4f776e61626c653a2063616c6c6572206973206e6f7420746865206f776e6572604482015290519081900360640190fd5b6001600160a01b038116611e8f5760405162461bcd60e51b81526004018080602001828103825260268152602001806127b56026913960400191505060405180910390fd5b600080546040516001600160a01b03808516939216917f8be0079c531659141344cd1fd0a4f28419497f9722a3daafe3b4186f6b6457e091a3600080547fffffffffffffffffffffffff0000000000000000000000000000000000000000166001600160a01b0392909216919091179055565b6276a70081565b611f116121fe565b6001600160a01b0316611f2261190b565b6001600160a01b031614611f7d576040805162461bcd60e51b815260206004820181905260248201527f4f776e61626c653a2063616c6c6572206973206e6f7420746865206f776e6572604482015290519081900360640190fd5b60026001541415611fd5576040805162461bcd60e51b815260206004820152601f60248201527f5265656e7472616e637947756172643a207265656e7472616e742063616c6c00604482015290519081900360640190fd5b6002600155600354604080516370a0823160e01b815230600482015290516000926001600160a01b0316916370a08231916024808301926020929190829003018186803b15801561202557600080fd5b505afa158015612039573d6000803e3d6000fd5b505050506040513d602081101561204f57600080fd5b5051600a54909150612062908390612349565b8110156120b6576040805162461bcd60e51b815260206004820152601760248201527f496e73756666696369656e74204e465420616d6f756e74000000000000000000604482015290519081900360640190fd5b60005b818110156121c25760035460408051632f745c5960e01b8152306004820152600060248201819052915191926001600160a01b031691632f745c5991604480820192602092909190829003018186803b15801561211557600080fd5b505afa158015612129573d6000803e3d6000fd5b505050506040513d602081101561213f57600080fd5b505160035460408051632142170760e11b81523060048201523360248201526044810184905290519293506001600160a01b03909116916342842e0e9160648082019260009290919082900301818387803b15801561219d57600080fd5b505af11580156121b1573d6000803e3d6000fd5b5050600190930192506120b9915050565b506040805183815290517fb4cd1dfd26f6bffab46029c9fb4dde0b141f2353c84257f1b500a2f42d38558e9181900360200190a1505060018055565b3390565b604080516001600160a01b038416602482015260448082018490528251808303909101815260649091019091526020810180517bffffffffffffffffffffffffffffffffffffffffffffffffffffffff167fa9059cbb00000000000000000000000000000000000000000000000000000000179052612282908490612498565b505050565b6000828211156122de576040805162461bcd60e51b815260206004820152601e60248201527f536166654d6174683a207375627472616374696f6e206f766572666c6f770000604482015290519081900360640190fd5b508082035b92915050565b6000826122f8575060006122e3565b8282028284828161230557fe5b04146123425760405162461bcd60e51b81526004018080602001828103825260218152602001806128266021913960400191505060405180910390fd5b9392505050565b600082820183811015612342576040805162461bcd60e51b815260206004820152601b60248201527f536166654d6174683a206164646974696f6e206f766572666c6f770000000000604482015290519081900360640190fd5b604080516001600160a01b0380861660248301528416604482015260648082018490528251808303909101815260849091019091526020810180517bffffffffffffffffffffffffffffffffffffffffffffffffffffffff167f23b872dd0000000000000000000000000000000000000000000000000000000017905261242b908590612498565b50505050565b6000808211612487576040805162461bcd60e51b815260206004820152601a60248201527f536166654d6174683a206469766973696f6e206279207a65726f000000000000604482015290519081900360640190fd5b81838161249057fe5b049392505050565b60606124ed826040518060400160405280602081526020017f5361666542455032303a206c6f772d6c6576656c2063616c6c206661696c6564815250856001600160a01b03166125499092919063ffffffff16565b8051909150156122825780806020019051602081101561250c57600080fd5b50516122825760405162461bcd60e51b815260040180806020018281038252602a81526020018061278b602a913960400191505060405180910390fd5b60606125588484600085612560565b949350505050565b6060824710156125a15760405162461bcd60e51b81526004018080602001828103825260268152602001806128006026913960400191505060405180910390fd5b6125aa856126bc565b6125fb576040805162461bcd60e51b815260206004820152601d60248201527f416464726573733a2063616c6c20746f206e6f6e2d636f6e7472616374000000604482015290519081900360640190fd5b60006060866001600160a01b031685876040518082805190602001908083835b6020831061263a5780518252601f19909201916020918201910161261b565b6001836020036101000a03801982511681845116808217855250505050505090500191505060006040518083038185875af1925050503d806000811461269c576040519150601f19603f3d011682016040523d82523d6000602084013e6126a1565b606091505b50915091506126b18282866126c2565b979650505050505050565b3b151590565b606083156126d1575081612342565b8251156126e15782518084602001fd5b8160405162461bcd60e51b81526004018080602001828103825283818151815260200191508051906020019080838360005b8381101561272b578181015183820152602001612713565b50505050905090810190601f1680156127585780820380516001836020036101000a031916815260200191505b509250505060405180910390fdfe537461727420646174652073686f756c64206265206265666f726520656e6420646174655361666542455032303a204245503230206f7065726174696f6e20646964206e6f7420737563636565644f776e61626c653a206e6577206f776e657220697320746865207a65726f2061646472657373456e6420646174652073686f756c642062652061667465722063757272656e742074696d65416464726573733a20696e73756666696369656e742062616c616e636520666f722063616c6c536166654d6174683a206d756c7469706c69636174696f6e206f766572666c6f77456e6420646174652073686f756c6420626520616674657220737461727420646174654c65737320616d6f756e74206f66207374616b696e6720746f6b656e20696e20746865206661726d537461727420646174652073686f756c642062652061667465722063757272656e742074696d65416c726564617920736f6c64206d6f7265207468616e207468697320616d6f756e74a2646970667358221220df9e69d9318d19de2f412ccd6bf7b9814f22b0ce4bb7805e44dfaaed3decf8cc64736f6c634300060c003353746172742074696d652073686f756c64206265206265666f726520656e642074696d6553746172742074696d652073686f756c642062652061667465722063757272656e742074696d65",
  "immutableReferences": {},
  "source": "pragma solidity ^0.6.0;\r\nimport \"./ERC721.sol\";\r\n\r\n\r\n\r\n\r\n\r\n\r\ncontract GuitarNftFarm is Ownable, ReentrancyGuard, IERC721Receiver {\r\n    using SafeMath for uint256;\r\n    using SafeBEP20 for IBEP20;\r\n\r\n    IBEP20 public stakingToken;\r\n    ERC721Enumerable public nftToken;\r\n\r\n    uint256 public startAt; // NFT Farming Start Date\r\n    uint256 public endAt; // NFT Farming End Date\r\n\r\n    uint256 public totalNftsToSell; // Total NFTs to sell\r\n    uint256 public nftPrice; // NFT price in staking token\r\n    uint256 public maxPerUser; // Max NFTs an user can get\r\n    uint256 public totalNftsSold = 0; // Nfts sold to users including locked\r\n    uint256 public totalNftsLocked = 0; // Nfts locked now\r\n    uint256 public totalTokensLocked = 0; // Sum of tokens locked\r\n    uint16 public depositFeeBP; // Deposit fee\r\n    address public feeAddress; // Fee address\r\n    uint256 public lockPeriod; // Lock period for getting NFTs\r\n\r\n    uint16 public constant MAX_DEPOSIT_FEE = 2000; // Max deposit fee 20%\r\n    uint256 public constant MAX_LOCK_PERIOD = 90 days; // Max lock period 3 months\r\n\r\n    mapping(address => UserInfo) public userInfo;\r\n\r\n    struct UserInfo {\r\n        uint256 nftsLocked; // NFTs locked now\r\n        uint256 tokensLocked; // Tokens locked now\r\n        uint256 nftsPurchased; // NFTs purchased so far including locked\r\n        uint256 lastStakedAt; // Last staked time\r\n    }\r\n\r\n    event Staked(\r\n        address indexed user,\r\n        uint256 tokenAmount,\r\n        uint256 nftToBuyAmount\r\n    );\r\n    event Claimed(\r\n        address indexed user,\r\n        uint256 claimedTokenAmount,\r\n        uint256 claimedNftAmount\r\n    );\r\n    event StartDateUpdated(uint256 oldDate, uint256 newDate);\r\n    event EndDateUpdated(uint256 oldDate, uint256 newDate);\r\n    event TotalNftsToSellUpdated(uint256 oldAmount, uint256 newAmount);\r\n    event MaxPerUserUpdated(uint256 oldLimit, uint256 newLimit);\r\n    event NftPriceUpdated(uint256 oldPrice, uint256 newPrice);\r\n    event FarmingEnded();\r\n    event DepositFeeUpdated(uint16 oldFee, uint16 newFee);\r\n    event FeeAddressUpdated(address oldAddress, address newAddress);\r\n    event LockPeriodUpdated(uint256 oldPeriod, uint256 newPeriod);\r\n    event EmergencyWithdrawn(address indexed user, uint256 amount);\r\n    event AdminNftWithdrawn(uint256 amount);\r\n    event AdminTokenRecovery(address tokenRecovered, uint256 amount);\r\n\r\n    constructor(\r\n        IBEP20 _stakingToken,\r\n        ERC721Enumerable _nftToken,\r\n        uint256 _startAt,\r\n        uint256 _endAt,\r\n        uint256 _totalNftsToSell,\r\n        uint256 _nftPrice,\r\n        uint256 _maxPerUser,\r\n        uint16 _depositFeeBP,\r\n        address _feeAddress,\r\n        uint256 _lockPeriod\r\n    ) public {\r\n        stakingToken = _stakingToken;\r\n        nftToken = _nftToken;\r\n\r\n        require(_startAt <= _endAt, \"Start time should be before end time\");\r\n        require(\r\n            _startAt >= block.timestamp,\r\n            \"Start time should be after current time\"\r\n        );\r\n        startAt = _startAt;\r\n        endAt = _endAt;\r\n\r\n        totalNftsToSell = _totalNftsToSell;\r\n        require(_nftPrice > 0, \"Invalid nft price\");\r\n        nftPrice = _nftPrice;\r\n        maxPerUser = _maxPerUser;\r\n\r\n        require(_depositFeeBP <= MAX_DEPOSIT_FEE, \"Deposit fee exceeds limit\");\r\n        depositFeeBP = _depositFeeBP;\r\n        require(_feeAddress != address(0), \"Invalid fee address\");\r\n        feeAddress = _feeAddress;\r\n\r\n        require(_lockPeriod <= MAX_LOCK_PERIOD, \"Lock period exceeds limit\");\r\n        lockPeriod = _lockPeriod;\r\n    }\r\n\r\n    // Stake tokens to get NFTs\r\n    function stake(uint256 tokenAmountToStake, uint256 nftAmountToBuy)\r\n        external\r\n        nonReentrant\r\n    {\r\n        //require(block.timestamp >= startAt, \"Farm not started yet\");\r\n        require(block.timestamp < endAt, \"Farm ended already\");\r\n        require(nftAmountToBuy > 0, \"Invalid nft amount to buy\");\r\n        require(\r\n            tokenAmountToStake >= nftAmountToBuy.mul(nftPrice),\r\n            \"Insufficient token amount\"\r\n        );\r\n\r\n        UserInfo storage user = userInfo[msg.sender];\r\n        user.nftsPurchased = user.nftsPurchased.add(nftAmountToBuy);\r\n        user.nftsLocked = user.nftsLocked.add(nftAmountToBuy);\r\n        require(\r\n            user.nftsPurchased <= maxPerUser,\r\n            \"Exceeds user purchasable limit\"\r\n        );\r\n        user.lastStakedAt = block.timestamp;\r\n\r\n        totalNftsLocked = totalNftsLocked.add(nftAmountToBuy);\r\n        totalNftsSold = totalNftsSold.add(nftAmountToBuy);\r\n        require(\r\n            nftToken.balanceOf(address(this)) >= totalNftsLocked,\r\n            \"Insufficient NFTs to be farmed\"\r\n        );\r\n\r\n        uint256 balanceBefore = stakingToken.balanceOf(address(this));\r\n        stakingToken.safeTransferFrom(\r\n            msg.sender,\r\n            address(this),\r\n            tokenAmountToStake\r\n        );\r\n        tokenAmountToStake = stakingToken.balanceOf(address(this)).sub(\r\n            balanceBefore\r\n        );\r\n        if (depositFeeBP > 0) {\r\n            uint256 depositFee = tokenAmountToStake.mul(depositFeeBP).div(\r\n                10000\r\n            );\r\n            if (depositFee > 0) {\r\n                tokenAmountToStake = tokenAmountToStake.sub(depositFee);\r\n                stakingToken.safeTransfer(feeAddress, depositFee);\r\n            }\r\n        }\r\n        user.tokensLocked = user.tokensLocked.add(tokenAmountToStake);\r\n        totalTokensLocked = totalTokensLocked.add(tokenAmountToStake);\r\n        emit Staked(msg.sender, tokenAmountToStake, nftAmountToBuy);\r\n    }\r\n\r\n    // Claim tokens and NFTs locked\r\n    function claim() external nonReentrant {\r\n        UserInfo storage user = userInfo[msg.sender];\r\n        require(\r\n            user.tokensLocked > 0 || user.nftsLocked > 0,\r\n            \"Nothing to claim\"\r\n        );\r\n        require(\r\n            stakingToken.balanceOf(address(this)) >= user.tokensLocked,\r\n            \"Less amount of staking token in the farm\"\r\n        );\r\n        require(\r\n            nftToken.balanceOf(address(this)) >= user.nftsLocked,\r\n            \"Less amount of nfts in the farm\"\r\n        );\r\n        // require(\r\n        //     user.lastStakedAt.add(lockPeriod) <= block.timestamp,\r\n        //     \"Still in lock status\"\r\n        // );\r\n\r\n        // Token claim\r\n        stakingToken.safeTransfer(msg.sender, user.tokensLocked);\r\n\r\n        // Nft claim\r\n        for (uint256 i = 0; i < user.nftsLocked; i++) {\r\n            uint256 tokenId = nftToken.tokenOfOwnerByIndex(address(this), 0);\r\n            nftToken.safeTransferFrom(address(this), msg.sender, tokenId);\r\n        }\r\n\r\n        emit Claimed(msg.sender, user.tokensLocked, user.nftsLocked);\r\n\r\n        totalNftsLocked = totalNftsLocked.sub(user.nftsLocked);\r\n        totalTokensLocked = totalTokensLocked.sub(user.tokensLocked);\r\n        user.tokensLocked = 0;\r\n        user.nftsLocked = 0;\r\n    }\r\n\r\n    // function to set the presale start date\r\n    // only owner can call this function\r\n    function setStartDate(uint256 _startAt) external onlyOwner {\r\n        require(startAt > block.timestamp, \"Farm already started\");\r\n        require(\r\n            _startAt >= block.timestamp,\r\n            \"Start date should be after current time\"\r\n        );\r\n        require(_startAt <= endAt, \"Start date should be before end date\");\r\n        emit StartDateUpdated(startAt, _startAt);\r\n        startAt = _startAt;\r\n    }\r\n\r\n    // Function to set the presale end date\r\n    // only owner can call this function\r\n    function setEndDate(uint256 _endAt) external onlyOwner {\r\n        require(\r\n            _endAt >= block.timestamp,\r\n            \"End date should be after current time\"\r\n        );\r\n        require(_endAt >= startAt, \"End date should be after start date\");\r\n        emit EndDateUpdated(endAt, _endAt);\r\n        endAt = _endAt;\r\n    }\r\n\r\n    // function to set the total tokens to sell\r\n    // only owner can call this function\r\n    function setTotalNftsToSell(uint256 _totalNftsToSell) external onlyOwner {\r\n        require(\r\n            _totalNftsToSell >= totalNftsSold,\r\n            \"Alreday sold more than this amount\"\r\n        );\r\n        emit TotalNftsToSellUpdated(totalNftsToSell, _totalNftsToSell);\r\n        totalNftsToSell = _totalNftsToSell;\r\n    }\r\n\r\n    // function to set the maximum amount which a user can buy\r\n    // only owner can call this function\r\n    function setMaxPerUser(uint256 _maxPerUser) external onlyOwner {\r\n        emit MaxPerUserUpdated(maxPerUser, _maxPerUser);\r\n        maxPerUser = _maxPerUser;\r\n    }\r\n\r\n    // function to set the Nft price\r\n    // only owner can call this function\r\n    function setNftPrice(uint256 _nftPrice) external onlyOwner {\r\n        require(_nftPrice > 0, \"Invalid Nft price\");\r\n        emit NftPriceUpdated(nftPrice, _nftPrice);\r\n        nftPrice = _nftPrice;\r\n    }\r\n\r\n    //function to end the sale\r\n    //only owner can call this function\r\n    function endFarming() external onlyOwner {\r\n        require(endAt <= block.timestamp, \"Farming already finished\");\r\n        endAt = block.timestamp;\r\n        if (startAt > block.timestamp) {\r\n            startAt = block.timestamp;\r\n        }\r\n        emit FarmingEnded();\r\n    }\r\n\r\n    function updateDepositFee(uint16 _depositFeeBP) external onlyOwner {\r\n        require(_depositFeeBP <= MAX_DEPOSIT_FEE, \"Deposit fee exceeds limit\");\r\n        emit DepositFeeUpdated(depositFeeBP, _depositFeeBP);\r\n        depositFeeBP = _depositFeeBP;\r\n    }\r\n\r\n    function updateFeeAddresss(address _feeAddress) external onlyOwner {\r\n        require(_feeAddress != address(0), \"Invalid fee address\");\r\n        emit FeeAddressUpdated(feeAddress, _feeAddress);\r\n        feeAddress = _feeAddress;\r\n    }\r\n\r\n    function updateLockPeriod(uint256 _lockPeriod) external onlyOwner {\r\n        require(_lockPeriod <= MAX_LOCK_PERIOD, \"Lock period exceeds limit\");\r\n        emit LockPeriodUpdated(lockPeriod, _lockPeriod);\r\n        lockPeriod = _lockPeriod;\r\n    }\r\n\r\n    //function to withdraw unsold tokens\r\n    //only owner can call this function\r\n    function withdrawRemainedNfts(uint256 nftAmount)\r\n        external\r\n        onlyOwner\r\n        nonReentrant\r\n    {\r\n        uint256 nftsInFarm = nftToken.balanceOf(address(this));\r\n        require(\r\n            nftsInFarm >= nftAmount.add(totalNftsLocked),\r\n            \"Insufficient NFT amount\"\r\n        );\r\n\r\n        for (uint256 i = 0; i < nftsInFarm; i++) {\r\n            uint256 tokenId = nftToken.tokenOfOwnerByIndex(address(this), 0);\r\n            nftToken.safeTransferFrom(address(this), msg.sender, tokenId);\r\n        }\r\n\r\n        emit AdminNftWithdrawn(nftAmount);\r\n    }\r\n\r\n    // Emergency withdraw tokens from the farm\r\n    function emergencyWithdraw() external nonReentrant {\r\n        UserInfo storage user = userInfo[msg.sender];\r\n        require(user.tokensLocked > 0, \"Nothing to withdraw\");\r\n        require(\r\n            stakingToken.balanceOf(address(this)) >= user.tokensLocked,\r\n            \"Less amount of staking token in the farm\"\r\n        );\r\n\r\n        // Token claim\r\n        stakingToken.safeTransfer(msg.sender, user.tokensLocked);\r\n\r\n        emit EmergencyWithdrawn(msg.sender, user.tokensLocked);\r\n\r\n        totalNftsLocked = totalNftsLocked.sub(user.nftsLocked);\r\n        totalNftsSold = totalNftsSold.sub(user.nftsLocked);\r\n        totalTokensLocked = totalTokensLocked.sub(user.tokensLocked);\r\n        user.nftsPurchased = user.nftsPurchased.sub(user.nftsLocked);\r\n        user.tokensLocked = 0;\r\n        user.nftsLocked = 0;\r\n    }\r\n\r\n    /**\r\n     * @notice It allows the admin to recover wrong tokens sent to the contract\r\n     * @param _tokenAddress: the address of the token to withdraw\r\n     * @param _tokenAmount: the number of tokens to withdraw\r\n     * @dev This function is only callable by admin.\r\n     */\r\n    function recoverWrongTokens(address _tokenAddress, uint256 _tokenAmount)\r\n        external\r\n        onlyOwner\r\n    {\r\n        require(\r\n            _tokenAddress != address(stakingToken),\r\n            \"Cannot be staked token\"\r\n        );\r\n\r\n        IBEP20(_tokenAddress).safeTransfer(msg.sender, _tokenAmount);\r\n\r\n        emit AdminTokenRecovery(_tokenAddress, _tokenAmount);\r\n    }\r\n\r\n    function onERC721Received(\r\n        address,\r\n        address,\r\n        uint256,\r\n        bytes memory\r\n    ) public virtual override returns (bytes4) {\r\n        return this.onERC721Received.selector;\r\n    }\r\n}\r\n",
  "sourcePath": "G:\\Blockchain\\Ethereum\\GuitarSwap\\Work\\PancakeSwap\\Work\\guitar-contracts\\contracts\\nft-farm\\GuitarNftFarm.sol",
  "compiler": {
    "name": "solc",
    "version": "0.6.12+commit.27d51765.Emscripten.clang"
  },
  "schemaVersion": "3.4.5",
  "updatedAt": "2022-03-21T03:38:12.610Z",
  "networkType": "ethereum",
  "devdoc": {
    "kind": "dev",
    "methods": {
      "owner()": {
        "details": "Returns the address of the current owner."
      },
      "recoverWrongTokens(address,uint256)": {
        "details": "This function is only callable by admin.",
        "params": {
          "_tokenAddress": ": the address of the token to withdraw",
          "_tokenAmount": ": the number of tokens to withdraw"
        }
      },
      "renounceOwnership()": {
        "details": "Leaves the contract without owner. It will not be possible to call `onlyOwner` functions anymore. Can only be called by the current owner. NOTE: Renouncing ownership will leave the contract without an owner, thereby removing any functionality that is only available to the owner."
      },
      "transferOwnership(address)": {
        "details": "Transfers ownership of the contract to a new account (`newOwner`). Can only be called by the current owner."
      }
    },
    "version": 1
  },
  "userdoc": {
    "kind": "user",
    "methods": {
      "recoverWrongTokens(address,uint256)": {
        "notice": "It allows the admin to recover wrong tokens sent to the contract"
      }
    },
    "version": 1
  }
}