{
  "contractName": "GuitarPoolFactory",
  "abi": [
    {
      "inputs": [],
      "stateMutability": "nonpayable",
      "type": "constructor"
    },
    {
      "anonymous": false,
      "inputs": [
        {
          "indexed": true,
          "internalType": "address",
          "name": "smartChef",
          "type": "address"
        }
      ],
      "name": "NewGuitarPoolContract",
      "type": "event"
    },
    {
      "anonymous": false,
      "inputs": [
        {
          "indexed": true,
          "internalType": "address",
          "name": "previousOwner",
          "type": "address"
        },
        {
          "indexed": true,
          "internalType": "address",
          "name": "newOwner",
          "type": "address"
        }
      ],
      "name": "OwnershipTransferred",
      "type": "event"
    },
    {
      "inputs": [],
      "name": "MAX_DEPOSIT_FEE",
      "outputs": [
        {
          "internalType": "uint16",
          "name": "",
          "type": "uint16"
        }
      ],
      "stateMutability": "view",
      "type": "function"
    },
    {
      "inputs": [],
      "name": "owner",
      "outputs": [
        {
          "internalType": "address",
          "name": "",
          "type": "address"
        }
      ],
      "stateMutability": "view",
      "type": "function"
    },
    {
      "inputs": [],
      "name": "renounceOwnership",
      "outputs": [],
      "stateMutability": "nonpayable",
      "type": "function"
    },
    {
      "inputs": [
        {
          "internalType": "address",
          "name": "newOwner",
          "type": "address"
        }
      ],
      "name": "transferOwnership",
      "outputs": [],
      "stateMutability": "nonpayable",
      "type": "function"
    },
    {
      "inputs": [
        {
          "internalType": "contract IBEP20",
          "name": "_stakedToken",
          "type": "address"
        },
        {
          "internalType": "contract IBEP20",
          "name": "_rewardToken",
          "type": "address"
        },
        {
          "internalType": "uint256",
          "name": "_rewardPerBlock",
          "type": "uint256"
        },
        {
          "internalType": "uint256",
          "name": "_startBlock",
          "type": "uint256"
        },
        {
          "internalType": "uint256",
          "name": "_bonusEndBlock",
          "type": "uint256"
        },
        {
          "internalType": "uint256",
          "name": "_poolLimitPerUser",
          "type": "uint256"
        },
        {
          "internalType": "uint16",
          "name": "_depositFee",
          "type": "uint16"
        },
        {
          "internalType": "address",
          "name": "_feeAddress",
          "type": "address"
        },
        {
          "internalType": "address",
          "name": "_admin",
          "type": "address"
        }
      ],
      "name": "deployPool",
      "outputs": [],
      "stateMutability": "nonpayable",
      "type": "function"
    }
  ],
  "bytecode": "0x608060405234801561001057600080fd5b50600061001b61006a565b600080546001600160a01b0319166001600160a01b0383169081178255604051929350917f8be0079c531659141344cd1fd0a4f28419497f9722a3daafe3b4186f6b6457e0908290a35061006e565b3390565b612ee48061007d6000396000f3fe608060405234801561001057600080fd5b50600436106100675760003560e01c8063c6d87dd511610050578063c6d87dd51461009a578063e67d6dda146100b9578063f2fde38b1461011d57610067565b8063715018a61461006c5780638da5cb5b14610076575b600080fd5b610074610143565b005b61007e61020f565b604080516001600160a01b039092168252519081900360200190f35b6100a261021e565b6040805161ffff9092168252519081900360200190f35b61007460048036036101208110156100d057600080fd5b506001600160a01b038135811691602081013582169160408201359160608101359160808201359160a08101359161ffff60c0830135169160e08101358216916101009091013516610224565b6100746004803603602081101561013357600080fd5b50356001600160a01b0316610555565b61014b6105cb565b6000546001600160a01b039081169116146101ad576040805162461bcd60e51b815260206004820181905260248201527f4f776e61626c653a2063616c6c6572206973206e6f7420746865206f776e6572604482015290519081900360640190fd5b600080546040516001600160a01b03909116907f8be0079c531659141344cd1fd0a4f28419497f9722a3daafe3b4186f6b6457e0908390a3600080547fffffffffffffffffffffffff0000000000000000000000000000000000000000169055565b6000546001600160a01b031690565b6107d081565b61022c6105cb565b6000546001600160a01b0390811691161461028e576040805162461bcd60e51b815260206004820181905260248201527f4f776e61626c653a2063616c6c6572206973206e6f7420746865206f776e6572604482015290519081900360640190fd5b6000896001600160a01b03166318160ddd6040518163ffffffff1660e01b815260040160206040518083038186803b1580156102c957600080fd5b505afa1580156102dd573d6000803e3d6000fd5b505050506040513d60208110156102f357600080fd5b5051101561030057600080fd5b6000886001600160a01b03166318160ddd6040518163ffffffff1660e01b815260040160206040518083038186803b15801561033b57600080fd5b505afa15801561034f573d6000803e3d6000fd5b505050506040513d602081101561036557600080fd5b5051101561037257600080fd5b6107d061ffff841611156103cd576040805162461bcd60e51b815260206004820152601960248201527f496e76616c6964206465706f736974206665652076616c756500000000000000604482015290519081900360640190fd5b6060604051806020016103df90610687565b6020820181038252601f19601f82011660405250905060008a8a8960405160200180846001600160a01b031660601b8152601401836001600160a01b031660601b815260140182815260200193505050506040516020818303038152906040528051906020012090506000818351602085016000f5604080517f2569021f0000000000000000000000000000000000000000000000000000000081526001600160a01b038f811660048301528e81166024830152604482018e9052606482018d9052608482018c905260a482018b905261ffff8a1660c483015288811660e4830152878116610104830152915192935090831691632569021f916101248082019260009290919082900301818387803b1580156104fb57600080fd5b505af115801561050f573d6000803e3d6000fd5b50506040516001600160a01b03841692507fe931ee3f49abf5f5d28ccf0dd39c88104754c5be3248d2f93257f577d78689289150600090a2505050505050505050505050565b61055d6105cb565b6000546001600160a01b039081169116146105bf576040805162461bcd60e51b815260206004820181905260248201527f4f776e61626c653a2063616c6c6572206973206e6f7420746865206f776e6572604482015290519081900360640190fd5b6105c8816105cf565b50565b3390565b6001600160a01b0381166106145760405162461bcd60e51b8152600401808060200182810382526026815260200180612e896026913960400191505060405180910390fd5b600080546040516001600160a01b03808516939216917f8be0079c531659141344cd1fd0a4f28419497f9722a3daafe3b4186f6b6457e091a3600080547fffffffffffffffffffffffff0000000000000000000000000000000000000000166001600160a01b0392909216919091179055565b6127f4806106958339019056fe608060405234801561001057600080fd5b50600061001b610080565b600080546001600160a01b0319166001600160a01b0383169081178255604051929350917f8be0079c531659141344cd1fd0a4f28419497f9722a3daafe3b4186f6b6457e0908290a35060018055600280546001600160a01b03191633179055610084565b3390565b612761806100936000396000f3fe608060405234801561001057600080fd5b50600436106102265760003560e01c80638da5cb5b1161012a578063bbcaac38116100bd578063d41ce4b11161008c578063f2fde38b11610071578063f2fde38b146104f8578063f40f0f521461051e578063f7c618c11461054457610226565b8063d41ce4b1146104e8578063db2e21bc146104f057610226565b8063bbcaac38146104aa578063c6d87dd5146104d0578063cc7a262e146104d8578063ccd34cd5146104e057610226565b80639dbdaade116100f95780639dbdaade14610458578063a0b4090514610460578063a9f8d18114610485578063b6b55f251461048d57610226565b80638da5cb5b1461041d5780638f6629151461042557806392e8990e1461042d5780639513997f1461043557610226565b806341275358116101bd57806367a527931161018c57806380dc06721161017157806380dc0672146103ec5780638aab7d1c146103f45780638ae39cac1461041557610226565b806367a52793146103c5578063715018a6146103e457610226565b80634127535814610389578063436cc3d6146103ad57806348cd4cb1146103b557806366fe9f8a146103bd57610226565b80632e1a7d4d116101f95780632e1a7d4d146103075780633279beab14610324578063392e53cd146103415780633f138d4b1461035d57610226565b806301f8a9761461022b5780631959a0021461024a5780631aed6553146102895780632569021f146102a3575b600080fd5b6102486004803603602081101561024157600080fd5b503561054c565b005b6102706004803603602081101561026057600080fd5b50356001600160a01b0316610723565b6040805192835260208301919091528051918290030190f35b61029161073c565b60408051918252519081900360200190f35b61024860048036036101208110156102ba57600080fd5b506001600160a01b038135811691602081013582169160408201359160608101359160808201359160a08101359161ffff60c0830135169160e08101358216916101009091013516610742565b6102486004803603602081101561031d57600080fd5b5035610c1b565b6102486004803603602081101561033a57600080fd5b5035610dd0565b610349610ec6565b604080519115158252519081900360200190f35b6102486004803603604081101561037357600080fd5b506001600160a01b038135169060200135610ed6565b610391611062565b604080516001600160a01b039092168252519081900360200190f35b610291611077565b61029161107e565b610291611084565b6103cd61108a565b6040805161ffff9092168252519081900360200190f35b610248611094565b610248611155565b6102486004803603602081101561040a57600080fd5b503561ffff166112a6565b6102916113bb565b6103916113c1565b6102916113d0565b6103496113d6565b6102486004803603604081101561044b57600080fd5b50803590602001356113e6565b610391611570565b6102486004803603604081101561047657600080fd5b5080351515906020013561157f565b61029161171e565b610248600480360360208110156104a357600080fd5b5035611724565b610248600480360360208110156104c057600080fd5b50356001600160a01b0316611a4c565b6103cd611bf6565b610391611bfc565b610291611c0b565b610291611c11565b610248611c17565b6102486004803603602081101561050e57600080fd5b50356001600160a01b0316611cff565b6102916004803603602081101561053457600080fd5b50356001600160a01b0316611d75565b610391611e58565b610554611e67565b6000546001600160a01b039081169116146105b6576040805162461bcd60e51b815260206004820181905260248201527f4f776e61626c653a2063616c6c6572206973206e6f7420746865206f776e6572604482015290519081900360640190fd5b600554431061060c576040805162461bcd60e51b815260206004820152601060248201527f506f6f6c20686173207374617274656400000000000000000000000000000000604482015290519081900360640190fd5b600b546040805163313ce56760e01b815290516000926001600160a01b03169163313ce567916004808301926020929190829003018186803b15801561065157600080fd5b505afa158015610665573d6000803e3d6000fd5b505050506040513d602081101561067b57600080fd5b505160ff16905061069362989680600a83900a611e6b565b8211156106e7576040805162461bcd60e51b815260206004820152601c60248201527f4f7574206f66206d6178696d756d20656d697373696f6e207261746500000000604482015290519081900360640190fd5b60098290556040805183815290517f0c4d677eef92893ac7ec52faf8140fc6c851ab4736302b4f3a89dfb20696a0df9181900360200190a15050565b600e602052600090815260409020805460019091015482565b60045481565b600254600160a81b900460ff16156107a1576040805162461bcd60e51b815260206004820152601360248201527f416c726561647920696e697469616c697a656400000000000000000000000000604482015290519081900360640190fd5b6002546001600160a01b03163314610800576040805162461bcd60e51b815260206004820152600b60248201527f4e6f7420666163746f7279000000000000000000000000000000000000000000604482015290519081900360640190fd5b6001600160a01b03821661085b576040805162461bcd60e51b815260206004820152601460248201527f496e76616c6964207a65726f2061646472657373000000000000000000000000604482015290519081900360640190fd5b604080516370a0823160e01b815230600482015290516001600160a01b038b16916370a08231916024808301926020929190829003018186803b1580156108a157600080fd5b505afa1580156108b5573d6000803e3d6000fd5b505050506040513d60208110156108cb57600080fd5b5050604080516370a0823160e01b815230600482015290516001600160a01b038a16916370a08231916024808301926020929190829003018186803b15801561091357600080fd5b505afa158015610927573d6000803e3d6000fd5b505050506040513d602081101561093d57600080fd5b5050438611610993576040805162461bcd60e51b815260206004820181905260248201527f7374617274426c6f636b2063616e6e6f7420626520696e207468652070617374604482015290519081900360640190fd5b8486106109d15760405162461bcd60e51b815260040180806020018281038252602681526020018061267f6026913960400191505060405180910390fd5b600280547fffffffffffffffffffff00ffffffffffffffffffffffffffffffffffffffffff16600160a81b179055600c80546001600160a01b03808c1673ffffffffffffffffffffffffffffffffffffffff1992831617909255600b8054928b16929091169190911790556009879055600586905560048590556107d061ffff84161115610aa6576040805162461bcd60e51b815260206004820152601360248201527f496e76616c6964206465706f7369742066656500000000000000000000000000604482015290519081900360640190fd5b6007805461ffff191661ffff8516177fffffffffffffffffffff0000000000000000000000000000000000000000ffff16620100006001600160a01b038516021790558315610b2357600280547fffffffffffffffffffffff00ffffffffffffffffffffffffffffffffffffffff16600160a01b17905560088490555b600b546040805163313ce56760e01b815290516000926001600160a01b03169163313ce567916004808301926020929190829003018186803b158015610b6857600080fd5b505afa158015610b7c573d6000803e3d6000fd5b505050506040513d6020811015610b9257600080fd5b505160ff169050601e8110610bee576040805162461bcd60e51b815260206004820152601660248201527f4d75737420626520696e666572696f7220746f20333000000000000000000000604482015290519081900360640190fd5b610bf9601e82611ecd565b600a90810a9055600554600655610c0f82611cff565b50505050505050505050565b60026001541415610c73576040805162461bcd60e51b815260206004820152601f60248201527f5265656e7472616e637947756172643a207265656e7472616e742063616c6c00604482015290519081900360640190fd5b6002600155336000908152600e60205260409020600d548211801590610c9a575080548211155b610ceb576040805162461bcd60e51b815260206004820152601b60248201527f416d6f756e7420746f20776974686472617720746f6f20686967680000000000604482015290519081900360640190fd5b610cf3611f2a565b6000610d288260010154610d22600a54610d1c6003548760000154611e6b90919063ffffffff16565b90611f9b565b90611ecd565b90508215610d65578154610d3c9084611ecd565b8255600d54610d4b9084611ecd565b600d55600c54610d65906001600160a01b03163385612002565b8015610d7557610d753382612087565b600a546003548354610d8c9291610d1c9190611e6b565b600183015560408051848152905133917f884edad9ce6fa2440d8a54cc123490eb96d2768479d49ff9c7366125a9424364919081900360200190a250506001805550565b610dd8611e67565b6000546001600160a01b03908116911614610e3a576040805162461bcd60e51b815260206004820181905260248201527f4f776e61626c653a2063616c6c6572206973206e6f7420746865206f776e6572604482015290519081900360640190fd5b436005541180610e4b575043600454105b610e865760405162461bcd60e51b81526004018080602001828103825260368152602001806126f66036913960400191505060405180910390fd5b610e903382612087565b6040805182815290517fb28e23b748788bfb329e7866abaa6de9b3f770fc3ceacb0e8881dae420c1dad49181900360200190a150565b600254600160a81b900460ff1681565b610ede611e67565b6000546001600160a01b03908116911614610f40576040805162461bcd60e51b815260206004820181905260248201527f4f776e61626c653a2063616c6c6572206973206e6f7420746865206f776e6572604482015290519081900360640190fd5b600c546001600160a01b0383811691161415610fa3576040805162461bcd60e51b815260206004820152601660248201527f43616e6e6f74206265207374616b656420746f6b656e00000000000000000000604482015290519081900360640190fd5b600b546001600160a01b0383811691161415611006576040805162461bcd60e51b815260206004820152601660248201527f43616e6e6f742062652072657761726420746f6b656e00000000000000000000604482015290519081900360640190fd5b61101a6001600160a01b0383163383612002565b604080516001600160a01b03841681526020810183905281517f74545154aac348a3eac92596bd1971957ca94795f4e954ec5f613b55fab78129929181900390910190a15050565b6007546201000090046001600160a01b031681565b6298968081565b60055481565b60085481565b60075461ffff1681565b61109c611e67565b6000546001600160a01b039081169116146110fe576040805162461bcd60e51b815260206004820181905260248201527f4f776e61626c653a2063616c6c6572206973206e6f7420746865206f776e6572604482015290519081900360640190fd5b600080546040516001600160a01b03909116907f8be0079c531659141344cd1fd0a4f28419497f9722a3daafe3b4186f6b6457e0908390a36000805473ffffffffffffffffffffffffffffffffffffffff19169055565b61115d611e67565b6000546001600160a01b039081169116146111bf576040805162461bcd60e51b815260206004820181905260248201527f4f776e61626c653a2063616c6c6572206973206e6f7420746865206f776e6572604482015290519081900360640190fd5b4360055410611215576040805162461bcd60e51b815260206004820152601460248201527f506f6f6c20686173206e6f742073746172746564000000000000000000000000604482015290519081900360640190fd5b60045443111561126c576040805162461bcd60e51b815260206004820152600e60248201527f506f6f6c2068617320656e646564000000000000000000000000000000000000604482015290519081900360640190fd5b43600481905560408051918252517ffed9fcb0ca3d1e761a4b929792bb24082fba92dca81252646ad306d3068065669181900360200190a1565b6112ae611e67565b6000546001600160a01b03908116911614611310576040805162461bcd60e51b815260206004820181905260248201527f4f776e61626c653a2063616c6c6572206973206e6f7420746865206f776e6572604482015290519081900360640190fd5b6107d061ffff8216111561136b576040805162461bcd60e51b815260206004820152601360248201527f496e76616c6964206465706f7369742066656500000000000000000000000000604482015290519081900360640190fd5b6007805461ffff191661ffff838116919091179182905560408051929091168252517f988f79917f465c32df6c3f21ca5c0754c1b74b27f2454fe1ff7b0e36583135fa916020908290030190a150565b60095481565b6000546001600160a01b031690565b60035481565b600254600160a01b900460ff1681565b6113ee611e67565b6000546001600160a01b03908116911614611450576040805162461bcd60e51b815260206004820181905260248201527f4f776e61626c653a2063616c6c6572206973206e6f7420746865206f776e6572604482015290519081900360640190fd5b60055443106114a6576040805162461bcd60e51b815260206004820152601060248201527f506f6f6c20686173207374617274656400000000000000000000000000000000604482015290519081900360640190fd5b8082106114e45760405162461bcd60e51b815260040180806020018281038252602e81526020018061262b602e913960400191505060405180910390fd5b8143106115225760405162461bcd60e51b81526004018080602001828103825260308152602001806126a56030913960400191505060405180910390fd5b600582905560048190556006829055604080518381526020810183905281517f7cd0ab87d19036f3dfadadb232c78aa4879dda3f0c994a9d637532410ee2ce06929181900390910190a15050565b6002546001600160a01b031681565b611587611e67565b6000546001600160a01b039081169116146115e9576040805162461bcd60e51b815260206004820181905260248201527f4f776e61626c653a2063616c6c6572206973206e6f7420746865206f776e6572604482015290519081900360640190fd5b600254600160a01b900460ff16611647576040805162461bcd60e51b815260206004820152600b60248201527f4d75737420626520736574000000000000000000000000000000000000000000604482015290519081900360640190fd5b81156116ad5760085481116116a3576040805162461bcd60e51b815260206004820152601860248201527f4e6577206c696d6974206d757374206265206869676865720000000000000000604482015290519081900360640190fd5b60088190556116e5565b600280547fffffffffffffffffffffff00ffffffffffffffffffffffffffffffffffffffff16600160a01b8415150217905560006008555b60085460408051918252517f241f67ee5f41b7a5cabf911367329be7215900f602ebfc47f89dce2a6bcd847c9181900360200190a15050565b60065481565b6002600154141561177c576040805162461bcd60e51b815260206004820152601f60248201527f5265656e7472616e637947756172643a207265656e7472616e742063616c6c00604482015290519081900360640190fd5b60026001819055336000908152600e602052604090209054600160a01b900460ff16156118065760085481546117b390849061213b565b1115611806576040805162461bcd60e51b815260206004820152601760248201527f5573657220616d6f756e742061626f7665206c696d6974000000000000000000604482015290519081900360640190fd5b61180e611f2a565b80541561185257600061183e8260010154610d22600a54610d1c6003548760000154611e6b90919063ffffffff16565b90508015611850576118503382612087565b505b81156119f257600c54604080516370a0823160e01b815230600482015290516000926001600160a01b0316916370a08231916024808301926020929190829003018186803b1580156118a357600080fd5b505afa1580156118b7573d6000803e3d6000fd5b505050506040513d60208110156118cd57600080fd5b5051600c549091506118ea906001600160a01b0316333086612195565b600c54604080516370a0823160e01b8152306004820152905161196d9284926001600160a01b03909116916370a0823191602480820192602092909190829003018186803b15801561193b57600080fd5b505afa15801561194f573d6000803e3d6000fd5b505050506040513d602081101561196557600080fd5b505190611ecd565b60075490935060009061ffff16156119c5576007546119999061271090610d1c90879061ffff16611e6b565b905080156119c557600754600c546119c5916001600160a01b0391821691620100009091041683612002565b82546119d7908290610d22908761213b565b8355600d546119ec908290610d22908761213b565b600d5550505b600a546003548254611a099291610d1c9190611e6b565b600182015560408051838152905133917fe1fffcc4923d04b559f4d29a8bfc6cda04eb5b0d3c460751c2402c5c5cc9109c919081900360200190a2505060018055565b611a54611e67565b6000546001600160a01b03908116911614611ab6576040805162461bcd60e51b815260206004820181905260248201527f4f776e61626c653a2063616c6c6572206973206e6f7420746865206f776e6572604482015290519081900360640190fd5b6001600160a01b038116611b11576040805162461bcd60e51b815260206004820152601460248201527f496e76616c6964207a65726f2061646472657373000000000000000000000000604482015290519081900360640190fd5b6007546001600160a01b0382811662010000909204161415611b7a576040805162461bcd60e51b815260206004820152601c60248201527f53616d6520666565206164647265737320616c72656164792073657400000000604482015290519081900360640190fd5b600780546001600160a01b03808416620100009081027fffffffffffffffffffff0000000000000000000000000000000000000000ffff9093169290921792839055604080519290930416815290517fdcff558177ef1322e1a9308bd0d2b8b3922d8e05c3ec06323297bdd24db93ef09181900360200190a150565b6107d081565b600c546001600160a01b031681565b600a5481565b600d5481565b60026001541415611c6f576040805162461bcd60e51b815260206004820152601f60248201527f5265656e7472616e637947756172643a207265656e7472616e742063616c6c00604482015290519081900360640190fd5b60026001908155336000908152600e60205260408120805482825592810191909155600d54909190611ca19082611ecd565b600d558015611cc157600c54611cc1906001600160a01b03163383612002565b60408051828152905133917f5fafa99d0643513820be26656b45130b01e1c03062e1266bf36f88cbd3bd9695919081900360200190a2505060018055565b611d07611e67565b6000546001600160a01b03908116911614611d69576040805162461bcd60e51b815260206004820181905260248201527f4f776e61626c653a2063616c6c6572206973206e6f7420746865206f776e6572604482015290519081900360640190fd5b611d7281612223565b50565b6001600160a01b0381166000908152600e6020526040812060065443118015611d9f5750600d5415155b15611e28576000611db2600654436122d0565b90506000611dcb60095483611e6b90919063ffffffff16565b90506000611df6611ded600d54610d1c600a5486611e6b90919063ffffffff16565b6003549061213b565b9050611e1d8460010154610d22600a54610d1c858960000154611e6b90919063ffffffff16565b945050505050611e53565b611e4f8160010154610d22600a54610d1c6003548660000154611e6b90919063ffffffff16565b9150505b919050565b600b546001600160a01b031681565b3390565b600082611e7a57506000611ec7565b82820282848281611e8757fe5b0414611ec45760405162461bcd60e51b81526004018080602001828103825260218152602001806126d56021913960400191505060405180910390fd5b90505b92915050565b600082821115611f24576040805162461bcd60e51b815260206004820152601e60248201527f536166654d6174683a207375627472616374696f6e206f766572666c6f770000604482015290519081900360640190fd5b50900390565b6006544311611f3857611f99565b600d54611f485743600655611f99565b6000611f56600654436122d0565b90506000611f6f60095483611e6b90919063ffffffff16565b9050611f8f611ded600d54610d1c600a5485611e6b90919063ffffffff16565b6003555050436006555b565b6000808211611ff1576040805162461bcd60e51b815260206004820152601a60248201527f536166654d6174683a206469766973696f6e206279207a65726f000000000000604482015290519081900360640190fd5b818381611ffa57fe5b049392505050565b604080516001600160a01b038416602482015260448082018490528251808303909101815260649091019091526020810180517bffffffffffffffffffffffffffffffffffffffffffffffffffffffff167fa9059cbb0000000000000000000000000000000000000000000000000000000017905261208290849061230a565b505050565b600b54604080516370a0823160e01b815230600482015290516000926001600160a01b0316916370a08231916024808301926020929190829003018186803b1580156120d257600080fd5b505afa1580156120e6573d6000803e3d6000fd5b505050506040513d60208110156120fc57600080fd5b505190508082111561212457600b5461211f906001600160a01b03168483612002565b612082565b600b54612082906001600160a01b03168484612002565b600082820183811015611ec4576040805162461bcd60e51b815260206004820152601b60248201527f536166654d6174683a206164646974696f6e206f766572666c6f770000000000604482015290519081900360640190fd5b604080516001600160a01b0380861660248301528416604482015260648082018490528251808303909101815260849091019091526020810180517bffffffffffffffffffffffffffffffffffffffffffffffffffffffff167f23b872dd0000000000000000000000000000000000000000000000000000000017905261221d90859061230a565b50505050565b6001600160a01b0381166122685760405162461bcd60e51b81526004018080602001828103825260268152602001806126056026913960400191505060405180910390fd5b600080546040516001600160a01b03808516939216917f8be0079c531659141344cd1fd0a4f28419497f9722a3daafe3b4186f6b6457e091a36000805473ffffffffffffffffffffffffffffffffffffffff19166001600160a01b0392909216919091179055565b600060045482116122ec576122e58284611ecd565b9050611ec7565b60045483106122fd57506000611ec7565b6004546122e59084611ecd565b606061235f826040518060400160405280602081526020017f5361666542455032303a206c6f772d6c6576656c2063616c6c206661696c6564815250856001600160a01b03166123bb9092919063ffffffff16565b8051909150156120825780806020019051602081101561237e57600080fd5b50516120825760405162461bcd60e51b815260040180806020018281038252602a8152602001806125db602a913960400191505060405180910390fd5b60606123ca84846000856123d4565b90505b9392505050565b6060824710156124155760405162461bcd60e51b81526004018080602001828103825260268152602001806126596026913960400191505060405180910390fd5b61241e85612530565b61246f576040805162461bcd60e51b815260206004820152601d60248201527f416464726573733a2063616c6c20746f206e6f6e2d636f6e7472616374000000604482015290519081900360640190fd5b60006060866001600160a01b031685876040518082805190602001908083835b602083106124ae5780518252601f19909201916020918201910161248f565b6001836020036101000a03801982511681845116808217855250505050505090500191505060006040518083038185875af1925050503d8060008114612510576040519150601f19603f3d011682016040523d82523d6000602084013e612515565b606091505b5091509150612525828286612536565b979650505050505050565b3b151590565b606083156125455750816123cd565b8251156125555782518084602001fd5b8160405162461bcd60e51b81526004018080602001828103825283818151815260200191508051906020019080838360005b8381101561259f578181015183820152602001612587565b50505050905090810190601f1680156125cc5780820380516001836020036101000a031916815260200191505b509250505060405180910390fdfe5361666542455032303a204245503230206f7065726174696f6e20646964206e6f7420737563636565644f776e61626c653a206e6577206f776e657220697320746865207a65726f20616464726573734e6577207374617274426c6f636b206d757374206265206c6f776572207468616e206e657720656e64426c6f636b416464726573733a20696e73756666696369656e742062616c616e636520666f722063616c6c7374617274426c6f636b206d757374206265206c6f776572207468616e20656e64426c6f636b4e6577207374617274426c6f636b206d75737420626520686967686572207468616e2063757272656e7420626c6f636b536166654d6174683a206d756c7469706c69636174696f6e206f766572666c6f774e6f7420616c6c6f77656420746f2072656d6f76652072657761726420746f6b656e73207768696c6520706f6f6c206973206c697665a2646970667358221220286690320b40e59dae6e6d607e0d006b680fa5a565fe446a0f18c775cff1b47764736f6c634300060c00334f776e61626c653a206e6577206f776e657220697320746865207a65726f2061646472657373a26469706673582212202298145134b97651b66c0f361807874488002fb6317c23dcb123862146c86def64736f6c634300060c0033",
  "immutableReferences": {},
  "source": "\n// File: contracts/GuitarPoolInitializable.sol\n\npragma solidity 0.6.12;\n\nimport \"./libs/SafeBEP20.sol\";\nimport \"@openzeppelin/contracts/utils/ReentrancyGuard.sol\";\nimport '@pancakeswap/pancake-swap-lib/contracts/access/Ownable.sol';\ncontract GuitarPoolInitializable is Ownable, ReentrancyGuard {\n    using SafeMath for uint256;\n    using SafeBEP20 for IBEP20;\n\n    // The address of the smart chef factory\n    address public GUITAR_POOL_FACTORY;\n\n    // Whether a limit is set for users\n    bool public hasUserLimit;\n\n    // Whether it is initialized\n    bool public isInitialized;\n\n    // Accrued token per share\n    uint256 public accTokenPerShare;\n\n    // The block number when CAKE mining ends.\n    uint256 public bonusEndBlock;\n\n    // The block number when CAKE mining starts.\n    uint256 public startBlock;\n\n    // The block number of the last pool update\n    uint256 public lastRewardBlock;\n\n    uint16 public constant MAX_DEPOSIT_FEE = 2000;\n    uint256 public constant MAX_EMISSION_RATE = 10**7;\n\n    // The deposit fee\n    uint16 public depositFee;\n\n    // The fee address\n    address public feeAddress;\n\n    // The pool limit (0 if none)\n    uint256 public poolLimitPerUser;\n\n    // CAKE tokens created per block.\n    uint256 public rewardPerBlock;\n\n    // The precision factor\n    uint256 public PRECISION_FACTOR;\n\n    // The reward token\n    IBEP20 public rewardToken;\n\n    // The staked token\n    IBEP20 public stakedToken;\n\n    // Total supply of staked token\n    uint256 public stakedSupply;\n\n    // Info of each user that stakes tokens (stakedToken)\n    mapping(address => UserInfo) public userInfo;\n\n    struct UserInfo {\n        uint256 amount; // How many staked tokens the user has provided\n        uint256 rewardDebt; // Reward debt\n    }\n\n    event AdminTokenRecovery(address tokenRecovered, uint256 amount);\n    event Deposit(address indexed user, uint256 amount);\n    event EmergencyWithdraw(address indexed user, uint256 amount);\n    event EmergencyRewardWithdraw(uint256 amount);\n    event NewStartAndEndBlocks(uint256 startBlock, uint256 endBlock);\n    event NewRewardPerBlock(uint256 rewardPerBlock);\n    event NewDepositFee(uint16 depositFee);\n    event NewFeeAddress(address feeAddress);\n    event NewPoolLimit(uint256 poolLimitPerUser);\n    event RewardsStop(uint256 blockNumber);\n    event Withdraw(address indexed user, uint256 amount);\n\n    constructor() public {\n        GUITAR_POOL_FACTORY = msg.sender;\n    }\n\n    /**\n     * @notice Initialize the contract\n     * @param _stakedToken: staked token address\n     * @param _rewardToken: reward token address\n     * @param _rewardPerBlock: reward per block (in rewardToken)\n     * @param _startBlock: start block\n     * @param _bonusEndBlock: end block\n     * @param _poolLimitPerUser: pool limit per user in stakedToken (if any, else 0)\n     * @param _depositFee: deposit fee\n     * @param _feeAddress: fee address\n     * @param _admin: admin address with ownership\n     */\n    function initialize(\n        IBEP20 _stakedToken,\n        IBEP20 _rewardToken,\n        uint256 _rewardPerBlock,\n        uint256 _startBlock,\n        uint256 _bonusEndBlock,\n        uint256 _poolLimitPerUser,\n        uint16 _depositFee,\n        address _feeAddress,\n        address _admin\n    ) external {\n        require(!isInitialized, \"Already initialized\");\n        require(msg.sender == GUITAR_POOL_FACTORY, \"Not factory\");\n        require(_feeAddress != address(0), \"Invalid zero address\");\n\n        _stakedToken.balanceOf(address(this));\n        _rewardToken.balanceOf(address(this));\n        // require(_stakedToken != _rewardToken, \"stakedToken must be different from rewardToken\");\n        require(_startBlock > block.number, \"startBlock cannot be in the past\");\n        require(_startBlock < _bonusEndBlock, \"startBlock must be lower than endBlock\");\n\n        // Make this contract initialized\n        isInitialized = true;\n\n        stakedToken = _stakedToken;\n        rewardToken = _rewardToken;\n        rewardPerBlock = _rewardPerBlock;\n        startBlock = _startBlock;\n        bonusEndBlock = _bonusEndBlock;\n        require(_depositFee <= MAX_DEPOSIT_FEE, \"Invalid deposit fee\");\n        depositFee = _depositFee;\n        feeAddress = _feeAddress;\n\n        if (_poolLimitPerUser > 0) {\n            hasUserLimit = true;\n            poolLimitPerUser = _poolLimitPerUser;\n        }\n\n        uint256 decimalsRewardToken = uint256(rewardToken.decimals());\n        require(decimalsRewardToken < 30, \"Must be inferior to 30\");\n\n        PRECISION_FACTOR = uint256(10**(uint256(30).sub(decimalsRewardToken)));\n\n        // Set the lastRewardBlock as the startBlock\n        lastRewardBlock = startBlock;\n\n        // Transfer ownership to the admin address who becomes owner of the contract\n        transferOwnership(_admin);\n    }\n\n    /*\n     * @notice Deposit staked tokens and collect reward tokens (if any)\n     * @param _amount: amount to withdraw (in rewardToken)\n     */\n    function deposit(uint256 _amount) external nonReentrant {\n        UserInfo storage user = userInfo[msg.sender];\n\n        if (hasUserLimit) {\n            require(\n                _amount.add(user.amount) <= poolLimitPerUser,\n                \"User amount above limit\"\n            );\n        }\n\n        _updatePool();\n\n        if (user.amount > 0) {\n            uint256 pending =\n                user.amount.mul(accTokenPerShare).div(PRECISION_FACTOR).sub(\n                    user.rewardDebt\n                );\n            if (pending > 0) {\n                safeRewardTransfer(msg.sender, pending);\n            }\n        }\n\n        if (_amount > 0) {\n            uint256 balanceBefore = stakedToken.balanceOf(address(this));\n            stakedToken.safeTransferFrom(msg.sender, address(this), _amount);\n            _amount = stakedToken.balanceOf(address(this)).sub(balanceBefore);\n            uint256 feeAmount = 0;\n\n            if (depositFee > 0) {\n                feeAmount = _amount.mul(depositFee).div(10000);\n                if (feeAmount > 0) {\n                    stakedToken.safeTransfer(feeAddress, feeAmount);\n                }\n            }\n\n            user.amount = user.amount.add(_amount).sub(feeAmount);\n            stakedSupply = stakedSupply.add(_amount).sub(feeAmount);\n        }\n\n        user.rewardDebt = user.amount.mul(accTokenPerShare).div(\n            PRECISION_FACTOR\n        );\n\n        emit Deposit(msg.sender, _amount);\n    }\n\n    /*\n     * @notice Withdraw staked tokens and collect reward tokens\n     * @param _amount: amount to withdraw (in rewardToken)\n     */\n    function withdraw(uint256 _amount) external nonReentrant {\n        UserInfo storage user = userInfo[msg.sender];\n        require(stakedSupply >= _amount && user.amount >= _amount, \"Amount to withdraw too high\");\n\n        _updatePool();\n\n        uint256 pending =\n            user.amount.mul(accTokenPerShare).div(PRECISION_FACTOR).sub(\n                user.rewardDebt\n            );\n\n        if (_amount > 0) {\n            user.amount = user.amount.sub(_amount);\n            stakedSupply = stakedSupply.sub(_amount);\n            stakedToken.safeTransfer(msg.sender, _amount);\n        }\n\n        if (pending > 0) {\n            safeRewardTransfer(msg.sender, pending);\n        }\n\n        user.rewardDebt = user.amount.mul(accTokenPerShare).div(\n            PRECISION_FACTOR\n        );\n\n        emit Withdraw(msg.sender, _amount);\n    }\n\n    /**\n     * @notice Safe reward transfer, just in case if rounding error causes pool to not have enough reward tokens.\n     * @param _to receiver address\n     * @param _amount amount to transfer\n     */\n    function safeRewardTransfer(address _to, uint256 _amount) internal {\n        uint256 rewardBalance = rewardToken.balanceOf(address(this));\n        if (_amount > rewardBalance) {\n            rewardToken.safeTransfer(_to, rewardBalance);\n        } else {\n            rewardToken.safeTransfer(_to, _amount);\n        }\n    }\n\n    /**\n     * @notice Withdraw staked tokens without caring about rewards rewards\n     * @dev Needs to be for emergency.\n     */\n    function emergencyWithdraw() external nonReentrant {\n        UserInfo storage user = userInfo[msg.sender];\n        uint256 amountToTransfer = user.amount;\n        user.amount = 0;\n        user.rewardDebt = 0;\n        stakedSupply = stakedSupply.sub(amountToTransfer);\n\n        if (amountToTransfer > 0) {\n            stakedToken.safeTransfer(msg.sender, amountToTransfer);\n        }\n\n        emit EmergencyWithdraw(msg.sender, amountToTransfer);\n    }\n\n    /**\n     * @notice Withdraw all reward tokens\n     * @dev Only callable by owner. Needs to be for emergency.\n     */\n    function emergencyRewardWithdraw(uint256 _amount) external onlyOwner {\n        require(startBlock > block.number || bonusEndBlock < block.number, \"Not allowed to remove reward tokens while pool is live\");\n        safeRewardTransfer(msg.sender, _amount);\n\n        emit EmergencyRewardWithdraw(_amount);\n    }\n\n    /**\n     * @notice It allows the admin to recover wrong tokens sent to the contract\n     * @param _tokenAddress: the address of the token to withdraw\n     * @param _tokenAmount: the number of tokens to withdraw\n     * @dev This function is only callable by admin.\n     */\n    function recoverWrongTokens(address _tokenAddress, uint256 _tokenAmount)\n        external\n        onlyOwner\n    {\n        require(\n            _tokenAddress != address(stakedToken),\n            \"Cannot be staked token\"\n        );\n        require(\n            _tokenAddress != address(rewardToken),\n            \"Cannot be reward token\"\n        );\n\n        IBEP20(_tokenAddress).safeTransfer(msg.sender, _tokenAmount);\n\n        emit AdminTokenRecovery(_tokenAddress, _tokenAmount);\n    }\n\n    /*\n     * @notice Stop rewards\n     * @dev Only callable by owner\n     */\n    function stopReward() external onlyOwner {\n        require(startBlock < block.number, \"Pool has not started\");\n        require(block.number <= bonusEndBlock, \"Pool has ended\");\n        bonusEndBlock = block.number;\n\n        emit RewardsStop(block.number);\n    }\n\n    /*\n     * @notice Update pool limit per user\n     * @dev Only callable by owner.\n     * @param _hasUserLimit: whether the limit remains forced\n     * @param _poolLimitPerUser: new pool limit per user\n     */\n    function updatePoolLimitPerUser(\n        bool _hasUserLimit,\n        uint256 _poolLimitPerUser\n    ) external onlyOwner {\n        require(hasUserLimit, \"Must be set\");\n        if (_hasUserLimit) {\n            require(\n                _poolLimitPerUser > poolLimitPerUser,\n                \"New limit must be higher\"\n            );\n            poolLimitPerUser = _poolLimitPerUser;\n        } else {\n            hasUserLimit = _hasUserLimit;\n            poolLimitPerUser = 0;\n        }\n        emit NewPoolLimit(poolLimitPerUser);\n    }\n\n    /*\n     * @notice Update reward per block\n     * @dev Only callable by owner.\n     * @param _rewardPerBlock: the reward per block\n     */\n    function updateRewardPerBlock(uint256 _rewardPerBlock) external onlyOwner {\n        require(block.number < startBlock, \"Pool has started\");\n        uint256 rewardDecimals = uint256(rewardToken.decimals());\n        require(_rewardPerBlock <= MAX_EMISSION_RATE.mul(10**rewardDecimals), \"Out of maximum emission rate\");\n        rewardPerBlock = _rewardPerBlock;\n        emit NewRewardPerBlock(_rewardPerBlock);\n    }\n\n    /*\n     * @notice Update deposit fee\n     * @dev Only callable by owner.\n     * @param _depositFee: the deposit fee\n     */\n    function updateDepositFee(uint16 _depositFee) external onlyOwner {\n        require(_depositFee <= MAX_DEPOSIT_FEE, \"Invalid deposit fee\");\n        depositFee = _depositFee;\n        emit NewDepositFee(depositFee);\n    }\n\n    /*\n     * @notice Update fee address\n     * @dev Only callable by owner.\n     * @param _feeAddress: the fee address\n     */\n    function updateFeeAddress(address _feeAddress) external onlyOwner {\n        require(_feeAddress != address(0), \"Invalid zero address\");\n        require(feeAddress != _feeAddress, \"Same fee address already set\");\n\n        feeAddress = _feeAddress;\n        emit NewFeeAddress(feeAddress);\n    }\n\n    /**\n     * @notice It allows the admin to update start and end blocks\n     * @dev This function is only callable by owner.\n     * @param _startBlock: the new start block\n     * @param _bonusEndBlock: the new end block\n     */\n    function updateStartAndEndBlocks(\n        uint256 _startBlock,\n        uint256 _bonusEndBlock\n    ) external onlyOwner {\n        require(block.number < startBlock, \"Pool has started\");\n        require(\n            _startBlock < _bonusEndBlock,\n            \"New startBlock must be lower than new endBlock\"\n        );\n        require(\n            block.number < _startBlock,\n            \"New startBlock must be higher than current block\"\n        );\n\n        startBlock = _startBlock;\n        bonusEndBlock = _bonusEndBlock;\n\n        // Set the lastRewardBlock as the startBlock\n        lastRewardBlock = startBlock;\n\n        emit NewStartAndEndBlocks(_startBlock, _bonusEndBlock);\n    }\n\n    /*\n     * @notice View function to see pending reward on frontend.\n     * @param _user: user address\n     * @return Pending reward for a given user\n     */\n    function pendingReward(address _user) external view returns (uint256) {\n        UserInfo storage user = userInfo[_user];\n        if (block.number > lastRewardBlock && stakedSupply != 0) {\n            uint256 multiplier = _getMultiplier(lastRewardBlock, block.number);\n            uint256 cakeReward = multiplier.mul(rewardPerBlock);\n            uint256 adjustedTokenPerShare =\n                accTokenPerShare.add(\n                    cakeReward.mul(PRECISION_FACTOR).div(stakedSupply)\n                );\n            return\n                user\n                    .amount\n                    .mul(adjustedTokenPerShare)\n                    .div(PRECISION_FACTOR)\n                    .sub(user.rewardDebt);\n        } else {\n            return\n                user.amount.mul(accTokenPerShare).div(PRECISION_FACTOR).sub(\n                    user.rewardDebt\n                );\n        }\n    }\n\n    /*\n     * @notice Update reward variables of the given pool to be up-to-date.\n     */\n    function _updatePool() internal {\n        if (block.number <= lastRewardBlock) {\n            return;\n        }\n\n        if (stakedSupply == 0) {\n            lastRewardBlock = block.number;\n            return;\n        }\n\n        uint256 multiplier = _getMultiplier(lastRewardBlock, block.number);\n        uint256 cakeReward = multiplier.mul(rewardPerBlock);\n        accTokenPerShare = accTokenPerShare.add(\n            cakeReward.mul(PRECISION_FACTOR).div(stakedSupply)\n        );\n        lastRewardBlock = block.number;\n    }\n\n    /*\n     * @notice Return reward multiplier over the given _from to _to block.\n     * @param _from: block to start\n     * @param _to: block to finish\n     */\n    function _getMultiplier(uint256 _from, uint256 _to)\n        internal\n        view\n        returns (uint256)\n    {\n        if (_to <= bonusEndBlock) {\n            return _to.sub(_from);\n        } else if (_from >= bonusEndBlock) {\n            return 0;\n        } else {\n            return bonusEndBlock.sub(_from);\n        }\n    }\n}\n\n\n// File: contracts/GuitarPoolFactory.sol\n\npragma solidity 0.6.12;\n\ncontract GuitarPoolFactory is Ownable {\n    event NewGuitarPoolContract(address indexed smartChef);\n\n    uint16 public constant MAX_DEPOSIT_FEE = 2000;\n\n    constructor() public {\n        //\n    }\n\n    /**\n     * @notice Deploy the pool\n     * @param _stakedToken: staked token address\n     * @param _rewardToken: reward token address\n     * @param _rewardPerBlock: reward per block (in rewardToken)\n     * @param _startBlock: start block\n     * @param _bonusEndBlock: end block\n     * @param _depositFee: deposit fee\n     * @param _poolLimitPerUser: pool limit per user in stakedToken (if any, else 0)\n     * @param _admin: admin address with ownership\n     */\n    function deployPool(\n        IBEP20 _stakedToken,\n        IBEP20 _rewardToken,\n        uint256 _rewardPerBlock,\n        uint256 _startBlock,\n        uint256 _bonusEndBlock,\n        uint256 _poolLimitPerUser,\n        uint16 _depositFee,\n        address _feeAddress,\n        address _admin\n    ) external onlyOwner {\n        require(_stakedToken.totalSupply() >= 0);\n        require(_rewardToken.totalSupply() >= 0);\n        \n        require(_depositFee <= MAX_DEPOSIT_FEE, \"Invalid deposit fee value\");\n\n        bytes memory bytecode = type(GuitarPoolInitializable).creationCode;\n        bytes32 salt =\n            keccak256(\n                abi.encodePacked(_stakedToken, _rewardToken, _startBlock)\n            );\n        address smartChefAddress;\n\n        assembly {\n            smartChefAddress := create2(\n                0,\n                add(bytecode, 32),\n                mload(bytecode),\n                salt\n            )\n        }\n\n        GuitarPoolInitializable(smartChefAddress).initialize(\n            _stakedToken,\n            _rewardToken,\n            _rewardPerBlock,\n            _startBlock,\n            _bonusEndBlock,\n            _poolLimitPerUser,\n            _depositFee,\n            _feeAddress,\n            _admin\n        );\n\n        emit NewGuitarPoolContract(smartChefAddress);\n    }\n}\n",
  "sourcePath": "G:\\Blockchain\\Ethereum\\GuitarSwap\\Work\\PancakeSwap\\Work\\guitar-contracts\\contracts\\GuitarPoolFactory.sol",
  "compiler": {
    "name": "solc",
    "version": "0.6.12+commit.27d51765.Emscripten.clang"
  },
  "schemaVersion": "3.4.5",
  "updatedAt": "2022-03-21T03:36:40.187Z",
  "devdoc": {
    "kind": "dev",
    "methods": {
      "deployPool(address,address,uint256,uint256,uint256,uint256,uint16,address,address)": {
        "params": {
          "_admin": ": admin address with ownership",
          "_bonusEndBlock": ": end block",
          "_depositFee": ": deposit fee",
          "_poolLimitPerUser": ": pool limit per user in stakedToken (if any, else 0)",
          "_rewardPerBlock": ": reward per block (in rewardToken)",
          "_rewardToken": ": reward token address",
          "_stakedToken": ": staked token address",
          "_startBlock": ": start block"
        }
      },
      "owner()": {
        "details": "Returns the address of the current owner."
      },
      "renounceOwnership()": {
        "details": "Leaves the contract without owner. It will not be possible to call `onlyOwner` functions anymore. Can only be called by the current owner. NOTE: Renouncing ownership will leave the contract without an owner, thereby removing any functionality that is only available to the owner."
      },
      "transferOwnership(address)": {
        "details": "Transfers ownership of the contract to a new account (`newOwner`). Can only be called by the current owner."
      }
    },
    "version": 1
  },
  "userdoc": {
    "kind": "user",
    "methods": {
      "deployPool(address,address,uint256,uint256,uint256,uint256,uint16,address,address)": {
        "notice": "Deploy the pool"
      }
    },
    "version": 1
  }
}