{
  "contractName": "GuitarSwapLottery",
  "abi": [
    {
      "inputs": [
        {
          "internalType": "address",
          "name": "_guitarTokenAddress",
          "type": "address"
        },
        {
          "internalType": "address",
          "name": "_randomGeneratorAddress",
          "type": "address"
        }
      ],
      "stateMutability": "nonpayable",
      "type": "constructor"
    },
    {
      "anonymous": false,
      "inputs": [
        {
          "indexed": false,
          "internalType": "address",
          "name": "token",
          "type": "address"
        },
        {
          "indexed": false,
          "internalType": "uint256",
          "name": "amount",
          "type": "uint256"
        }
      ],
      "name": "AdminTokenRecovery",
      "type": "event"
    },
    {
      "anonymous": false,
      "inputs": [
        {
          "indexed": true,
          "internalType": "uint256",
          "name": "lotteryId",
          "type": "uint256"
        },
        {
          "indexed": false,
          "internalType": "uint256",
          "name": "firstTicketIdNextLottery",
          "type": "uint256"
        }
      ],
      "name": "LotteryClose",
      "type": "event"
    },
    {
      "anonymous": false,
      "inputs": [
        {
          "indexed": true,
          "internalType": "uint256",
          "name": "lotteryId",
          "type": "uint256"
        },
        {
          "indexed": false,
          "internalType": "uint256",
          "name": "injectedAmount",
          "type": "uint256"
        }
      ],
      "name": "LotteryInjection",
      "type": "event"
    },
    {
      "anonymous": false,
      "inputs": [
        {
          "indexed": true,
          "internalType": "uint256",
          "name": "lotteryId",
          "type": "uint256"
        },
        {
          "indexed": false,
          "internalType": "uint256",
          "name": "finalNumber",
          "type": "uint256"
        },
        {
          "indexed": false,
          "internalType": "uint256",
          "name": "countWinningTickets",
          "type": "uint256"
        }
      ],
      "name": "LotteryNumberDrawn",
      "type": "event"
    },
    {
      "anonymous": false,
      "inputs": [
        {
          "indexed": true,
          "internalType": "uint256",
          "name": "lotteryId",
          "type": "uint256"
        },
        {
          "indexed": false,
          "internalType": "uint256",
          "name": "startTime",
          "type": "uint256"
        },
        {
          "indexed": false,
          "internalType": "uint256",
          "name": "endTime",
          "type": "uint256"
        },
        {
          "indexed": false,
          "internalType": "uint256",
          "name": "priceTicketInGuitar",
          "type": "uint256"
        },
        {
          "indexed": false,
          "internalType": "uint256",
          "name": "firstTicketId",
          "type": "uint256"
        },
        {
          "indexed": false,
          "internalType": "uint256",
          "name": "injectedAmount",
          "type": "uint256"
        }
      ],
      "name": "LotteryOpen",
      "type": "event"
    },
    {
      "anonymous": false,
      "inputs": [
        {
          "indexed": false,
          "internalType": "address",
          "name": "operator",
          "type": "address"
        },
        {
          "indexed": false,
          "internalType": "address",
          "name": "treasury",
          "type": "address"
        },
        {
          "indexed": false,
          "internalType": "address",
          "name": "injector",
          "type": "address"
        }
      ],
      "name": "NewOperatorAndTreasuryAndInjectorAddresses",
      "type": "event"
    },
    {
      "anonymous": false,
      "inputs": [
        {
          "indexed": true,
          "internalType": "address",
          "name": "randomGenerator",
          "type": "address"
        }
      ],
      "name": "NewRandomGenerator",
      "type": "event"
    },
    {
      "anonymous": false,
      "inputs": [
        {
          "indexed": true,
          "internalType": "address",
          "name": "previousOwner",
          "type": "address"
        },
        {
          "indexed": true,
          "internalType": "address",
          "name": "newOwner",
          "type": "address"
        }
      ],
      "name": "OwnershipTransferred",
      "type": "event"
    },
    {
      "anonymous": false,
      "inputs": [
        {
          "indexed": true,
          "internalType": "address",
          "name": "claimer",
          "type": "address"
        },
        {
          "indexed": false,
          "internalType": "uint256",
          "name": "amount",
          "type": "uint256"
        },
        {
          "indexed": true,
          "internalType": "uint256",
          "name": "lotteryId",
          "type": "uint256"
        },
        {
          "indexed": false,
          "internalType": "uint256",
          "name": "numberTickets",
          "type": "uint256"
        }
      ],
      "name": "TicketsClaim",
      "type": "event"
    },
    {
      "anonymous": false,
      "inputs": [
        {
          "indexed": true,
          "internalType": "address",
          "name": "buyer",
          "type": "address"
        },
        {
          "indexed": true,
          "internalType": "uint256",
          "name": "lotteryId",
          "type": "uint256"
        },
        {
          "indexed": false,
          "internalType": "uint256",
          "name": "numberTickets",
          "type": "uint256"
        }
      ],
      "name": "TicketsPurchase",
      "type": "event"
    },
    {
      "inputs": [],
      "name": "MAX_LENGTH_LOTTERY",
      "outputs": [
        {
          "internalType": "uint256",
          "name": "",
          "type": "uint256"
        }
      ],
      "stateMutability": "view",
      "type": "function"
    },
    {
      "inputs": [],
      "name": "MAX_TREASURY_FEE",
      "outputs": [
        {
          "internalType": "uint256",
          "name": "",
          "type": "uint256"
        }
      ],
      "stateMutability": "view",
      "type": "function"
    },
    {
      "inputs": [],
      "name": "MIN_DISCOUNT_DIVISOR",
      "outputs": [
        {
          "internalType": "uint256",
          "name": "",
          "type": "uint256"
        }
      ],
      "stateMutability": "view",
      "type": "function"
    },
    {
      "inputs": [],
      "name": "MIN_LENGTH_LOTTERY",
      "outputs": [
        {
          "internalType": "uint256",
          "name": "",
          "type": "uint256"
        }
      ],
      "stateMutability": "view",
      "type": "function"
    },
    {
      "inputs": [],
      "name": "currentLotteryId",
      "outputs": [
        {
          "internalType": "uint256",
          "name": "",
          "type": "uint256"
        }
      ],
      "stateMutability": "view",
      "type": "function"
    },
    {
      "inputs": [],
      "name": "currentTicketId",
      "outputs": [
        {
          "internalType": "uint256",
          "name": "",
          "type": "uint256"
        }
      ],
      "stateMutability": "view",
      "type": "function"
    },
    {
      "inputs": [],
      "name": "guitarToken",
      "outputs": [
        {
          "internalType": "contract IERC20",
          "name": "",
          "type": "address"
        }
      ],
      "stateMutability": "view",
      "type": "function"
    },
    {
      "inputs": [],
      "name": "injectorAddress",
      "outputs": [
        {
          "internalType": "address",
          "name": "",
          "type": "address"
        }
      ],
      "stateMutability": "view",
      "type": "function"
    },
    {
      "inputs": [],
      "name": "maxNumberTicketsPerBuyOrClaim",
      "outputs": [
        {
          "internalType": "uint256",
          "name": "",
          "type": "uint256"
        }
      ],
      "stateMutability": "view",
      "type": "function"
    },
    {
      "inputs": [],
      "name": "maxPriceTicketInGuitar",
      "outputs": [
        {
          "internalType": "uint256",
          "name": "",
          "type": "uint256"
        }
      ],
      "stateMutability": "view",
      "type": "function"
    },
    {
      "inputs": [],
      "name": "minPriceTicketInGuitar",
      "outputs": [
        {
          "internalType": "uint256",
          "name": "",
          "type": "uint256"
        }
      ],
      "stateMutability": "view",
      "type": "function"
    },
    {
      "inputs": [],
      "name": "operatorAddress",
      "outputs": [
        {
          "internalType": "address",
          "name": "",
          "type": "address"
        }
      ],
      "stateMutability": "view",
      "type": "function"
    },
    {
      "inputs": [],
      "name": "owner",
      "outputs": [
        {
          "internalType": "address",
          "name": "",
          "type": "address"
        }
      ],
      "stateMutability": "view",
      "type": "function"
    },
    {
      "inputs": [],
      "name": "pendingInjectionNextLottery",
      "outputs": [
        {
          "internalType": "uint256",
          "name": "",
          "type": "uint256"
        }
      ],
      "stateMutability": "view",
      "type": "function"
    },
    {
      "inputs": [],
      "name": "randomGenerator",
      "outputs": [
        {
          "internalType": "contract IRandomNumberGenerator",
          "name": "",
          "type": "address"
        }
      ],
      "stateMutability": "view",
      "type": "function"
    },
    {
      "inputs": [],
      "name": "renounceOwnership",
      "outputs": [],
      "stateMutability": "nonpayable",
      "type": "function"
    },
    {
      "inputs": [
        {
          "internalType": "address",
          "name": "newOwner",
          "type": "address"
        }
      ],
      "name": "transferOwnership",
      "outputs": [],
      "stateMutability": "nonpayable",
      "type": "function"
    },
    {
      "inputs": [],
      "name": "treasuryAddress",
      "outputs": [
        {
          "internalType": "address",
          "name": "",
          "type": "address"
        }
      ],
      "stateMutability": "view",
      "type": "function"
    },
    {
      "inputs": [
        {
          "internalType": "uint256",
          "name": "_lotteryId",
          "type": "uint256"
        },
        {
          "internalType": "uint32[]",
          "name": "_ticketNumbers",
          "type": "uint32[]"
        }
      ],
      "name": "buyTickets",
      "outputs": [],
      "stateMutability": "nonpayable",
      "type": "function"
    },
    {
      "inputs": [
        {
          "internalType": "uint256",
          "name": "lotteryId",
          "type": "uint256"
        },
        {
          "internalType": "uint32",
          "name": "ticketNumber",
          "type": "uint32"
        }
      ],
      "name": "getNumberTicketsPerLotteryId",
      "outputs": [
        {
          "internalType": "uint256",
          "name": "",
          "type": "uint256"
        }
      ],
      "stateMutability": "view",
      "type": "function"
    },
    {
      "inputs": [
        {
          "internalType": "uint256",
          "name": "_lotteryId",
          "type": "uint256"
        },
        {
          "internalType": "uint256[]",
          "name": "_ticketIds",
          "type": "uint256[]"
        },
        {
          "internalType": "uint32[]",
          "name": "_brackets",
          "type": "uint32[]"
        }
      ],
      "name": "claimTickets",
      "outputs": [],
      "stateMutability": "nonpayable",
      "type": "function"
    },
    {
      "inputs": [
        {
          "internalType": "uint256",
          "name": "_lotteryId",
          "type": "uint256"
        }
      ],
      "name": "closeLottery",
      "outputs": [],
      "stateMutability": "nonpayable",
      "type": "function"
    },
    {
      "inputs": [
        {
          "internalType": "uint256",
          "name": "_lotteryId",
          "type": "uint256"
        },
        {
          "internalType": "bool",
          "name": "_autoInjection",
          "type": "bool"
        }
      ],
      "name": "drawFinalNumberAndMakeLotteryClaimable",
      "outputs": [],
      "stateMutability": "nonpayable",
      "type": "function"
    },
    {
      "inputs": [
        {
          "internalType": "address",
          "name": "_randomGeneratorAddress",
          "type": "address"
        }
      ],
      "name": "changeRandomGenerator",
      "outputs": [],
      "stateMutability": "nonpayable",
      "type": "function"
    },
    {
      "inputs": [
        {
          "internalType": "uint256",
          "name": "_lotteryId",
          "type": "uint256"
        },
        {
          "internalType": "uint256",
          "name": "_amount",
          "type": "uint256"
        }
      ],
      "name": "injectFunds",
      "outputs": [],
      "stateMutability": "nonpayable",
      "type": "function"
    },
    {
      "inputs": [
        {
          "internalType": "uint256",
          "name": "_endTime",
          "type": "uint256"
        },
        {
          "internalType": "uint256",
          "name": "_priceTicketInGuitar",
          "type": "uint256"
        },
        {
          "internalType": "uint256",
          "name": "_discountDivisor",
          "type": "uint256"
        },
        {
          "internalType": "uint256[6]",
          "name": "_rewardsBreakdown",
          "type": "uint256[6]"
        },
        {
          "internalType": "uint256",
          "name": "_treasuryFee",
          "type": "uint256"
        }
      ],
      "name": "startLottery",
      "outputs": [],
      "stateMutability": "nonpayable",
      "type": "function"
    },
    {
      "inputs": [
        {
          "internalType": "address",
          "name": "_tokenAddress",
          "type": "address"
        },
        {
          "internalType": "uint256",
          "name": "_tokenAmount",
          "type": "uint256"
        }
      ],
      "name": "recoverWrongTokens",
      "outputs": [],
      "stateMutability": "nonpayable",
      "type": "function"
    },
    {
      "inputs": [
        {
          "internalType": "uint256",
          "name": "_minPriceTicketInGuitar",
          "type": "uint256"
        },
        {
          "internalType": "uint256",
          "name": "_maxPriceTicketInGuitar",
          "type": "uint256"
        }
      ],
      "name": "setMinAndMaxTicketPriceInGuitar",
      "outputs": [],
      "stateMutability": "nonpayable",
      "type": "function"
    },
    {
      "inputs": [
        {
          "internalType": "uint256",
          "name": "_maxNumberTicketsPerBuy",
          "type": "uint256"
        }
      ],
      "name": "setMaxNumberTicketsPerBuy",
      "outputs": [],
      "stateMutability": "nonpayable",
      "type": "function"
    },
    {
      "inputs": [
        {
          "internalType": "address",
          "name": "_operatorAddress",
          "type": "address"
        },
        {
          "internalType": "address",
          "name": "_treasuryAddress",
          "type": "address"
        },
        {
          "internalType": "address",
          "name": "_injectorAddress",
          "type": "address"
        }
      ],
      "name": "setOperatorAndTreasuryAndInjectorAddresses",
      "outputs": [],
      "stateMutability": "nonpayable",
      "type": "function"
    },
    {
      "inputs": [
        {
          "internalType": "uint256",
          "name": "_discountDivisor",
          "type": "uint256"
        },
        {
          "internalType": "uint256",
          "name": "_priceTicket",
          "type": "uint256"
        },
        {
          "internalType": "uint256",
          "name": "_numberTickets",
          "type": "uint256"
        }
      ],
      "name": "calculateTotalPriceForBulkTickets",
      "outputs": [
        {
          "internalType": "uint256",
          "name": "",
          "type": "uint256"
        }
      ],
      "stateMutability": "pure",
      "type": "function"
    },
    {
      "inputs": [],
      "name": "viewCurrentLotteryId",
      "outputs": [
        {
          "internalType": "uint256",
          "name": "",
          "type": "uint256"
        }
      ],
      "stateMutability": "nonpayable",
      "type": "function"
    },
    {
      "inputs": [
        {
          "internalType": "uint256",
          "name": "_lotteryId",
          "type": "uint256"
        }
      ],
      "name": "viewLottery",
      "outputs": [
        {
          "components": [
            {
              "internalType": "enum GuitarSwapLottery.Status",
              "name": "status",
              "type": "uint8"
            },
            {
              "internalType": "uint256",
              "name": "startTime",
              "type": "uint256"
            },
            {
              "internalType": "uint256",
              "name": "endTime",
              "type": "uint256"
            },
            {
              "internalType": "uint256",
              "name": "priceTicketInGuitar",
              "type": "uint256"
            },
            {
              "internalType": "uint256",
              "name": "discountDivisor",
              "type": "uint256"
            },
            {
              "internalType": "uint256[6]",
              "name": "rewardsBreakdown",
              "type": "uint256[6]"
            },
            {
              "internalType": "uint256",
              "name": "treasuryFee",
              "type": "uint256"
            },
            {
              "internalType": "uint256[6]",
              "name": "guitarPerBracket",
              "type": "uint256[6]"
            },
            {
              "internalType": "uint256[6]",
              "name": "countWinnersPerBracket",
              "type": "uint256[6]"
            },
            {
              "internalType": "uint256",
              "name": "firstTicketId",
              "type": "uint256"
            },
            {
              "internalType": "uint256",
              "name": "firstTicketIdNextLottery",
              "type": "uint256"
            },
            {
              "internalType": "uint256",
              "name": "amountCollectedInGuitar",
              "type": "uint256"
            },
            {
              "internalType": "uint32",
              "name": "finalNumber",
              "type": "uint32"
            }
          ],
          "internalType": "struct GuitarSwapLottery.Lottery",
          "name": "",
          "type": "tuple"
        }
      ],
      "stateMutability": "view",
      "type": "function"
    },
    {
      "inputs": [
        {
          "internalType": "uint256[]",
          "name": "_ticketIds",
          "type": "uint256[]"
        }
      ],
      "name": "viewNumbersAndStatusesForTicketIds",
      "outputs": [
        {
          "internalType": "uint32[]",
          "name": "",
          "type": "uint32[]"
        },
        {
          "internalType": "bool[]",
          "name": "",
          "type": "bool[]"
        }
      ],
      "stateMutability": "view",
      "type": "function"
    },
    {
      "inputs": [
        {
          "internalType": "uint256",
          "name": "_lotteryId",
          "type": "uint256"
        },
        {
          "internalType": "uint256",
          "name": "_ticketId",
          "type": "uint256"
        },
        {
          "internalType": "uint32",
          "name": "_bracket",
          "type": "uint32"
        }
      ],
      "name": "viewRewardsForTicketId",
      "outputs": [
        {
          "internalType": "uint256",
          "name": "",
          "type": "uint256"
        }
      ],
      "stateMutability": "view",
      "type": "function"
    },
    {
      "inputs": [
        {
          "internalType": "address",
          "name": "_user",
          "type": "address"
        },
        {
          "internalType": "uint256",
          "name": "_lotteryId",
          "type": "uint256"
        },
        {
          "internalType": "uint256",
          "name": "_cursor",
          "type": "uint256"
        },
        {
          "internalType": "uint256",
          "name": "_size",
          "type": "uint256"
        }
      ],
      "name": "viewUserInfoForLotteryId",
      "outputs": [
        {
          "internalType": "uint256[]",
          "name": "",
          "type": "uint256[]"
        },
        {
          "internalType": "uint32[]",
          "name": "",
          "type": "uint32[]"
        },
        {
          "internalType": "bool[]",
          "name": "",
          "type": "bool[]"
        },
        {
          "internalType": "uint256",
          "name": "",
          "type": "uint256"
        }
      ],
      "stateMutability": "view",
      "type": "function"
    }
  ],
  "bytecode": "0x608060405260646007556802b5e3af16b1880000600855652d79883d20006009553480156200002d57600080fd5b5060405162003e2738038062003e278339810160408190526200005091620001fc565b6001600090815562000061620001f8565b600180546001600160a01b0319166001600160a01b038316908117909155604051919250906000907f8be0079c531659141344cd1fd0a4f28419497f9722a3daafe3b4186f6b6457e0908290a350600b80546001600160a01b039384166001600160a01b0319918216178255600c805493909416921691909117909155600f6020527ff4803e074bd026baaf6ed2e288c9515f68c72fb7216eebdd7cae1718a53ec375805463ffffffff199081166001179091557f169f97de0d9a84d840042b17d3c6b9638b3d6fd9024c9eb0c7a306a17b49f88f805482169092179091557fa74ba3945261e09fde15ba3db55005b205e61eeb4ad811ac0faa2b315bffeead80548216606f1790557f45f76dafbbad695564362934e24d72eedc57f9fc1a65f39bca62176cc8296828805482166104571790557f367ccd2d0ac16bf7110a5dffe0801fdc9452a95a1adb7e1a12fe97dd3e9a4edd80548216612b6717905560056000527f6bda57492eba051cb4a12a1e19df47c9755d78165341d4009b1d09b3f361620480549091166201b20717905562000253565b3390565b600080604083850312156200020f578182fd5b82516200021c816200023a565b60208401519092506200022f816200023a565b809150509250929050565b6001600160a01b03811681146200025057600080fd5b50565b613bc480620002636000396000f3fe608060405234801561001057600080fd5b506004361061025c5760003560e01c806388303dbd11610145578063c4937ab9116100bd578063db19da0d1161008c578063dd8f81ff11610071578063dd8f81ff14610469578063f2b3c8091461047c578063f2fde38b146104845761025c565b8063db19da0d14610459578063dcbad90d146104615761025c565b8063c4937ab914610418578063c5f956af1461042b578063c914914f14610433578063da4ca039146104465761025c565b80639c38465311610114578063a18eb8ad116100f9578063a18eb8ad146103df578063b1829b82146103f2578063c38de539146104055761025c565b80639c384653146103c45780639d8ca531146103cc5761025c565b806388303dbd146103755780638da5cb5b146103885780638fc3539a1461039057806398359fa1146103b15761025c565b8063471aeab4116101d85780636be4097c116101a757806377a0ae0d1161018c57806377a0ae0d1461035d5780637cb583bd1461036557806380a061601461036d5761025c565b80636be4097c1461034d578063715018a6146103555761025c565b8063471aeab4146103175780636077745d1461032a578063686465b8146103325780636b8737881461033a5761025c565b80631fe86c6b1161022f5780632e530cae116102145780632e530cae146102e75780633d22baf4146102fa5780633f138d4b146103025761025c565b80631fe86c6b146102bf5780632423807a146102c75761025c565b806305531eeb1461026157806307fb5a9c1461028d578063127effb2146102a257806312a9769d146102b7575b600080fd5b61027461026f366004612b82565b610497565b6040516102849493929190612fba565b60405180910390f35b610295610726565b6040516102849190613b00565b6102aa61072c565b6040516102849190612f46565b61029561073b565b610295610741565b6102da6102d5366004612c23565b610747565b6040516102849190613a3c565b6102956102f5366004612ddc565b61089c565b6102aa61091d565b610315610310366004612b58565b61092c565b005b610315610325366004612d43565b6109e9565b610295610c0d565b610295610c13565b610315610348366004612c23565b610c19565b610295610c70565b610315610c76565b610295610d02565b610295610d08565b610295610d0e565b610315610383366004612cca565b610d14565b6102aa611155565b6103a361039e366004612bc7565b611164565b60405161028492919061302e565b6103156103bf366004612af8565b6112f3565b6102aa6114d6565b6103156103da366004612c23565b6114e5565b6103156103ed366004612d43565b61168f565b610315610400366004612d8f565b6116ef565b610315610413366004612d14565b611a69565b610295610426366004612d64565b611f8a565b6102aa611fd6565b610315610441366004612c53565b611fe5565b610315610454366004612b13565b612369565b61029561249b565b6102aa6124a2565b610295610477366004612e14565b6124b1565b6102956124f1565b610315610492366004612af8565b6124f7565b6001600160a01b0384166000908152601160209081526040808320868452909152812054606091829182919085908781038211156104d55787810391505b60608267ffffffffffffffff811180156104ee57600080fd5b50604051908082528060200260200182016040528015610518578160200160208202803683370190505b50905060608367ffffffffffffffff8111801561053457600080fd5b5060405190808252806020026020018201604052801561055e578160200160208202803683370190505b50905060608467ffffffffffffffff8111801561057a57600080fd5b506040519080825280602002602001820160405280156105a4578160200160208202803683370190505b50905060005b8581101561070f57601160008f6001600160a01b03166001600160a01b0316815260200190815260200160002060008e81526020019081526020016000208c8201815481106105f557fe5b906000526020600020015484828151811061060c57fe5b602002602001018181525050600e600085838151811061062857fe5b6020026020010151815260200190815260200160002060000160009054906101000a900463ffffffff1683828151811061065e57fe5b602002602001019063ffffffff16908163ffffffff168152505060006001600160a01b0316600e600086848151811061069357fe5b60209081029190910181015182528101919091526040016000205464010000000090046001600160a01b031614156106e85760018282815181106106d357fe5b91151560209283029190910190910152610707565b60008282815181106106f657fe5b911515602092830291909101909101525b6001016105aa565b50919c909b50909950919097019650945050505050565b611af481565b6003546001600160a01b031681565b600a5481565b60075481565b61074f6129ad565b6000828152600d60205260409081902081516101a081019092528054829060ff16600381111561077b57fe5b600381111561078657fe5b81526001820154602082015260028201546040808301919091526003830154606083015260048301546080830152805160c081019182905260a09092019190600584019060069082845b8154815260200190600101908083116107d0575050509183525050600b82015460208201526040805160c081018252910190600c830160068282826020028201915b8154815260200190600101908083116108125750505091835250506040805160c081019182905260209092019190601284019060069082845b81548152602001906001019080831161084b5750505091835250506018820154602082015260198201546040820152601a8201546060820152601b9091015463ffffffff1660809091015292915050565b600060036000858152600d602052604090205460ff1660038111156108bd57fe5b146108ca57506000610916565b6000848152600d6020526040902060190154831180156108fb57506000848152600d60205260409020601801548311155b1561090857506000610916565b610913848484612538565b90505b9392505050565b600b546001600160a01b031681565b61093461261d565b6001546001600160a01b0390811691161461096a5760405162461bcd60e51b81526004016109619061355e565b60405180910390fd5b600b546001600160a01b03838116911614156109985760405162461bcd60e51b8152600401610961906134ca565b6109ac6001600160a01b0383163383612621565b7f74545154aac348a3eac92596bd1971957ca94795f4e954ec5f613b55fab7812982826040516109dd929190612fa1565b60405180910390a15050565b6109f1611155565b6001600160a01b0316336001600160a01b03161480610a1a57506002546001600160a01b031633145b610a365760405162461bcd60e51b8152600401610961906136dd565b60016000838152600d602052604090205460ff166003811115610a5557fe5b14610a725760405162461bcd60e51b8152600401610961906136a6565b600b546040516370a0823160e01b81526000916001600160a01b0316906370a0823190610aa3903090600401612f46565b60206040518083038186803b158015610abb57600080fd5b505afa158015610acf573d6000803e3d6000fd5b505050506040513d601f19601f82011682018060405250810190610af39190612c3b565b600b54909150610b0e906001600160a01b03163330856126a9565b600b546040516370a0823160e01b8152610b9a9183916001600160a01b03909116906370a0823190610b44903090600401612f46565b60206040518083038186803b158015610b5c57600080fd5b505afa158015610b70573d6000803e3d6000fd5b505050506040513d601f19601f82011682018060405250810190610b949190612c3b565b906126d0565b6000848152600d60205260409020601a0154909250610bb990836126f8565b6000848152600d602052604090819020601a01919091555183907f1bbd659dd628a25f7ff2eabb69c74a56939c539728282275c1c9c1a2d3e3404990610c00908590613b00565b60405180910390a2505050565b60095481565b60065481565b610c2161261d565b6001546001600160a01b03908116911614610c4e5760405162461bcd60e51b81526004016109619061355e565b80610c6b5760405162461bcd60e51b815260040161096190613638565b600755565b60055481565b610c7e61261d565b6001546001600160a01b03908116911614610cab5760405162461bcd60e51b81526004016109619061355e565b6001546040516000916001600160a01b0316907f8be0079c531659141344cd1fd0a4f28419497f9722a3daafe3b4186f6b6457e0908390a36001805473ffffffffffffffffffffffffffffffffffffffff19169055565b60085481565b61012c81565b60055490565b610d1d3361271d565b15610d3a5760405162461bcd60e51b815260040161096190613191565b333214610d595760405162461bcd60e51b815260040161096190613493565b60026000541415610d7c5760405162461bcd60e51b8152600401610961906138f2565b600260005580610d9e5760405162461bcd60e51b8152600401610961906133ee565b600754811115610dc05760405162461bcd60e51b815260040161096190613960565b60016000848152600d602052604090205460ff166003811115610ddf57fe5b14610dfc5760405162461bcd60e51b8152600401610961906135ca565b6000838152600d60205260409020600201544210610e2c5760405162461bcd60e51b815260040161096190613593565b6000838152600d602052604081206004810154600390910154610e50919084612723565b600b546040516370a0823160e01b81529192506000916001600160a01b03909116906370a0823190610e86903090600401612f46565b60206040518083038186803b158015610e9e57600080fd5b505afa158015610eb2573d6000803e3d6000fd5b505050506040513d601f19601f82011682018060405250810190610ed69190612c3b565b600b54909150610ef1906001600160a01b03163330856126a9565b600b546040516370a0823160e01b8152610f279183916001600160a01b03909116906370a0823190610b44903090600401612f46565b6000868152600d60205260409020601a0154909250610f4690836126f8565b6000868152600d60205260408120601a01919091555b8381101561110c576000858583818110610f7257fe5b9050602002016020810190610f879190612e38565b9050620f42408163ffffffff1610158015610fab5750621e847f8163ffffffff1611155b610fc75760405162461bcd60e51b81526004016109619061345c565b60008781526010602090815260408083206001600a63ffffffff968716908106820187168652918452828520805482019055600b6064830601861685528285208054820190556103e88206606f018616855282852080548201905561271082066104570186168552828520805482019055620186a08206612b670186168552828520805482019055620f424082066201b207018616855282852080548201905533808652601185528386208d875285528386206006805482548086018455928952878920909201919091558451808601865293845283860191825280548752600e9095529290942090518154925163ffffffff199093169516949094177fffffffffffffffff0000000000000000000000000000000000000000ffffffff166401000000006001600160a01b0390921691909102179092558154810190915501610f5c565b50604051859033907fd7d247b583de1023852eef87b48f54354dbec771d01bc2cc49e96094efc322b990611141908790613b00565b60405180910390a350506001600055505050565b6001546001600160a01b031690565b60608082818167ffffffffffffffff8111801561118057600080fd5b506040519080825280602002602001820160405280156111aa578160200160208202803683370190505b50905060608267ffffffffffffffff811180156111c657600080fd5b506040519080825280602002602001820160405280156111f0578160200160208202803683370190505b50905060005b838110156112e457600e600089898481811061120e57fe5b90506020020135815260200190815260200160002060000160009054906101000a900463ffffffff1683828151811061124357fe5b63ffffffff909216602092830291909101909101526000600e818a8a8581811061126957fe5b602090810292909201358352508101919091526040016000205464010000000090046001600160a01b031614156112bd5760018282815181106112a857fe5b911515602092830291909101909101526112dc565b60008282815181106112cb57fe5b911515602092830291909101909101525b6001016111f6565b509093509150505b9250929050565b6112fb61261d565b6001546001600160a01b039081169116146113285760405162461bcd60e51b81526004016109619061355e565b60036005546000908152600d602052604090205460ff16600381111561134a57fe5b146113675760405162461bcd60e51b81526004016109619061374b565b806001600160a01b031663b37217a460055460065460405160200161138d929190612f38565b60408051601f198184030181529082905280516020909101207fffffffff0000000000000000000000000000000000000000000000000000000060e084901b1682526113db91600401613b00565b600060405180830381600087803b1580156113f557600080fd5b505af1158015611409573d6000803e3d6000fd5b50505050806001600160a01b031663a1c4f55a6040518163ffffffff1660e01b815260040160206040518083038186803b15801561144657600080fd5b505afa15801561145a573d6000803e3d6000fd5b505050506040513d601f19601f8201168201806040525081019061147e9190612e54565b50600c805473ffffffffffffffffffffffffffffffffffffffff19166001600160a01b0383169081179091556040517f383f8cb39dfa7c3fb901a460dd449ea924868f0a92ff03da64740fffa5f1de6290600090a250565b6002546001600160a01b031681565b6003546001600160a01b0316331461150f5760405162461bcd60e51b815260040161096190613997565b600260005414156115325760405162461bcd60e51b8152600401610961906138f2565b600260005560016000828152600d602052604090205460ff16600381111561155657fe5b146115735760405162461bcd60e51b8152600401610961906136a6565b6006546000828152600d6020908152604091829020601901839055600c5491516001600160a01b039092169263b37217a4926115b29286929101612f38565b60408051601f198184030181529082905280516020909101207fffffffff0000000000000000000000000000000000000000000000000000000060e084901b16825261160091600401613b00565b600060405180830381600087803b15801561161a57600080fd5b505af115801561162e573d6000803e3d6000fd5b5050506000828152600d602052604090819020805460ff1916600217905560065490518392507f3728e75294796694d59d2ffced9c394279baf7b9ebd2702db43f5f04bac679299161167f91613b00565b60405180910390a2506001600055565b61169761261d565b6001546001600160a01b039081169116146116c45760405162461bcd60e51b81526004016109619061355e565b808211156116e45760405162461bcd60e51b815260040161096190613601565b600991909155600855565b6003546001600160a01b031633146117195760405162461bcd60e51b815260040161096190613997565b6005541580611747575060036005546000908152600d602052604090205460ff16600381111561174557fe5b145b6117635760405162461bcd60e51b8152600401610961906131c8565b611af442860311801561177a57506205472c428603105b6117965760405162461bcd60e51b81526004016109619061366f565b60095484101580156117aa57506008548411155b6117c65760405162461bcd60e51b815260040161096190613714565b61012c8310156117e85760405162461bcd60e51b815260040161096190613782565b610bb881111561180a5760405162461bcd60e51b8152600401610961906130c6565b612710823560208401350160408401350160608401350160808401350160a0840135011461184a5760405162461bcd60e51b8152600401610961906133b7565b600580546001908101909155604080516101a0810182529182524260208301528181018790526060820186905260808201859052805160c081810190925260a0830191859060069083908390808284376000920182905250928452505060208083018590526040805160c080820183528482528184018590528183018590526060808301869052608080840187905260a080850188905285890194909452845180840186528781528087018890528086018890528083018890528082018890528085018890529188019190915260065490870181905291860191909152600a549085015260e09093018290526005548252600d90522081518154829060ff1916600183600381111561195857fe5b02179055506020820151600182015560408201516002820155606082015160038201556080820151600482015560a082015161199a9060058301906006612a2e565b5060c0820151600b82015560e08201516119ba90600c8301906006612a2e565b506101008201516119d19060128301906006612a2e565b5061012082015160188201556101408201516019820155610160820151601a82015561018090910151601b909101805463ffffffff191663ffffffff909216919091179055600554600654600a546040517f367e70f8c0e0c0a6504d92172bda155c02022d532fc85b5d66a9c49e31c8bc7792611a559242928b928b929091613b09565b60405180910390a250506000600a55505050565b6003546001600160a01b03163314611a935760405162461bcd60e51b815260040161096190613997565b60026000541415611ab65760405162461bcd60e51b8152600401610961906138f2565b60026000818155838152600d602052604090205460ff166003811115611ad857fe5b14611af55760405162461bcd60e51b815260040161096190613929565b600c60009054906101000a90046001600160a01b03166001600160a01b031663fbe5d9176040518163ffffffff1660e01b815260040160206040518083038186803b158015611b4357600080fd5b505afa158015611b57573d6000803e3d6000fd5b505050506040513d601f19601f82011682018060405250810190611b7b9190612c3b565b8214611b995760405162461bcd60e51b81526004016109619061385e565b600c54604080517fa1c4f55a00000000000000000000000000000000000000000000000000000000815290516000926001600160a01b03169163a1c4f55a916004808301926020929190829003018186803b158015611bf757600080fd5b505afa158015611c0b573d6000803e3d6000fd5b505050506040513d601f19601f82011682018060405250810190611c2f9190612e54565b9050600080611c86612710611c80611c68600d60008a8152602001908152602001600020600b01546127106126d090919063ffffffff16565b6000898152600d60205260409020601a015490612740565b9061277a565b90506000805b60068163ffffffff161015611eba576005819003600063ffffffff600183018116600a0a811690881681611cbc57fe5b06600f60008463ffffffff1663ffffffff16815260200190815260200160002060009054906101000a900463ffffffff1601905085601060008b815260200190815260200160002060008363ffffffff1663ffffffff1681526020019081526020016000205403600d60008b81526020019081526020016000206012018363ffffffff1660068110611d4a57fe5b0155600089815260106020908152604080832063ffffffff8516845290915290205486900315611e46576000898152600d6020526040902060050163ffffffff831660068110611d9657fe5b015415611e4157600089815260106020908152604080832063ffffffff8086168552908352818420548d8552600d9093529220612710929189900391889160050190861660068110611de457fe5b01540281611dee57fe5b0481611df657fe5b60008b8152600d6020526040902091900490600c0163ffffffff841660068110611e1c57fe5b0155600089815260106020908152604080832063ffffffff8516845290915290205495505b611eb0565b6000898152600d60205260408120600c0163ffffffff841660068110611e6857fe5b01556000898152600d60205260409020611ead90611ea69061271090611c8090899060050163ffffffff881660068110611e9e57fe5b015490612740565b85906126f8565b93505b5050600101611c8c565b506000868152600d60205260409020601b8101805463ffffffff871663ffffffff19909116179055805460ff191660031790558415611ef957600a5560005b6000868152600d60205260409020601a0154611f1c908390610b949084906126f8565b90508015611f4157600454600b54611f41916001600160a01b03918216911683612621565b6005547f98e31a6607b8b15b4d5b91de54f4c09ffe4c4cf162aa532c70b5213754e2e7038585604051611f75929190613b2c565b60405180910390a25050600160005550505050565b600061012c841015611fae5760405162461bcd60e51b815260040161096190613a05565b81611fcb5760405162461bcd60e51b815260040161096190613827565b610913848484612723565b6004546001600160a01b031681565b611fee3361271d565b1561200b5760405162461bcd60e51b815260040161096190613191565b33321461202a5760405162461bcd60e51b815260040161096190613493565b6002600054141561204d5760405162461bcd60e51b8152600401610961906138f2565b60026000558281146120715760405162461bcd60e51b8152600401610961906132a4565b8261208e5760405162461bcd60e51b81526004016109619061308f565b6007548311156120b05760405162461bcd60e51b815260040161096190613960565b60036000868152600d602052604090205460ff1660038111156120cf57fe5b146120ec5760405162461bcd60e51b815260040161096190613349565b6000805b8481101561230657600684848381811061210657fe5b905060200201602081019061211b9190612e38565b63ffffffff161061213e5760405162461bcd60e51b8152600401610961906131ff565b600086868381811061214c57fe5b90506020020135905080600d60008a8152602001908152602001600020601901541161218a5760405162461bcd60e51b81526004016109619061326d565b6000888152600d60205260409020601801548110156121bb5760405162461bcd60e51b8152600401610961906139ce565b6000818152600e602052604090205464010000000090046001600160a01b031633146121f95760405162461bcd60e51b815260040161096190613425565b6000818152600e6020526040812080547fffffffffffffffff0000000000000000000000000000000000000000ffffffff169055612258898388888781811061223e57fe5b90506020020160208101906122539190612e38565b612538565b9050806122775760405162461bcd60e51b815260040161096190613236565b85858481811061228357fe5b90506020020160208101906122989190612e38565b63ffffffff166005146122f0576122d389838888878181106122b657fe5b90506020020160208101906122cb9190612e38565b600101612538565b156122f05760405162461bcd60e51b8152600401610961906137f0565b6122fa84826126f8565b935050506001016120f0565b50600b5461231e906001600160a01b03163383612621565b604051869033907f0f5fca62da8fb5d95525b49e5eaa7b20bc6bd9e2f6b64b493442d1c0bd6ef486906123549085908990612f38565b60405180910390a35050600160005550505050565b61237161261d565b6001546001600160a01b0390811691161461239e5760405162461bcd60e51b81526004016109619061355e565b6001600160a01b0383166123c45760405162461bcd60e51b815260040161096190613380565b6001600160a01b0382166123ea5760405162461bcd60e51b815260040161096190613380565b6001600160a01b0381166124105760405162461bcd60e51b815260040161096190613380565b600380546001600160a01b0380861673ffffffffffffffffffffffffffffffffffffffff19928316179092556004805485841690831617905560028054928416929091169190911790556040517f3e945b7660001d46cfd5e729545f7f0b6c65bdee54066a91c7acad703f1b731e9061248e90859085908590612f5a565b60405180910390a1505050565b6205472c81565b600c546001600160a01b031681565b600082815260106020526040812081600a63ffffffff85160660010163ffffffff1663ffffffff1681526020019081526020016000205490505b92915050565b610bb881565b6124ff61261d565b6001546001600160a01b0390811691161461252c5760405162461bcd60e51b81526004016109619061355e565b612535816127ac565b50565b6000838152600d60209081526040808320601b0154858452600e90925282205463ffffffff91821691908116908390600186018116600a0a16828161257957fe5b63ffffffff8088166000908152600f602052604081205482169390920692909201925090600187018116600a0a8116908516816125b257fe5b63ffffffff8089166000908152600f60205260409020548116929091069190910191508281169082161415612610576000888152600d60205260409020600c0163ffffffff87166006811061260357fe5b0154945050505050610916565b6000945050505050610916565b3390565b6126a48363a9059cbb60e01b8484604051602401612640929190612fa1565b60408051601f198184030181529190526020810180517bffffffffffffffffffffffffffffffffffffffffffffffffffffffff167fffffffff000000000000000000000000000000000000000000000000000000009093169290921790915261283b565b505050565b6126ca846323b872dd60e01b85858560405160240161264093929190612f7d565b50505050565b6000828211156126f25760405162461bcd60e51b8152600401610961906132db565b50900390565b6000828201838110156109165760405162461bcd60e51b81526004016109619061315a565b3b151590565b600083828560010103838502028161273757fe5b04949350505050565b60008261274f575060006124eb565b8282028284828161275c57fe5b04146109165760405162461bcd60e51b815260040161096190613501565b600080821161279b5760405162461bcd60e51b815260040161096190613312565b8183816127a457fe5b049392505050565b6001600160a01b0381166127d25760405162461bcd60e51b8152600401610961906130fd565b6001546040516001600160a01b038084169216907f8be0079c531659141344cd1fd0a4f28419497f9722a3daafe3b4186f6b6457e090600090a36001805473ffffffffffffffffffffffffffffffffffffffff19166001600160a01b0392909216919091179055565b6060612890826040518060400160405280602081526020017f5361666545524332303a206c6f772d6c6576656c2063616c6c206661696c6564815250856001600160a01b03166128ca9092919063ffffffff16565b8051909150156126a457808060200190518101906128ae9190612c07565b6126a45760405162461bcd60e51b815260040161096190613895565b60606109138484600085856128de8561271d565b6128fa5760405162461bcd60e51b8152600401610961906137b9565b60006060866001600160a01b031685876040516129179190612f1c565b60006040518083038185875af1925050503d8060008114612954576040519150601f19603f3d011682016040523d82523d6000602084013e612959565b606091505b5091509150612969828286612974565b979650505050505050565b60608315612983575081610916565b8251156129935782518084602001fd5b8160405162461bcd60e51b8152600401610961919061305c565b604080516101a081019091528060008152602001600081526020016000815260200160008152602001600081526020016129e5612a6c565b8152602001600081526020016129f9612a6c565b8152602001612a06612a6c565b8152602001600081526020016000815260200160008152602001600063ffffffff1681525090565b8260068101928215612a5c579160200282015b82811115612a5c578251825591602001919060010190612a41565b50612a68929150612a8a565b5090565b6040518060c001604052806006906020820280368337509192915050565b5b80821115612a685760008155600101612a8b565b80356001600160a01b03811681146124eb57600080fd5b60008083601f840112612ac7578182fd5b50813567ffffffffffffffff811115612ade578182fd5b60208301915083602080830285010111156112ec57600080fd5b600060208284031215612b09578081fd5b6109168383612a9f565b600080600060608486031215612b27578182fd5b612b318585612a9f565b9250612b408560208601612a9f565b9150612b4f8560408601612a9f565b90509250925092565b60008060408385031215612b6a578182fd5b612b748484612a9f565b946020939093013593505050565b60008060008060808587031215612b97578081fd5b84356001600160a01b0381168114612bad578182fd5b966020860135965060408601359560600135945092505050565b60008060208385031215612bd9578182fd5b823567ffffffffffffffff811115612bef578283fd5b612bfb85828601612ab6565b90969095509350505050565b600060208284031215612c18578081fd5b815161091681613b6e565b600060208284031215612c34578081fd5b5035919050565b600060208284031215612c4c578081fd5b5051919050565b600080600080600060608688031215612c6a578081fd5b85359450602086013567ffffffffffffffff80821115612c88578283fd5b612c9489838a01612ab6565b90965094506040880135915080821115612cac578283fd5b50612cb988828901612ab6565b969995985093965092949392505050565b600080600060408486031215612cde578283fd5b83359250602084013567ffffffffffffffff811115612cfb578283fd5b612d0786828701612ab6565b9497909650939450505050565b60008060408385031215612d26578182fd5b823591506020830135612d3881613b6e565b809150509250929050565b60008060408385031215612d55578182fd5b50508035926020909101359150565b600080600060608486031215612d78578283fd5b505081359360208301359350604090920135919050565b60008060008060006101408688031215612da7578283fd5b853594506020860135935060408601359250610120860187811115612dca578182fd5b94979396509194606001933592915050565b600080600060608486031215612df0578081fd5b83359250602084013591506040840135612e0981613b7c565b809150509250925092565b60008060408385031215612e26578182fd5b823591506020830135612d3881613b7c565b600060208284031215612e49578081fd5b813561091681613b7c565b600060208284031215612e65578081fd5b815161091681613b7c565b6000815180845260208085019450808401835b83811015612ea1578151151587529582019590820190600101612e83565b509495945050505050565b8060005b60068110156126ca578151845260209384019390910190600101612eb0565b6000815180845260208085019450808401835b83811015612ea157815163ffffffff1687529582019590820190600101612ee2565b60048110612f0e57fe5b9052565b63ffffffff169052565b60008251612f2e818460208701613b42565b9190910192915050565b918252602082015260400190565b6001600160a01b0391909116815260200190565b6001600160a01b0393841681529183166020830152909116604082015260600190565b6001600160a01b039384168152919092166020820152604081019190915260600190565b6001600160a01b03929092168252602082015260400190565b6080808252855190820181905260009060209060a0840190828901845b82811015612ff357815184529284019290840190600101612fd7565b505050838103828501526130078188612ecf565b915050828103604084015261301c8186612e70565b91505082606083015295945050505050565b6000604082526130416040830185612ecf565b82810360208401526130538185612e70565b95945050505050565b600060208252825180602084015261307b816040850160208701613b42565b601f01601f19169190910160400192915050565b60208082526011908201527f4c656e677468206d757374206265203e30000000000000000000000000000000604082015260600190565b60208082526015908201527f54726561737572792066656520746f6f20686967680000000000000000000000604082015260600190565b60208082526026908201527f4f776e61626c653a206e6577206f776e657220697320746865207a65726f206160408201527f6464726573730000000000000000000000000000000000000000000000000000606082015260800190565b6020808252601b908201527f536166654d6174683a206164646974696f6e206f766572666c6f770000000000604082015260600190565b60208082526014908201527f436f6e7472616374206e6f7420616c6c6f776564000000000000000000000000604082015260600190565b60208082526019908201527f4e6f742074696d6520746f207374617274206c6f747465727900000000000000604082015260600190565b60208082526014908201527f427261636b6574206f7574206f662072616e6765000000000000000000000000604082015260600190565b60208082526019908201527f4e6f207072697a6520666f72207468697320627261636b657400000000000000604082015260600190565b60208082526011908201527f5469636b6574496420746f6f2068696768000000000000000000000000000000604082015260600190565b6020808252600f908201527f4e6f742073616d65206c656e6774680000000000000000000000000000000000604082015260600190565b6020808252601e908201527f536166654d6174683a207375627472616374696f6e206f766572666c6f770000604082015260600190565b6020808252601a908201527f536166654d6174683a206469766973696f6e206279207a65726f000000000000604082015260600190565b60208082526015908201527f4c6f7474657279206e6f7420636c61696d61626c650000000000000000000000604082015260600190565b60208082526016908201527f43616e6e6f74206265207a65726f206164647265737300000000000000000000604082015260600190565b60208082526018908201527f52657761726473206d75737420657175616c2031303030300000000000000000604082015260600190565b60208082526013908201527f4e6f207469636b65742073706563696669656400000000000000000000000000604082015260600190565b6020808252600d908201527f4e6f7420746865206f776e657200000000000000000000000000000000000000604082015260600190565b6020808252600d908201527f4f7574736964652072616e676500000000000000000000000000000000000000604082015260600190565b6020808252601a908201527f50726f787920636f6e7472616374206e6f7420616c6c6f776564000000000000604082015260600190565b60208082526013908201527f43616e6e6f742062652047555420746f6b656e00000000000000000000000000604082015260600190565b60208082526021908201527f536166654d6174683a206d756c7469706c69636174696f6e206f766572666c6f60408201527f7700000000000000000000000000000000000000000000000000000000000000606082015260800190565b6020808252818101527f4f776e61626c653a2063616c6c6572206973206e6f7420746865206f776e6572604082015260600190565b6020808252600f908201527f4c6f7474657279206973206f7665720000000000000000000000000000000000604082015260600190565b60208082526013908201527f4c6f7474657279206973206e6f74206f70656e00000000000000000000000000604082015260600190565b6020808252601b908201527f6d696e5072696365206d757374206265203c206d617850726963650000000000604082015260600190565b6020808252600b908201527f4d757374206265203e2030000000000000000000000000000000000000000000604082015260600190565b6020808252601f908201527f4c6f7474657279206c656e677468206f757473696465206f662072616e676500604082015260600190565b60208082526010908201527f4c6f7474657279206e6f74206f70656e00000000000000000000000000000000604082015260600190565b60208082526015908201527f4e6f74206f776e6572206f7220696e6a6563746f720000000000000000000000604082015260600190565b60208082526011908201527f4f757473696465206f66206c696d697473000000000000000000000000000000604082015260600190565b60208082526018908201527f4c6f7474657279206e6f7420696e20636c61696d61626c650000000000000000604082015260600190565b60208082526018908201527f446973636f756e742064697669736f7220746f6f206c6f770000000000000000604082015260600190565b6020808252601d908201527f416464726573733a2063616c6c20746f206e6f6e2d636f6e7472616374000000604082015260600190565b60208082526016908201527f427261636b6574206d7573742062652068696768657200000000000000000000604082015260600190565b6020808252601d908201527f4e756d626572206f66207469636b657473206d757374206265203e2030000000604082015260600190565b60208082526011908201527f4e756d62657273206e6f7420647261776e000000000000000000000000000000604082015260600190565b6020808252602a908201527f5361666545524332303a204552433230206f7065726174696f6e20646964206e60408201527f6f74207375636365656400000000000000000000000000000000000000000000606082015260800190565b6020808252601f908201527f5265656e7472616e637947756172643a207265656e7472616e742063616c6c00604082015260600190565b60208082526011908201527f4c6f7474657279206e6f7420636c6f7365000000000000000000000000000000604082015260600190565b60208082526010908201527f546f6f206d616e79207469636b65747300000000000000000000000000000000604082015260600190565b6020808252600c908201527f4e6f74206f70657261746f720000000000000000000000000000000000000000604082015260600190565b60208082526010908201527f5469636b6574496420746f6f206c6f7700000000000000000000000000000000604082015260600190565b6020808252601f908201527f4d757374206265203e3d204d494e5f444953434f554e545f44495649534f5200604082015260600190565b600061038082019050613a50828451612f04565b6020830151602083015260408301516040830152606083015160608301526080830151608083015260a0830151613a8a60a0840182612eac565b5060c0830151610160818185015260e08501519150610180613aae81860184612eac565b6101008601519250613ac4610240860184612eac565b610120860151610300860152610140860151610320860152908501516103408501528401519050613af9610360840182612f12565b5092915050565b90815260200190565b948552602085019390935260408401919091526060830152608082015260a00190565b63ffffffff929092168252602082015260400190565b60005b83811015613b5d578181015183820152602001613b45565b838111156126ca5750506000910152565b801515811461253557600080fd5b63ffffffff8116811461253557600080fdfea2646970667358221220131ffc012d36b21c9b290055ce0c8451e62501fb65757084a915f2e93e901e9964736f6c634300060c0033",
  "immutableReferences": {},
  "source": "\n// File: contracts/GuitarSwapLottery.sol\n\npragma solidity 0.6.12;\npragma experimental ABIEncoderV2;\nimport \"@openzeppelin/contracts/utils/ReentrancyGuard.sol\";\nimport '@pancakeswap/pancake-swap-lib/contracts/access/Ownable.sol';\nimport \"./libs/IGuitarSwapLottery.sol\";\nimport \"./libs/IRandomNumberGenerator.sol\";\nimport \"@openzeppelin/contracts/token/ERC20/SafeERC20.sol\";\n/** @title GuitarSwap Lottery.\n * @notice It is a contract for a lottery system using\n * randomness provided externally.\n */\ncontract GuitarSwapLottery is ReentrancyGuard, IGuitarSwapLottery, Ownable {\n    using SafeERC20 for IERC20;\n    using SafeMath for uint256;\n\n    address public injectorAddress;\n    address public operatorAddress;\n    address public treasuryAddress;\n\n    uint256 public currentLotteryId;\n    uint256 public currentTicketId;\n\n    uint256 public maxNumberTicketsPerBuyOrClaim = 100;\n\n    uint256 public maxPriceTicketInGuitar = 50 ether;\n    uint256 public minPriceTicketInGuitar = 0.00005 ether;\n\n    uint256 public pendingInjectionNextLottery;\n\n    uint256 public constant MIN_DISCOUNT_DIVISOR = 300;\n    uint256 public constant MIN_LENGTH_LOTTERY = 2 hours - 5 minutes; // 2 hours\n    uint256 public constant MAX_LENGTH_LOTTERY = 4 days + 5 minutes; // 4 days\n    uint256 public constant MAX_TREASURY_FEE = 3000; // 30%\n\n    IERC20 public guitarToken;\n    IRandomNumberGenerator public randomGenerator;\n\n    enum Status {\n        Pending,\n        Open,\n        Close,\n        Claimable\n    }\n\n    struct Lottery {\n        Status status;\n        uint256 startTime;\n        uint256 endTime;\n        uint256 priceTicketInGuitar;\n        uint256 discountDivisor;\n        uint256[6] rewardsBreakdown; // 0: 1 matching number // 5: 6 matching numbers\n        uint256 treasuryFee; // 500: 5% // 200: 2% // 50: 0.5%\n        uint256[6] guitarPerBracket;\n        uint256[6] countWinnersPerBracket;\n        uint256 firstTicketId;\n        uint256 firstTicketIdNextLottery;\n        uint256 amountCollectedInGuitar;\n        uint32 finalNumber;\n    }\n\n    struct Ticket {\n        uint32 number;\n        address owner;\n    }\n\n    // Mapping are cheaper than arrays\n    mapping(uint256 => Lottery) private _lotteries;\n    mapping(uint256 => Ticket) private _tickets;\n\n    // Bracket calculator is used for verifying claims for ticket prizes\n    mapping(uint32 => uint32) private _bracketCalculator;\n\n    // Keeps track of number of ticket per unique combination for each lotteryId\n    mapping(uint256 => mapping(uint32 => uint256))\n        private _numberTicketsPerLotteryId;\n\n    // Keep track of user ticket ids for a given lotteryId\n    mapping(address => mapping(uint256 => uint256[]))\n        private _userTicketIdsPerLotteryId;\n\n    modifier notContract() {\n        require(!_isContract(msg.sender), \"Contract not allowed\");\n        require(msg.sender == tx.origin, \"Proxy contract not allowed\");\n        _;\n    }\n\n    modifier onlyOperator() {\n        require(msg.sender == operatorAddress, \"Not operator\");\n        _;\n    }\n\n    modifier onlyOwnerOrInjector() {\n        require(\n            (msg.sender == owner()) || (msg.sender == injectorAddress),\n            \"Not owner or injector\"\n        );\n        _;\n    }\n\n    event AdminTokenRecovery(address token, uint256 amount);\n    event LotteryClose(\n        uint256 indexed lotteryId,\n        uint256 firstTicketIdNextLottery\n    );\n    event LotteryInjection(uint256 indexed lotteryId, uint256 injectedAmount);\n    event LotteryOpen(\n        uint256 indexed lotteryId,\n        uint256 startTime,\n        uint256 endTime,\n        uint256 priceTicketInGuitar,\n        uint256 firstTicketId,\n        uint256 injectedAmount\n    );\n    event LotteryNumberDrawn(\n        uint256 indexed lotteryId,\n        uint256 finalNumber,\n        uint256 countWinningTickets\n    );\n    event NewOperatorAndTreasuryAndInjectorAddresses(\n        address operator,\n        address treasury,\n        address injector\n    );\n    event NewRandomGenerator(address indexed randomGenerator);\n    event TicketsPurchase(\n        address indexed buyer,\n        uint256 indexed lotteryId,\n        uint256 numberTickets\n    );\n    event TicketsClaim(\n        address indexed claimer,\n        uint256 amount,\n        uint256 indexed lotteryId,\n        uint256 numberTickets\n    );\n\n    /**\n     * @notice Constructor\n     * @dev RandomNumberGenerator must be deployed prior to this contract\n     * @param _guitarTokenAddress: address of the GUT token\n     * @param _randomGeneratorAddress: address of the RandomGenerator contract used to work with ChainLink VRF\n     */\n    constructor(address _guitarTokenAddress, address _randomGeneratorAddress) public {\n        guitarToken = IERC20(_guitarTokenAddress);\n        randomGenerator = IRandomNumberGenerator(_randomGeneratorAddress);\n\n        // Initializes a mapping\n        _bracketCalculator[0] = 1;\n        _bracketCalculator[1] = 11;\n        _bracketCalculator[2] = 111;\n        _bracketCalculator[3] = 1111;\n        _bracketCalculator[4] = 11111;\n        _bracketCalculator[5] = 111111;\n    }\n\n    /**\n     * @notice Buy tickets for the current lottery\n     * @param _lotteryId: lotteryId\n     * @param _ticketNumbers: array of ticket numbers between 1,000,000 and 1,999,999\n     * @dev Callable by users\n     */\n    function buyTickets(uint256 _lotteryId, uint32[] calldata _ticketNumbers)\n        external\n        override\n        notContract\n        nonReentrant\n    {\n        require(_ticketNumbers.length != 0, \"No ticket specified\");\n        require(\n            _ticketNumbers.length <= maxNumberTicketsPerBuyOrClaim,\n            \"Too many tickets\"\n        );\n\n        require(\n            _lotteries[_lotteryId].status == Status.Open,\n            \"Lottery is not open\"\n        );\n        require(\n            block.timestamp < _lotteries[_lotteryId].endTime,\n            \"Lottery is over\"\n        );\n\n        // Calculate number of GUT to this contract\n        uint256 amountGuitarToTransfer = _calculateTotalPriceForBulkTickets(\n            _lotteries[_lotteryId].discountDivisor,\n            _lotteries[_lotteryId].priceTicketInGuitar,\n            _ticketNumbers.length\n        );\n\n        // Transfer guitar tokens to this contract\n        uint256 balanceBefore = guitarToken.balanceOf(address(this));\n        guitarToken.safeTransferFrom(\n            address(msg.sender),\n            address(this),\n            amountGuitarToTransfer\n        );\n        amountGuitarToTransfer = guitarToken.balanceOf(address(this)).sub(\n            balanceBefore\n        );\n\n        // Increment the total amount collected for the lottery round\n        _lotteries[_lotteryId].amountCollectedInGuitar = _lotteries[_lotteryId]\n            .amountCollectedInGuitar\n            .add(amountGuitarToTransfer);\n\n        for (uint256 i = 0; i < _ticketNumbers.length; i++) {\n            uint32 thisTicketNumber = _ticketNumbers[i];\n\n            require(\n                (thisTicketNumber >= 1000000) && (thisTicketNumber <= 1999999),\n                \"Outside range\"\n            );\n\n            _numberTicketsPerLotteryId[_lotteryId][\n                1 + (thisTicketNumber % 10)\n            ]++;\n            _numberTicketsPerLotteryId[_lotteryId][\n                11 + (thisTicketNumber % 100)\n            ]++;\n            _numberTicketsPerLotteryId[_lotteryId][\n                111 + (thisTicketNumber % 1000)\n            ]++;\n            _numberTicketsPerLotteryId[_lotteryId][\n                1111 + (thisTicketNumber % 10000)\n            ]++;\n            _numberTicketsPerLotteryId[_lotteryId][\n                11111 + (thisTicketNumber % 100000)\n            ]++;\n            _numberTicketsPerLotteryId[_lotteryId][\n                111111 + (thisTicketNumber % 1000000)\n            ]++;\n\n            _userTicketIdsPerLotteryId[msg.sender][_lotteryId].push(\n                currentTicketId\n            );\n\n            _tickets[currentTicketId] = Ticket({\n                number: thisTicketNumber,\n                owner: msg.sender\n            });\n\n            // Increase lottery ticket number\n            currentTicketId++;\n        }\n\n        emit TicketsPurchase(msg.sender, _lotteryId, _ticketNumbers.length);\n    }\n    function getNumberTicketsPerLotteryId(uint256 lotteryId, uint32 ticketNumber) public view returns(uint256){\n        return _numberTicketsPerLotteryId[lotteryId][1 + (ticketNumber % 10)];\n    }\n    /**\n     * @notice Claim a set of winning tickets for a lottery\n     * @param _lotteryId: lottery id\n     * @param _ticketIds: array of ticket ids\n     * @param _brackets: array of brackets for the ticket ids\n     * @dev Callable by users only, not contract!\n     */\n    function claimTickets(\n        uint256 _lotteryId,\n        uint256[] calldata _ticketIds,\n        uint32[] calldata _brackets\n    ) external override notContract nonReentrant {\n        require(_ticketIds.length == _brackets.length, \"Not same length\");\n        require(_ticketIds.length != 0, \"Length must be >0\");\n        require(\n            _ticketIds.length <= maxNumberTicketsPerBuyOrClaim,\n            \"Too many tickets\"\n        );\n        require(\n            _lotteries[_lotteryId].status == Status.Claimable,\n            \"Lottery not claimable\"\n        );\n\n        // Initializes the rewardInGuitarToTransfer\n        uint256 rewardInGuitarToTransfer;\n\n        for (uint256 i = 0; i < _ticketIds.length; i++) {\n            require(_brackets[i] < 6, \"Bracket out of range\"); // Must be between 0 and 5\n\n            uint256 thisTicketId = _ticketIds[i];\n\n            require(\n                _lotteries[_lotteryId].firstTicketIdNextLottery > thisTicketId,\n                \"TicketId too high\"\n            );\n            require(\n                _lotteries[_lotteryId].firstTicketId <= thisTicketId,\n                \"TicketId too low\"\n            );\n            require(\n                msg.sender == _tickets[thisTicketId].owner,\n                \"Not the owner\"\n            );\n\n            // Update the lottery ticket owner to 0x address\n            _tickets[thisTicketId].owner = address(0);\n\n            uint256 rewardForTicketId = _calculateRewardsForTicketId(\n                _lotteryId,\n                thisTicketId,\n                _brackets[i]\n            );\n\n            // Check user is claiming the correct bracket\n            require(rewardForTicketId != 0, \"No prize for this bracket\");\n\n            if (_brackets[i] != 5) {\n                require(\n                    _calculateRewardsForTicketId(\n                        _lotteryId,\n                        thisTicketId,\n                        _brackets[i] + 1\n                    ) == 0,\n                    \"Bracket must be higher\"\n                );\n            }\n\n            // Increment the reward to transfer\n            rewardInGuitarToTransfer = rewardInGuitarToTransfer.add(\n                rewardForTicketId\n            );\n        }\n\n        // Transfer money to msg.sender\n        guitarToken.safeTransfer(msg.sender, rewardInGuitarToTransfer);\n\n        emit TicketsClaim(\n            msg.sender,\n            rewardInGuitarToTransfer,\n            _lotteryId,\n            _ticketIds.length\n        );\n    }\n\n    /**\n     * @notice Close lottery\n     * @param _lotteryId: lottery id\n     * @dev Callable by operator\n     */\n    function closeLottery(uint256 _lotteryId)\n        external\n        override\n        onlyOperator\n        nonReentrant\n    {\n        require(\n            _lotteries[_lotteryId].status == Status.Open,\n            \"Lottery not open\"\n        );\n        // require(\n        //     block.timestamp > _lotteries[_lotteryId].endTime,\n        //     \"Lottery not over\"\n        // );\n        _lotteries[_lotteryId].firstTicketIdNextLottery = currentTicketId;\n\n        // Request a random number from the generator based on a seed\n        randomGenerator.getRandomNumber(\n            uint256(keccak256(abi.encodePacked(_lotteryId, currentTicketId)))\n        );\n\n        _lotteries[_lotteryId].status = Status.Close;\n\n        emit LotteryClose(_lotteryId, currentTicketId);\n    }\n\n    /**\n     * @notice Draw the final number, calculate reward in GUT per group, and make lottery claimable\n     * @param _lotteryId: lottery id\n     * @param _autoInjection: reinjects funds into next lottery (vs. withdrawing all)\n     * @dev Callable by operator\n     */\n    function drawFinalNumberAndMakeLotteryClaimable(\n        uint256 _lotteryId,\n        bool _autoInjection\n    ) external override onlyOperator nonReentrant {\n        require(\n            _lotteries[_lotteryId].status == Status.Close,\n            \"Lottery not close\"\n        );\n        require(\n            _lotteryId == randomGenerator.viewLatestLotteryId(),\n            \"Numbers not drawn\"\n        );\n\n        // Calculate the finalNumber based on the randomResult generated by ChainLink's fallback\n        uint32 finalNumber = randomGenerator.viewRandomResult();\n\n        // Initialize a number to count addresses in the previous bracket\n        uint256 numberAddressesInPreviousBracket;\n\n        // Calculate the amount to share post-treasury fee\n        uint256 amountToShareToWinners = _lotteries[_lotteryId]\n            .amountCollectedInGuitar\n            .mul(uint256(10000).sub(_lotteries[_lotteryId].treasuryFee))\n            .div(10000);\n\n        // Initializes the amount to withdraw to treasury\n        uint256 amountToWithdrawToTreasury;\n\n        // Calculate prizes in GUT for each bracket by starting from the highest one\n        for (uint32 i = 0; i < 6; i++) {\n            uint32 j = 5 - i;\n            uint32 transformedWinningNumber = _bracketCalculator[j] +\n                (finalNumber % (uint32(10)**(j + 1)));\n\n            _lotteries[_lotteryId].countWinnersPerBracket[j] =\n                _numberTicketsPerLotteryId[_lotteryId][\n                    transformedWinningNumber\n                ] -\n                numberAddressesInPreviousBracket;\n\n            // A. If number of users for this _bracket number is superior to 0\n            if (\n                (_numberTicketsPerLotteryId[_lotteryId][\n                    transformedWinningNumber\n                ] - numberAddressesInPreviousBracket) != 0\n            ) {\n                // B. If rewards at this bracket are > 0, calculate, else, report the numberAddresses from previous bracket\n                if (_lotteries[_lotteryId].rewardsBreakdown[j] != 0) {\n                    _lotteries[_lotteryId].guitarPerBracket[j] =\n                        ((_lotteries[_lotteryId].rewardsBreakdown[j] *\n                            amountToShareToWinners) /\n                            (_numberTicketsPerLotteryId[_lotteryId][\n                                transformedWinningNumber\n                            ] - numberAddressesInPreviousBracket)) /\n                        10000;\n\n                    // Update numberAddressesInPreviousBracket\n                    numberAddressesInPreviousBracket = _numberTicketsPerLotteryId[\n                        _lotteryId\n                    ][transformedWinningNumber];\n                }\n                // A. No GUT to distribute, they are added to the amount to withdraw to treasury address\n            } else {\n                _lotteries[_lotteryId].guitarPerBracket[j] = 0;\n\n                amountToWithdrawToTreasury = amountToWithdrawToTreasury.add(\n                    _lotteries[_lotteryId]\n                        .rewardsBreakdown[j]\n                        .mul(amountToShareToWinners)\n                        .div(10000)\n                );\n            }\n        }\n\n        // Update internal statuses for lottery\n        _lotteries[_lotteryId].finalNumber = finalNumber;\n        _lotteries[_lotteryId].status = Status.Claimable;\n\n        if (_autoInjection) {\n            pendingInjectionNextLottery = amountToWithdrawToTreasury;\n            amountToWithdrawToTreasury = 0;\n        }\n\n        amountToWithdrawToTreasury = amountToWithdrawToTreasury\n            .add(_lotteries[_lotteryId].amountCollectedInGuitar)\n            .sub(amountToShareToWinners);\n\n        // Transfer GUT to treasury address\n        if (amountToWithdrawToTreasury > 0) {\n            guitarToken.safeTransfer(\n                treasuryAddress,\n                amountToWithdrawToTreasury\n            );\n        }\n\n        emit LotteryNumberDrawn(\n            currentLotteryId,\n            finalNumber,\n            numberAddressesInPreviousBracket\n        );\n    }\n\n    /**\n     * @notice Change the random generator\n     * @dev The calls to functions are used to verify the new generator implements them properly.\n     * It is necessary to wait for the VRF response before starting a round.\n     * Callable only by the contract owner\n     * @param _randomGeneratorAddress: address of the random generator\n     */\n    function changeRandomGenerator(address _randomGeneratorAddress)\n        external\n        onlyOwner\n    {\n        require(\n            _lotteries[currentLotteryId].status == Status.Claimable,\n            \"Lottery not in claimable\"\n        );\n\n        // Request a random number from the generator based on a seed\n        IRandomNumberGenerator(_randomGeneratorAddress).getRandomNumber(\n            uint256(\n                keccak256(abi.encodePacked(currentLotteryId, currentTicketId))\n            )\n        );\n\n        // Calculate the finalNumber based on the randomResult generated by ChainLink's fallback\n        IRandomNumberGenerator(_randomGeneratorAddress).viewRandomResult();\n\n        randomGenerator = IRandomNumberGenerator(_randomGeneratorAddress);\n\n        emit NewRandomGenerator(_randomGeneratorAddress);\n    }\n\n    /**\n     * @notice Inject funds\n     * @param _lotteryId: lottery id\n     * @param _amount: amount to inject in GUT token\n     * @dev Callable by owner or injector address\n     */\n    function injectFunds(uint256 _lotteryId, uint256 _amount)\n        external\n        override\n        onlyOwnerOrInjector\n    {\n        require(\n            _lotteries[_lotteryId].status == Status.Open,\n            \"Lottery not open\"\n        );\n\n        uint256 balanceBefore = guitarToken.balanceOf(address(this));\n        guitarToken.safeTransferFrom(\n            address(msg.sender),\n            address(this),\n            _amount\n        );\n        _amount = guitarToken.balanceOf(address(this)).sub(balanceBefore);\n\n        _lotteries[_lotteryId].amountCollectedInGuitar = _lotteries[_lotteryId]\n            .amountCollectedInGuitar\n            .add(_amount);\n\n        emit LotteryInjection(_lotteryId, _amount);\n    }\n\n    /**\n     * @notice Start the lottery\n     * @dev Callable by operator\n     * @param _endTime: endTime of the lottery\n     * @param _priceTicketInGuitar: price of a ticket in GUT\n     * @param _discountDivisor: the divisor to calculate the discount magnitude for bulks\n     * @param _rewardsBreakdown: breakdown of rewards per bracket (must sum to 10,000)\n     * @param _treasuryFee: treasury fee (10,000 = 100%, 100 = 1%)\n     */\n    function startLottery(\n        uint256 _endTime,\n        uint256 _priceTicketInGuitar,\n        uint256 _discountDivisor,\n        uint256[6] calldata _rewardsBreakdown,\n        uint256 _treasuryFee\n    ) external override onlyOperator {\n        require(\n            (currentLotteryId == 0) ||\n                (_lotteries[currentLotteryId].status == Status.Claimable),\n            \"Not time to start lottery\"\n        );\n\n        require(\n            ((_endTime - block.timestamp) > MIN_LENGTH_LOTTERY) &&\n                ((_endTime - block.timestamp) < MAX_LENGTH_LOTTERY),\n            \"Lottery length outside of range\"\n        );\n\n        require(\n            (_priceTicketInGuitar >= minPriceTicketInGuitar) &&\n                (_priceTicketInGuitar <= maxPriceTicketInGuitar),\n            \"Outside of limits\"\n        );\n\n        require(\n            _discountDivisor >= MIN_DISCOUNT_DIVISOR,\n            \"Discount divisor too low\"\n        );\n        require(_treasuryFee <= MAX_TREASURY_FEE, \"Treasury fee too high\");\n\n        require(\n            (_rewardsBreakdown[0] +\n                _rewardsBreakdown[1] +\n                _rewardsBreakdown[2] +\n                _rewardsBreakdown[3] +\n                _rewardsBreakdown[4] +\n                _rewardsBreakdown[5]) == 10000,\n            \"Rewards must equal 10000\"\n        );\n\n        currentLotteryId++;\n\n        _lotteries[currentLotteryId] = Lottery({\n            status: Status.Open,\n            startTime: block.timestamp,\n            endTime: _endTime,\n            priceTicketInGuitar: _priceTicketInGuitar,\n            discountDivisor: _discountDivisor,\n            rewardsBreakdown: _rewardsBreakdown,\n            treasuryFee: _treasuryFee,\n            guitarPerBracket: [\n                uint256(0),\n                uint256(0),\n                uint256(0),\n                uint256(0),\n                uint256(0),\n                uint256(0)\n            ],\n            countWinnersPerBracket: [\n                uint256(0),\n                uint256(0),\n                uint256(0),\n                uint256(0),\n                uint256(0),\n                uint256(0)\n            ],\n            firstTicketId: currentTicketId,\n            firstTicketIdNextLottery: currentTicketId,\n            amountCollectedInGuitar: pendingInjectionNextLottery,\n            finalNumber: 0\n        });\n\n        emit LotteryOpen(\n            currentLotteryId,\n            block.timestamp,\n            _endTime,\n            _priceTicketInGuitar,\n            currentTicketId,\n            pendingInjectionNextLottery\n        );\n\n        pendingInjectionNextLottery = 0;\n    }\n\n    /**\n     * @notice It allows the admin to recover wrong tokens sent to the contract\n     * @param _tokenAddress: the address of the token to withdraw\n     * @param _tokenAmount: the number of token amount to withdraw\n     * @dev Only callable by owner.\n     */\n    function recoverWrongTokens(address _tokenAddress, uint256 _tokenAmount)\n        external\n        onlyOwner\n    {\n        require(_tokenAddress != address(guitarToken), \"Cannot be GUT token\");\n\n        IERC20(_tokenAddress).safeTransfer(address(msg.sender), _tokenAmount);\n\n        emit AdminTokenRecovery(_tokenAddress, _tokenAmount);\n    }\n\n    /**\n     * @notice Set GUT price ticket upper/lower limit\n     * @dev Only callable by owner\n     * @param _minPriceTicketInGuitar: minimum price of a ticket in GUT\n     * @param _maxPriceTicketInGuitar: maximum price of a ticket in GUT\n     */\n    function setMinAndMaxTicketPriceInGuitar(\n        uint256 _minPriceTicketInGuitar,\n        uint256 _maxPriceTicketInGuitar\n    ) external onlyOwner {\n        require(\n            _minPriceTicketInGuitar <= _maxPriceTicketInGuitar,\n            \"minPrice must be < maxPrice\"\n        );\n\n        minPriceTicketInGuitar = _minPriceTicketInGuitar;\n        maxPriceTicketInGuitar = _maxPriceTicketInGuitar;\n    }\n\n    /**\n     * @notice Set max number of tickets\n     * @dev Only callable by owner\n     */\n    function setMaxNumberTicketsPerBuy(uint256 _maxNumberTicketsPerBuy)\n        external\n        onlyOwner\n    {\n        require(_maxNumberTicketsPerBuy != 0, \"Must be > 0\");\n        maxNumberTicketsPerBuyOrClaim = _maxNumberTicketsPerBuy;\n    }\n\n    /**\n     * @notice Set operator, treasury, and injector addresses\n     * @dev Only callable by owner\n     * @param _operatorAddress: address of the operator\n     * @param _treasuryAddress: address of the treasury\n     * @param _injectorAddress: address of the injector\n     */\n    function setOperatorAndTreasuryAndInjectorAddresses(\n        address _operatorAddress,\n        address _treasuryAddress,\n        address _injectorAddress\n    ) external onlyOwner {\n        require(_operatorAddress != address(0), \"Cannot be zero address\");\n        require(_treasuryAddress != address(0), \"Cannot be zero address\");\n        require(_injectorAddress != address(0), \"Cannot be zero address\");\n\n        operatorAddress = _operatorAddress;\n        treasuryAddress = _treasuryAddress;\n        injectorAddress = _injectorAddress;\n\n        emit NewOperatorAndTreasuryAndInjectorAddresses(\n            _operatorAddress,\n            _treasuryAddress,\n            _injectorAddress\n        );\n    }\n\n    /**\n     * @notice Calculate price of a set of tickets\n     * @param _discountDivisor: divisor for the discount\n     * @param _priceTicket price of a ticket (in GUT)\n     * @param _numberTickets number of tickets to buy\n     */\n    function calculateTotalPriceForBulkTickets(\n        uint256 _discountDivisor,\n        uint256 _priceTicket,\n        uint256 _numberTickets\n    ) external pure returns (uint256) {\n        require(\n            _discountDivisor >= MIN_DISCOUNT_DIVISOR,\n            \"Must be >= MIN_DISCOUNT_DIVISOR\"\n        );\n        require(_numberTickets != 0, \"Number of tickets must be > 0\");\n\n        return\n            _calculateTotalPriceForBulkTickets(\n                _discountDivisor,\n                _priceTicket,\n                _numberTickets\n            );\n    }\n\n    /**\n     * @notice View current lottery id\n     */\n    function viewCurrentLotteryId() external override returns (uint256) {\n        return currentLotteryId;\n    }\n\n    /**\n     * @notice View lottery information\n     * @param _lotteryId: lottery id\n     */\n    function viewLottery(uint256 _lotteryId)\n        external\n        view\n        returns (Lottery memory)\n    {\n        return _lotteries[_lotteryId];\n    }\n\n    /**\n     * @notice View ticker statuses and numbers for an array of ticket ids\n     * @param _ticketIds: array of _ticketId\n     */\n    function viewNumbersAndStatusesForTicketIds(uint256[] calldata _ticketIds)\n        external\n        view\n        returns (uint32[] memory, bool[] memory)\n    {\n        uint256 length = _ticketIds.length;\n        uint32[] memory ticketNumbers = new uint32[](length);\n        bool[] memory ticketStatuses = new bool[](length);\n\n        for (uint256 i = 0; i < length; i++) {\n            ticketNumbers[i] = _tickets[_ticketIds[i]].number;\n            if (_tickets[_ticketIds[i]].owner == address(0)) {\n                ticketStatuses[i] = true;\n            } else {\n                ticketStatuses[i] = false;\n            }\n        }\n\n        return (ticketNumbers, ticketStatuses);\n    }\n\n    /**\n     * @notice View rewards for a given ticket, providing a bracket, and lottery id\n     * @dev Computations are mostly offchain. This is used to verify a ticket!\n     * @param _lotteryId: lottery id\n     * @param _ticketId: ticket id\n     * @param _bracket: bracket for the ticketId to verify the claim and calculate rewards\n     */\n    function viewRewardsForTicketId(\n        uint256 _lotteryId,\n        uint256 _ticketId,\n        uint32 _bracket\n    ) external view returns (uint256) {\n        // Check lottery is in claimable status\n        if (_lotteries[_lotteryId].status != Status.Claimable) {\n            return 0;\n        }\n\n        // Check ticketId is within range\n        if (\n            (_lotteries[_lotteryId].firstTicketIdNextLottery < _ticketId) &&\n            (_lotteries[_lotteryId].firstTicketId >= _ticketId)\n        ) {\n            return 0;\n        }\n\n        return _calculateRewardsForTicketId(_lotteryId, _ticketId, _bracket);\n    }\n\n    /**\n     * @notice View user ticket ids, numbers, and statuses of user for a given lottery\n     * @param _user: user address\n     * @param _lotteryId: lottery id\n     * @param _cursor: cursor to start where to retrieve the tickets\n     * @param _size: the number of tickets to retrieve\n     */\n    function viewUserInfoForLotteryId(\n        address _user,\n        uint256 _lotteryId,\n        uint256 _cursor,\n        uint256 _size\n    )\n        external\n        view\n        returns (\n            uint256[] memory,\n            uint32[] memory,\n            bool[] memory,\n            uint256\n        )\n    {\n        uint256 length = _size;\n        uint256 numberTicketsBoughtAtLotteryId = _userTicketIdsPerLotteryId[\n            _user\n        ][_lotteryId].length;\n\n        if (length > (numberTicketsBoughtAtLotteryId - _cursor)) {\n            length = numberTicketsBoughtAtLotteryId - _cursor;\n        }\n\n        uint256[] memory lotteryTicketIds = new uint256[](length);\n        uint32[] memory ticketNumbers = new uint32[](length);\n        bool[] memory ticketStatuses = new bool[](length);\n\n        for (uint256 i = 0; i < length; i++) {\n            lotteryTicketIds[i] = _userTicketIdsPerLotteryId[_user][_lotteryId][\n                i + _cursor\n            ];\n            ticketNumbers[i] = _tickets[lotteryTicketIds[i]].number;\n\n            // True = ticket claimed\n            if (_tickets[lotteryTicketIds[i]].owner == address(0)) {\n                ticketStatuses[i] = true;\n            } else {\n                // ticket not claimed (includes the ones that cannot be claimed)\n                ticketStatuses[i] = false;\n            }\n        }\n\n        return (\n            lotteryTicketIds,\n            ticketNumbers,\n            ticketStatuses,\n            _cursor + length\n        );\n    }\n\n    /**\n     * @notice Calculate rewards for a given ticket\n     * @param _lotteryId: lottery id\n     * @param _ticketId: ticket id\n     * @param _bracket: bracket for the ticketId to verify the claim and calculate rewards\n     */\n    function _calculateRewardsForTicketId(\n        uint256 _lotteryId,\n        uint256 _ticketId,\n        uint32 _bracket\n    ) internal view returns (uint256) {\n        // Retrieve the winning number combination\n        uint32 userNumber = _lotteries[_lotteryId].finalNumber;\n\n        // Retrieve the user number combination from the ticketId\n        uint32 winningTicketNumber = _tickets[_ticketId].number;\n\n        // Apply transformation to verify the claim provided by the user is true\n        uint32 transformedWinningNumber = _bracketCalculator[_bracket] +\n            (winningTicketNumber % (uint32(10)**(_bracket + 1)));\n\n        uint32 transformedUserNumber = _bracketCalculator[_bracket] +\n            (userNumber % (uint32(10)**(_bracket + 1)));\n\n        // Confirm that the two transformed numbers are the same, if not throw\n        if (transformedWinningNumber == transformedUserNumber) {\n            return _lotteries[_lotteryId].guitarPerBracket[_bracket];\n        } else {\n            return 0;\n        }\n    }\n\n    /**\n     * @notice Calculate final price for bulk of tickets\n     * @param _discountDivisor: divisor for the discount (the smaller it is, the greater the discount is)\n     * @param _priceTicket: price of a ticket\n     * @param _numberTickets: number of tickets purchased\n     */\n    function _calculateTotalPriceForBulkTickets(\n        uint256 _discountDivisor,\n        uint256 _priceTicket,\n        uint256 _numberTickets\n    ) internal pure returns (uint256) {\n        return\n            (_priceTicket *\n                _numberTickets *\n                (_discountDivisor + 1 - _numberTickets)) / _discountDivisor;\n    }\n\n    /**\n     * @notice Check if an address is a contract\n     */\n    function _isContract(address _addr) internal view returns (bool) {\n        uint256 size;\n        assembly {\n            size := extcodesize(_addr)\n        }\n        return size > 0;\n    }\n}\n",
  "sourcePath": "G:\\Blockchain\\Ethereum\\GuitarSwap\\Work\\PancakeSwap\\Work\\guitar-contracts\\contracts\\GuitarLottery.sol",
  "compiler": {
    "name": "solc",
    "version": "0.6.12+commit.27d51765.Emscripten.clang"
  },
  "schemaVersion": "3.4.5",
  "updatedAt": "2022-03-21T03:36:40.161Z",
  "devdoc": {
    "kind": "dev",
    "methods": {
      "buyTickets(uint256,uint32[])": {
        "details": "Callable by users",
        "params": {
          "_lotteryId": ": lotteryId",
          "_ticketNumbers": ": array of ticket numbers between 1,000,000 and 1,999,999"
        }
      },
      "calculateTotalPriceForBulkTickets(uint256,uint256,uint256)": {
        "params": {
          "_discountDivisor": ": divisor for the discount",
          "_numberTickets": "number of tickets to buy",
          "_priceTicket": "price of a ticket (in GUT)"
        }
      },
      "changeRandomGenerator(address)": {
        "details": "The calls to functions are used to verify the new generator implements them properly. It is necessary to wait for the VRF response before starting a round. Callable only by the contract owner",
        "params": {
          "_randomGeneratorAddress": ": address of the random generator"
        }
      },
      "claimTickets(uint256,uint256[],uint32[])": {
        "details": "Callable by users only, not contract!",
        "params": {
          "_brackets": ": array of brackets for the ticket ids",
          "_lotteryId": ": lottery id",
          "_ticketIds": ": array of ticket ids"
        }
      },
      "closeLottery(uint256)": {
        "details": "Callable by operator",
        "params": {
          "_lotteryId": ": lottery id"
        }
      },
      "constructor": {
        "details": "RandomNumberGenerator must be deployed prior to this contract",
        "params": {
          "_guitarTokenAddress": ": address of the GUT token",
          "_randomGeneratorAddress": ": address of the RandomGenerator contract used to work with ChainLink VRF"
        }
      },
      "drawFinalNumberAndMakeLotteryClaimable(uint256,bool)": {
        "details": "Callable by operator",
        "params": {
          "_autoInjection": ": reinjects funds into next lottery (vs. withdrawing all)",
          "_lotteryId": ": lottery id"
        }
      },
      "injectFunds(uint256,uint256)": {
        "details": "Callable by owner or injector address",
        "params": {
          "_amount": ": amount to inject in GUT token",
          "_lotteryId": ": lottery id"
        }
      },
      "owner()": {
        "details": "Returns the address of the current owner."
      },
      "recoverWrongTokens(address,uint256)": {
        "details": "Only callable by owner.",
        "params": {
          "_tokenAddress": ": the address of the token to withdraw",
          "_tokenAmount": ": the number of token amount to withdraw"
        }
      },
      "renounceOwnership()": {
        "details": "Leaves the contract without owner. It will not be possible to call `onlyOwner` functions anymore. Can only be called by the current owner. NOTE: Renouncing ownership will leave the contract without an owner, thereby removing any functionality that is only available to the owner."
      },
      "setMaxNumberTicketsPerBuy(uint256)": {
        "details": "Only callable by owner"
      },
      "setMinAndMaxTicketPriceInGuitar(uint256,uint256)": {
        "details": "Only callable by owner",
        "params": {
          "_maxPriceTicketInGuitar": ": maximum price of a ticket in GUT",
          "_minPriceTicketInGuitar": ": minimum price of a ticket in GUT"
        }
      },
      "setOperatorAndTreasuryAndInjectorAddresses(address,address,address)": {
        "details": "Only callable by owner",
        "params": {
          "_injectorAddress": ": address of the injector",
          "_operatorAddress": ": address of the operator",
          "_treasuryAddress": ": address of the treasury"
        }
      },
      "startLottery(uint256,uint256,uint256,uint256[6],uint256)": {
        "details": "Callable by operator",
        "params": {
          "_discountDivisor": ": the divisor to calculate the discount magnitude for bulks",
          "_endTime": ": endTime of the lottery",
          "_priceTicketInGuitar": ": price of a ticket in GUT",
          "_rewardsBreakdown": ": breakdown of rewards per bracket (must sum to 10,000)",
          "_treasuryFee": ": treasury fee (10,000 = 100%, 100 = 1%)"
        }
      },
      "transferOwnership(address)": {
        "details": "Transfers ownership of the contract to a new account (`newOwner`). Can only be called by the current owner."
      },
      "viewLottery(uint256)": {
        "params": {
          "_lotteryId": ": lottery id"
        }
      },
      "viewNumbersAndStatusesForTicketIds(uint256[])": {
        "params": {
          "_ticketIds": ": array of _ticketId"
        }
      },
      "viewRewardsForTicketId(uint256,uint256,uint32)": {
        "details": "Computations are mostly offchain. This is used to verify a ticket!",
        "params": {
          "_bracket": ": bracket for the ticketId to verify the claim and calculate rewards",
          "_lotteryId": ": lottery id",
          "_ticketId": ": ticket id"
        }
      },
      "viewUserInfoForLotteryId(address,uint256,uint256,uint256)": {
        "params": {
          "_cursor": ": cursor to start where to retrieve the tickets",
          "_lotteryId": ": lottery id",
          "_size": ": the number of tickets to retrieve",
          "_user": ": user address"
        }
      }
    },
    "title": "GuitarSwap Lottery.",
    "version": 1
  },
  "userdoc": {
    "kind": "user",
    "methods": {
      "buyTickets(uint256,uint32[])": {
        "notice": "Buy tickets for the current lottery"
      },
      "calculateTotalPriceForBulkTickets(uint256,uint256,uint256)": {
        "notice": "Calculate price of a set of tickets"
      },
      "changeRandomGenerator(address)": {
        "notice": "Change the random generator"
      },
      "claimTickets(uint256,uint256[],uint32[])": {
        "notice": "Claim a set of winning tickets for a lottery"
      },
      "closeLottery(uint256)": {
        "notice": "Close lottery"
      },
      "constructor": "Constructor",
      "drawFinalNumberAndMakeLotteryClaimable(uint256,bool)": {
        "notice": "Draw the final number, calculate reward in GUT per group, and make lottery claimable"
      },
      "injectFunds(uint256,uint256)": {
        "notice": "Inject funds"
      },
      "recoverWrongTokens(address,uint256)": {
        "notice": "It allows the admin to recover wrong tokens sent to the contract"
      },
      "setMaxNumberTicketsPerBuy(uint256)": {
        "notice": "Set max number of tickets"
      },
      "setMinAndMaxTicketPriceInGuitar(uint256,uint256)": {
        "notice": "Set GUT price ticket upper/lower limit"
      },
      "setOperatorAndTreasuryAndInjectorAddresses(address,address,address)": {
        "notice": "Set operator, treasury, and injector addresses"
      },
      "startLottery(uint256,uint256,uint256,uint256[6],uint256)": {
        "notice": "Start the lottery"
      },
      "viewCurrentLotteryId()": {
        "notice": "View current lottery id"
      },
      "viewLottery(uint256)": {
        "notice": "View lottery information"
      },
      "viewNumbersAndStatusesForTicketIds(uint256[])": {
        "notice": "View ticker statuses and numbers for an array of ticket ids"
      },
      "viewRewardsForTicketId(uint256,uint256,uint32)": {
        "notice": "View rewards for a given ticket, providing a bracket, and lottery id"
      },
      "viewUserInfoForLotteryId(address,uint256,uint256,uint256)": {
        "notice": "View user ticket ids, numbers, and statuses of user for a given lottery"
      }
    },
    "notice": "It is a contract for a lottery system using randomness provided externally.",
    "version": 1
  }
}