{
  "contractName": "TokenLocker",
  "abi": [
    {
      "inputs": [
        {
          "internalType": "address",
          "name": "_token",
          "type": "address"
        },
        {
          "internalType": "address",
          "name": "_receiver",
          "type": "address"
        },
        {
          "internalType": "uint256",
          "name": "_intervalSeconds",
          "type": "uint256"
        },
        {
          "internalType": "uint256",
          "name": "_releaseAmount",
          "type": "uint256"
        }
      ],
      "stateMutability": "nonpayable",
      "type": "constructor"
    },
    {
      "inputs": [],
      "name": "SECONDS_PER_BLOCK",
      "outputs": [
        {
          "internalType": "uint256",
          "name": "",
          "type": "uint256"
        }
      ],
      "stateMutability": "view",
      "type": "function"
    },
    {
      "inputs": [],
      "name": "interval",
      "outputs": [
        {
          "internalType": "uint256",
          "name": "",
          "type": "uint256"
        }
      ],
      "stateMutability": "view",
      "type": "function"
    },
    {
      "inputs": [],
      "name": "lastReleaseAt",
      "outputs": [
        {
          "internalType": "uint256",
          "name": "",
          "type": "uint256"
        }
      ],
      "stateMutability": "view",
      "type": "function"
    },
    {
      "inputs": [],
      "name": "receiver",
      "outputs": [
        {
          "internalType": "address",
          "name": "",
          "type": "address"
        }
      ],
      "stateMutability": "view",
      "type": "function"
    },
    {
      "inputs": [],
      "name": "releaseAmount",
      "outputs": [
        {
          "internalType": "uint256",
          "name": "",
          "type": "uint256"
        }
      ],
      "stateMutability": "view",
      "type": "function"
    },
    {
      "inputs": [],
      "name": "token",
      "outputs": [
        {
          "internalType": "contract IBEP20",
          "name": "",
          "type": "address"
        }
      ],
      "stateMutability": "view",
      "type": "function"
    },
    {
      "inputs": [],
      "name": "totalReleasedAmount",
      "outputs": [
        {
          "internalType": "uint256",
          "name": "",
          "type": "uint256"
        }
      ],
      "stateMutability": "view",
      "type": "function"
    },
    {
      "inputs": [],
      "name": "claim",
      "outputs": [],
      "stateMutability": "nonpayable",
      "type": "function"
    },
    {
      "inputs": [],
      "name": "lockInfo",
      "outputs": [
        {
          "internalType": "uint256",
          "name": "amount",
          "type": "uint256"
        },
        {
          "internalType": "uint256",
          "name": "timestamp",
          "type": "uint256"
        }
      ],
      "stateMutability": "view",
      "type": "function"
    }
  ],
  "bytecode": "0x61010060405234801561001157600080fd5b50604051610dcb380380610dcb8339818101604052608081101561003457600080fd5b50805160208201516040830151606090930151919290916001600160a01b038416610096576040805162461bcd60e51b815260206004820152600d60248201526c34b63632b3b0b6103a37b5b2b760991b604482015290519081900360640190fd5b6001600160601b0319606085811b821660805284901b1660a052600382116100f8576040805162461bcd60e51b815260206004820152601060248201526f1a5b1b1959d85b081a5b9d195c9d985b60821b604482015290519081900360640190fd5b6000610140600361012e600161011c6003886101c560201b6103091790919060201c565b61022660201b61036c1790919060201c565b61028360201b6103c91790919060201c565b60c08190529050600061015e4383610226602090811b61036c17901c565b60008190559050826101b7576040805162461bcd60e51b815260206004820152601560248201527f696c6c6567616c2072656c65617365416d6f756e740000000000000000000000604482015290519081900360640190fd5b505060e052506102ea915050565b60008282018381101561021f576040805162461bcd60e51b815260206004820152601b60248201527f536166654d6174683a206164646974696f6e206f766572666c6f770000000000604482015290519081900360640190fd5b9392505050565b60008282111561027d576040805162461bcd60e51b815260206004820152601e60248201527f536166654d6174683a207375627472616374696f6e206f766572666c6f770000604482015290519081900360640190fd5b50900390565b60008082116102d9576040805162461bcd60e51b815260206004820152601a60248201527f536166654d6174683a206469766973696f6e206279207a65726f000000000000604482015290519081900360640190fd5b8183816102e257fe5b049392505050565b60805160601c60a05160601c60c05160e051610a796103526000398061022c52806104a552508061016f52806102085280610288528061043c52806104785250806101d652806102c35250806101b552806102e752806104cf52806105a55250610a796000f3fe608060405234801561001057600080fd5b50600436106100a35760003560e01c8063c062dc5f11610076578063db762bc91161005b578063db762bc9146100ec578063f7260d3e1461010d578063fc0c546a14610131576100a3565b8063c062dc5f146100dc578063c1d74258146100e4576100a3565b806345eab180146100a85780634e71d92d146100c257806383273cd1146100cc578063947a36fb146100d4575b600080fd5b6100b0610139565b60408051918252519081900360200190f35b6100ca61013f565b005b6100b0610200565b6100b0610206565b6100b061022a565b6100b061024e565b6100f4610253565b6040805192835260208301919091528051918290030190f35b6101156102c1565b604080516001600160a01b039092168252519081900360200190f35b6101156102e5565b60005481565b60008061014a610430565b91509150816000148061015b575080155b156101675750506101fe565b61019d6101947f000000000000000000000000000000000000000000000000000000000000000083610624565b60005490610309565b6000556001546101ad9083610309565b6001556101fb7f00000000000000000000000000000000000000000000000000000000000000007f00000000000000000000000000000000000000000000000000000000000000008461067d565b50505b565b60015481565b7f000000000000000000000000000000000000000000000000000000000000000081565b7f000000000000000000000000000000000000000000000000000000000000000081565b600381565b60008061025e610430565b509150816102bd576102ba6102b360036102ad6102866000544361036c90919063ffffffff16565b7f00000000000000000000000000000000000000000000000000000000000000009061036c565b90610624565b4290610309565b90505b9091565b7f000000000000000000000000000000000000000000000000000000000000000081565b7f000000000000000000000000000000000000000000000000000000000000000081565b600082820183811015610363576040805162461bcd60e51b815260206004820152601b60248201527f536166654d6174683a206164646974696f6e206f766572666c6f770000000000604482015290519081900360640190fd5b90505b92915050565b6000828211156103c3576040805162461bcd60e51b815260206004820152601e60248201527f536166654d6174683a207375627472616374696f6e206f766572666c6f770000604482015290519081900360640190fd5b50900390565b600080821161041f576040805162461bcd60e51b815260206004820152601a60248201527f536166654d6174683a206469766973696f6e206279207a65726f000000000000604482015290519081900360640190fd5b81838161042857fe5b049392505050565b600080548190439081037f0000000000000000000000000000000000000000000000000000000000000000811015610470576000809350935050506102bd565b600061049c827f00000000000000000000000000000000000000000000000000000000000000006103c9565b905060006104ca7f000000000000000000000000000000000000000000000000000000000000000083610624565b9050807f00000000000000000000000000000000000000000000000000000000000000006001600160a01b03166370a08231306040518263ffffffff1660e01b815260040180826001600160a01b0316815260200191505060206040518083038186803b15801561053a57600080fd5b505afa15801561054e573d6000803e3d6000fd5b505050506040513d602081101561056457600080fd5b5051101561061a57604080517f70a0823100000000000000000000000000000000000000000000000000000000815230600482015290516001600160a01b037f000000000000000000000000000000000000000000000000000000000000000016916370a08231916024808301926020929190829003018186803b1580156105eb57600080fd5b505afa1580156105ff573d6000803e3d6000fd5b505050506040513d602081101561061557600080fd5b505190505b9450925050509091565b60008261063357506000610366565b8282028284828161064057fe5b04146103635760405162461bcd60e51b8152600401808060200182810382526021815260200180610a236021913960400191505060405180910390fd5b604080516001600160a01b038416602482015260448082018490528251808303909101815260649091019091526020810180517bffffffffffffffffffffffffffffffffffffffffffffffffffffffff167fa9059cbb000000000000000000000000000000000000000000000000000000001790526106fd908490610702565b505050565b6060610757826040518060400160405280602081526020017f5361666542455032303a206c6f772d6c6576656c2063616c6c206661696c6564815250856001600160a01b03166107b39092919063ffffffff16565b8051909150156106fd5780806020019051602081101561077657600080fd5b50516106fd5760405162461bcd60e51b815260040180806020018281038252602a8152602001806109d3602a913960400191505060405180910390fd5b60606107c284846000856107cc565b90505b9392505050565b60608247101561080d5760405162461bcd60e51b81526004018080602001828103825260268152602001806109fd6026913960400191505060405180910390fd5b61081685610928565b610867576040805162461bcd60e51b815260206004820152601d60248201527f416464726573733a2063616c6c20746f206e6f6e2d636f6e7472616374000000604482015290519081900360640190fd5b60006060866001600160a01b031685876040518082805190602001908083835b602083106108a65780518252601f199092019160209182019101610887565b6001836020036101000a03801982511681845116808217855250505050505090500191505060006040518083038185875af1925050503d8060008114610908576040519150601f19603f3d011682016040523d82523d6000602084013e61090d565b606091505b509150915061091d82828661092e565b979650505050505050565b3b151590565b6060831561093d5750816107c5565b82511561094d5782518084602001fd5b8160405162461bcd60e51b81526004018080602001828103825283818151815260200191508051906020019080838360005b8381101561099757818101518382015260200161097f565b50505050905090810190601f1680156109c45780820380516001836020036101000a031916815260200191505b509250505060405180910390fdfe5361666542455032303a204245503230206f7065726174696f6e20646964206e6f742073756363656564416464726573733a20696e73756666696369656e742062616c616e636520666f722063616c6c536166654d6174683a206d756c7469706c69636174696f6e206f766572666c6f77a2646970667358221220a3631db72c2dd7703c6a4d8fce920c80d0299b99affed60824e4e0780b94870f64736f6c634300060c0033",
  "immutableReferences": {
    "4878": [
      {
        "length": 32,
        "start": 437
      },
      {
        "length": 32,
        "start": 743
      },
      {
        "length": 32,
        "start": 1231
      },
      {
        "length": 32,
        "start": 1445
      }
    ],
    "4881": [
      {
        "length": 32,
        "start": 470
      },
      {
        "length": 32,
        "start": 707
      }
    ],
    "4887": [
      {
        "length": 32,
        "start": 367
      },
      {
        "length": 32,
        "start": 520
      },
      {
        "length": 32,
        "start": 648
      },
      {
        "length": 32,
        "start": 1084
      },
      {
        "length": 32,
        "start": 1144
      }
    ],
    "4890": [
      {
        "length": 32,
        "start": 556
      },
      {
        "length": 32,
        "start": 1189
      }
    ]
  },
  "source": "\n\npragma solidity >=0.5.16;\n\nimport \"./libs/SafeBEP20.sol\";\n\ncontract TokenLocker {\n    using SafeMath for uint256;\n\n    ///@notice every block cast 3 seconds\n    uint256 public constant SECONDS_PER_BLOCK = 3;\n\n    ///@notice the token to lock\n    IBEP20 public immutable token;\n\n    ///@notice who will receive this token\n    address public immutable receiver;\n\n    ///@notice the blockNum of last release, the init value would be the timestamp the contract created\n    uint256 public lastReleaseAt;\n\n    ///@notice how many block must be passed before next release\n    uint256 public immutable interval;\n\n    ///@notice the amount of one release time\n    uint256 public immutable releaseAmount;\n\n    ///@notice the total amount till now\n    uint256 public totalReleasedAmount;\n\n    constructor(\n        address _token, address _receiver, uint256 _intervalSeconds, uint256 _releaseAmount\n    ) public {\n        require(_token != address(0), \"illegal token\");\n        token = IBEP20(_token);\n        receiver = _receiver; \n        //lastReleaseAt = block.number;\n        require(_intervalSeconds > SECONDS_PER_BLOCK, 'illegal interval');\n        uint256 interval_ = _intervalSeconds.add(SECONDS_PER_BLOCK).sub(1).div(SECONDS_PER_BLOCK);\n        interval = interval_;\n        uint256 lastReleaseAt_ = block.number.sub(interval_);\n        lastReleaseAt = lastReleaseAt_;\n        require(_releaseAmount > 0, 'illegal releaseAmount');\n        releaseAmount = _releaseAmount;\n    }\n\n    function getClaimInfo() internal view returns (uint256, uint256) {\n        uint currentBlockNum = block.number;\n        uint intervalBlockNum = currentBlockNum - lastReleaseAt;\n        if (intervalBlockNum < interval) {\n            return (0, 0);\n        }\n        uint times = intervalBlockNum.div(interval);\n        uint amount = releaseAmount.mul(times);\n        if (token.balanceOf(address(this)) < amount) {\n            amount = token.balanceOf(address(this));\n        }\n        return (amount, times);\n    }\n\n    function claim() external {\n        (uint amount, uint times) = getClaimInfo();\n        if (amount == 0 || times == 0) {\n            return;\n        }\n        lastReleaseAt = lastReleaseAt.add(interval.mul(times));\n        totalReleasedAmount = totalReleasedAmount.add(amount);\n        SafeBEP20.safeTransfer(token, receiver, amount);\n    }\n\n    ///@notice return the amount we can claim now, and the next timestamp we can claim next time\n    function lockInfo() external view returns (uint256 amount, uint256 timestamp) {\n        (amount, ) = getClaimInfo();\n        if (amount == 0) {\n            timestamp = block.timestamp.add(interval.sub(block.number.sub(lastReleaseAt)).mul(SECONDS_PER_BLOCK));\n        }\n    }\n}",
  "sourcePath": "G:\\Blockchain\\Ethereum\\GuitarSwap\\Work\\PancakeSwap\\Work\\guitar-contracts\\contracts\\GuitarLocker.sol",
  "compiler": {
    "name": "solc",
    "version": "0.6.12+commit.27d51765.Emscripten.clang"
  },
  "schemaVersion": "3.4.5",
  "updatedAt": "2022-03-21T03:36:40.147Z",
  "devdoc": {
    "kind": "dev",
    "methods": {},
    "version": 1
  },
  "userdoc": {
    "kind": "user",
    "methods": {
      "SECONDS_PER_BLOCK()": {
        "notice": "every block cast 3 seconds"
      },
      "interval()": {
        "notice": "how many block must be passed before next release"
      },
      "lastReleaseAt()": {
        "notice": "the blockNum of last release, the init value would be the timestamp the contract created"
      },
      "lockInfo()": {
        "notice": "return the amount we can claim now, and the next timestamp we can claim next time"
      },
      "receiver()": {
        "notice": "who will receive this token"
      },
      "releaseAmount()": {
        "notice": "the amount of one release time"
      },
      "token()": {
        "notice": "the token to lock"
      },
      "totalReleasedAmount()": {
        "notice": "the total amount till now"
      }
    },
    "version": 1
  }
}